:020000040800F2
:1000000000000220954B0008B9360008BB360008F6
:10001000BD360008BF360008C136000800000000E9
:10002000000000000000000000000000C3360008CF
:10003000C536000800000000310200081504000861
:10004000E54B0008E54B0008E54B0008E54B0008D0
:10005000E54B0008E54B0008E54B0008E54B0008C0
:10006000E54B0008E54B0008E54B0008E54B0008B0
:10007000E54B0008E54B0008E54B0008E54B0008A0
:10008000E9360008FD360008E54B0008E54B00089E
:10009000E54B0008E54B0008E54B0008E54B000880
:1000A000E54B0008E54B0008E54B0008E54B000870
:1000B000E54B0008E54B0008E54B0008E54B000860
:1000C000E54B0008E54B0008E54B0008E54B000850
:1000D000E54B0008E54B0008D5360008E54B000865
:1000E000E54B0008E54B0008E54B0008E54B000830
:1000F000E54B0008E54B0008E54B0008E54B000820
:10010000E54B0008E54B0008E54B0008E54B00080F
:10011000E54B0008E54B0008E54B0008E54B0008FF
:10012000E54B0008E54B0008E54B0008E54B0008EF
:10013000E54B00080000000000000000E54B00084F
:10014000E54B0008E54B0008E54B0008E54B0008CF
:10015000E54B0008E54B0008E54B0008E54B0008BF
:10016000E54B0008E54B0008E54B0008E54B0008AF
:10017000E54B0008E54B0008E54B000800000000D7
:1001800000000000E54B0008000000000000000037
:10019000E54B00080000000000000000E54B0008EF
:1001A000000000000000000000000000E54B000817
:1001B000E54B0008E54B0008E54B0008E54B00085F
:0401C000E54B000803
:1001D00010B5054C237833B9044B13B10448AFF381
:1001E00000800123237010BDA40000200000000047
:1001F0003057000808B5034B1BB103490348AFF360
:10020000008008BD00000000A80000203057000852
:100210004FF00000224A106062B64FF080504FF05D
:10022000E021C1F8040DBFF34F8FBFF36F8FFEE7DE
:100230001C481D4A4FF00003016869B10360EFF3E9
:10024000098C2CE9F00F194C4CF804ED2568C1F825
:1002500008C00DB18D61236072B6116889B101606B
:1002600062B64F68114C8D6907F101074F60256038
:10027000D1F808C05CF804EBBCE8F00F8CF30988F7
:10028000704772B61168016009B962B6F9E74FF0BC
:1002900000674FF0E028C8F8047D62B6E1E700008F
:1002A000140100200401002008010020080700209C
:1002B0002249086800F101000860214B1A683AB130
:1002C000A2F101021A601AB91E4B4FF0010018602A
:1002D0001D490868026822B11C4B4FF001021A60E8
:1002E00008E000F104001A4B1A68904201D1194B42
:1002F00018680860134B1A6812B914490868D0B11D
:100300002DE901401149086808B100F091FE0D4B3C
:100310001A6872B100F042FE0F48016849B90F48EF
:1003200001680F4A13680F484FF08052994200D07D
:100330000260BDE80140BFF34F8F704750020020BC
:1003400008070020B4010020AC010020B00100200B
:100350003C02002040020020140100200401002083
:100360000801002004ED00E0000000000000000093
:10037000026922F00702A2F144026FF00203136047
:100380004FF0000353609360D36013615361936136
:10039000D361136253629362D362136353634FF06A
:1003A000FF339363D1634FF08073136482607047AF
:1003B00072B61D481D4901F1040101604FF0E020B3
:1003C0001B49C0F8081D1B481949096801601A48F3
:1003D000016841F0010101604FF0E0204EF65F211D
:1003E00041614FF0070101614FF00001C0F8181D95
:1003F0004FF07F41C0F81C1D1049C0F8201D704708
:10040000FFF7FEBFFFF7FEBFFFF7FEBF01B5BDE878
:100410000140704701B5FFF74BFFBDE80140704751
:10042000FFF7FEBFFFF7FEBFDC0000200000022048
:1004300000000008A0010020001000E00000FF40C4
:10044000034613F8012B002AFBD1181A0138704714
:1004500001F0FF01102A2BDB10F0070F08D010F875
:10046000013B013A8B422DD010F0070F42B3F6D179
:10047000F0B441EA012141EA014122F007047FF092
:1004800000070023F0E80256083C85EA010586EAE9
:10049000010685FA47F5A3FA87F586FA47F6A5FA25
:1004A00087F68EB9EED1F0BC01F0FF0102F0070231
:1004B00032B110F8013B013A83EA010313B1F8D1DC
:1004C0000020704701387047002D06BF35460338BD
:1004D000073815F0010F07D1013015F4807F02BFF6
:1004E000013015F4C03F0130F0BC0138704700BF47
:1004F00053B94AB9002908BF00281CBF4FF0FF318B
:100500004FF0FF3000F074B9ADF1080C6DE904CE86
:1005100000F006F8DDF804E0DDE9022304B07047DE
:100520002DE9F047089E0D4604468846002B4DD124
:100530008A42944668D9B2FA82F252B101FA02F3C1
:10054000C2F1200120FA01F10CFA02FC41EA030891
:1005500094404FEA1C45210CB8FBF5FE1FFA8CF7BE
:1005600005FB1E8341EA03430EFB07F199420BD9B9
:100570001CEB03030EF1FF3080F01E81994240F224
:100580001B81AEF1020E63445B1AA4B2B3FBF5F01B
:1005900005FB103344EA034400FB07F7A7420AD9DE
:1005A0001CEB040400F1FF3380F00881A74240F205
:1005B000058164440238E41B40EA0E4000211EB16C
:1005C000D4400023C6E90043BDE8F0878B4208D938
:1005D000002E00F0EE800021C6E900050846BDE8C7
:1005E000F087B3FA83F100294AD1AB4202D38242A9
:1005F00000F2F980841A65EB030301209846002E6F
:10060000E2D0C6E90048DFE702B9FFDEB2FA82F2C3
:10061000002A40F09180A1EB0C054FEA1C471FFA1D
:100620008CFE0121B5FBF7F307FB1350250C45EABF
:1006300000450EFB03F0A84208D91CEB050503F1A9
:10064000FF3802D2A84200F2CB8043462D1AA4B252
:10065000B5FBF7F007FB105544EA05440EFB00FE1E
:10066000A64508D91CEB040400F1FF3502D2A645CB
:1006700000F2BB802846A4EB0E0440EA03409EE74C
:10068000C1F120078B4022FA07FC4CEA030C20FA48
:1006900007F405FA01F31C43FD404FEA1C4900FA38
:1006A00001F3B5FBF9F8200C1FFA8CFE09FB185575
:1006B00040EA054508FB0EF0A84202FA01F20BD908
:1006C0001CEB050508F1FF3A80F08880A84240F253
:1006D0008580A8F1020865442D1AA4B2B5FBF9F093
:1006E00009FB105544EA054500FB0EFEAE4508D94E
:1006F0001CEB050500F1FF346CD2AE456AD9023817
:10070000654440EA0840A0FB0294A5EB0E05A54213
:10071000C846A64656D353D05EB1B3EB080265EB8C
:100720000E0505FA07F722FA01F3CD401F43C6E98B
:1007300000750021BDE8F087C2F1200320FA03F123
:100740000CFA02FC25FA03F395400D434FEA1C47CF
:100750001FFA8CFEB3FBF7F107FB11302B0C43EAB9
:10076000004301FB0EF0984204FA02F408D91CEB96
:10077000030301F1FF382FD298422DD90239634487
:100780001B1AADB2B3FBF7F007FB103345EA034584
:1007900000FB0EF3AB4208D91CEB050500F1FF3856
:1007A00016D2AB4214D902386544ED1A40EA014131
:1007B00038E73146304607E78646E5E61846FAE66A
:1007C0004B45A9D2B9EB020864EB0C0E0138A3E744
:1007D0004046EAE7204694E74146D1E7D0467BE72A
:1007E000023B654432E7084609E76444023842E7C1
:1007F000704700BF82B0002100910B4B5A6C42F44D
:1008000080425A645A6C02F480420092009A01912C
:100810001A6C42F080521A641B6C03F080530193EF
:10082000019B02B0704700BF0038024010B503467C
:100830000C4A0D490D48006840B10C48006803445B
:10084000521A934206D8094A136010BD0748084C53
:100850000460F2E704F02CFA0C2303604FF0FF3041
:10086000F3E700BF0000022000040000C0000020E9
:10087000585000200120704708B504F019FA1623DB
:1008800003604FF0FF3008BD08B54FF0FF31FFF7B0
:10089000F3FFFEE7F8B504460F4616461D46342220
:1008A000002104F04DFA25F003036760A661E361BF
:1008B00026616661A3F10802A2600222E26033446D
:1008C00043F8044CA3F1080243F8086C32600F4B64
:1008D000736000232362EFF3108272B60C4B236027
:1008E0000C4B1B6853B90C490C60E4622463013360
:1008F00008490B6082F310880020F8BD064909689A
:10090000086B0C63C4622063E162F0E7EEEEFFFF68
:1009100045545942CC000020D000002008B500F01A
:10092000F3F800F097FB00230C4A13600C4A1360A5
:100930000C4A13600C4A13600C4A13600C4A136093
:100940000C4A13600C4A13600C4A13600C4A136083
:100950000C4A13600C4A136008BD00BFF40000206D
:10096000F0000020EC000020E8000020D80000206B
:10097000D4000020C8000020C4000020D0000020C7
:10098000CC000020E4000020E000002010B50F4B58
:100990001B6813F10F3F0CD10C4C4FF0F033236068
:1009A0000B4B186802F05CFF00232360FFF730FC5C
:1009B00010BD064B4FF0F0321A60FFF7F9FCFFF75D
:1009C000ADFF044A136801331360E5E7040000201B
:1009D000DC000020140100202DE9F84F0446894670
:1009E00090461F460A9D0B9EDDF830B0DDF838A01A
:1009F0003246EF21284604F0A3F9B4220021204614
:100A000004F09EF9C4F82890C4F84480A764E56017
:100A10006661C4F82CB0C4F894B0C4F818A0C4F847
:100A20001CA02023C4F89C30013E354425610D9B59
:100A3000E363C4F89830032323632B4B6365A465F9
:100A40002A492046FFF794FCEFF3108172B6284B39
:100A50002360284B1B68F3B9274A1460C4F8884008
:100A6000C4F88C400133234A1360244A13680133CD
:100A700013600F9B012B27D1EFF30582204B1B68DE
:100A80001343B3F1F03F13D31E4B1D68D5B1EE6B8A
:100A9000EB6AEB630EE0184A1268D2F88C00C2F8D9
:100AA0008C40C0F88840C4F88C00C4F88820D9E78E
:100AB0000026354681F31088204600F0F1F885B114
:100AC000EE630EE00026F5E781F31088EFF3108166
:100AD00072B60A4A1368013B136081F3108800F074
:100AE000C1F80020BDE8F88FFD0F0008750B000865
:100AF00044524854FC000020000100201401002052
:100B0000040000200801002010B500240E4B1C60DA
:100B10000E4B1C600E4B1C600E4B1C600E4B2022BB
:100B20001A60802221460D4804F00AF90C4B1C6023
:100B30000C4B1C600C4B1C600C4B1C600C4A13686B
:100B400043F08073136010BD0401002008010020F1
:100B50009C010020180100200C0100201C01002035
:100B600000010020FC0000201401002010010020E2
:100B7000F800002038B5164B1C68EFF3108272B6EF
:100B8000D4F8AC3082F3108813B100212046984786
:100B9000636CA06C98470F4B1B680BB120469847BD
:100BA000EFF3108172B6D4F8AC5001232363A36332
:100BB0000023E364084A13680133136081F310884B
:100BC00015B101212046A847204600F005F938BD9F
:100BD00004010020100100201401002010B5EFF3E3
:100BE000108272B61B4B1C6864B1EFF305831A497F
:100BF00009680B430AD1194B9C420BD070B982F3A0
:100C0000108806E082F31088132002E082F3108837
:100C1000132010BD82F310881320FAE7104B1B68D5
:100C20001BB182F310881320F3E70423236301230D
:100C3000A3630023C4F88430E06409490B680133DE
:100C40000B6082F31088204600F0C6F8D4F88400C8
:100C5000DFE700BF04010020040000205402002050
:100C6000140100200B4B1B689BB90B4B1A680B4BF4
:100C70001B689A420DD04FF0E0234FF08052C3F82A
:100C8000042DEFF3058323B9EFF3108362B683F3EA
:100C90001088704714010020040100200801002082
:100CA00038B50446EFF3108572B6436EDBB14C30B5
:100CB00000F064FA414A1368013B1360A36B002BF8
:100CC0006CD1236B002B4FD0636B002B48D1236377
:100CD000E26A3B4B53F8223043B15A6A14625C62B9
:100CE0006262236240E00023C364E3E7344B43F8CD
:100CF000224024626462012303FA02F1314803684E
:100D00000B430360304B1B6893422DD92E4B1A6066
:100D10002E4B1B680BB3D96B914225D9DB6A9942E4
:100D200005D001229A402A490B6813430B60274BD8
:100D30001C6085F31088214B1B6873BB4FF0E023C8
:100D40004FF08052C3F8042DEFF305832BBBEFF374
:100D5000108362B683F310881FE01C4B1C6003E015
:100D600000236363032323631A4B1B6885F31088F6
:100D7000164A12689A4210D0104B1B686BB94FF09C
:100D8000E0234FF08052C3F8042DEFF3058323B91D
:100D9000EFF3108362B683F3108838BD236B012B09
:100DA000E2D0022BE0D0636B13B9A3632363DBE7CC
:100DB0000023636303232363D6E700BF14010020ED
:100DC0001C0100209C0100200C01002008010020D3
:100DD000180100200401002070B50446674B1E680E
:100DE000EFF3108572B686421ED0654A1368013B48
:100DF0001360A36B012B24D085F31088614B1B6813
:100E0000B34210D05E4B1B686BB94FF0E0234FF03C
:100E10008052C3F8042DEFF3058323B9EFF3108359
:100E200062B683F3108870BDC36C13B1B3F1FF3F9A
:100E300003D1E269544B1A60D7E74C3000F072F9E5
:100E4000F7E70023A363E26A236A9C425DD0616AEC
:100E500059620B624D4951F82210A14246D0494BCC
:100E60001B68A342C8D14A4B1A68484B53F822204A
:100E7000444B1A60474B1B6813B3414B1A6801324D
:100E80001A6085F31088EFF3108572B61A68013A7C
:100E90001A60404B1A6892FAA2F3B3FA83F33B4903
:100EA00051F82310CC6B3A480068844208D8354882
:100EB0000160012101FA03F322EA0302354B1A60B3
:100EC00085F310882E4B1B68002BACD14FF0E0232C
:100ED0004FF08052C3F8042DEFF30583002BA2D10D
:100EE000EFF3108362B683F310889CE7274941F83B
:100EF0002230284B1B68002BB1D0012101FA02F2ED
:100F000023EA0203234A1360A9E7204B002143F898
:100F100022100123934020490A68D84322EA0302A1
:100F20000A601C4B1B6813B118401A4B186032B191
:100F300092FAA2F2B2FA82F2154B1A608FE7144BC2
:100F400020221A600F4B00221A6085F310880C4B88
:100F50001B68002B7FF467AF4FF0E0234FF0805207
:100F6000C3F8042DEFF30583002B7FF45CAFEFF3A0
:100F7000108362B683F3108855E700BF0401002098
:100F80001401002008010020080700201C01002097
:100F90000C010020180100209C010020114B1B684F
:100FA000EFF3108272B610490020086063B1196B2C
:100FB00051B9D96999610D480160196A994203D004
:100FC000D86ADB6B984202D082F310887047084BD6
:100FD00043F820100749096853F82110064B19609F
:100FE000F2E700BF04010020B40100200807002040
:100FF0001C0100200C0100200801002008B5EFF3BF
:10100000108272B6036B042B07D0836ED0F8B01039
:1010100082F3108803B1984708BD04490B68013377
:101020000B6082F31088FFF73BFEF5E71401002008
:1010300008B5EFF3108172B6044A136801331360E8
:1010400081F310880248FFF72BFE08BD1401002031
:101050005402002030B587B000241F4B1C601F4B8A
:101060001C601F4B1C601F4B1C601F4B1C601F4DE6
:1010700080222146284603F063FE1D4B1D601D4B58
:101080001D601D4B05F17C021A6080351D601B4BF5
:101090001B4A1A601B4B4FF480621A601A4B1C608B
:1010A000194B1B6800220592049203930293154B7F
:1010B0001B680193114B1B680093144B144A15498C
:1010C0001548FFF789FC0028EAD10023134A136072
:1010D000134A136007B030BD5002002008070020FB
:1010E000B4010020B0010020B8010020BC010020A4
:1010F00040020020AC0100203C0200204C020020F5
:101100000803002048020020440200204D495441B9
:10111000AD1100088857000854020020A8010020E3
:10112000A4010020036823B1B3F1FF3F01D082691D
:1011300002B17047202B15D8013B0D4A126802EB13
:1011400083030C4A12689A4203D89B1A0A4A12680F
:1011500013441A6842B151690861506102614161EA
:101160008361E6E71F23E8E7006140611860F7E765
:10117000AC0100203C02002040020020836953B1F2
:101180000269904208D0416951610A61196881423F
:1011900008D00023836170471A688242F9D1002287
:1011A0001A60F6E793611A60F3E700003F4B98423C
:1011B00000D0704770B582B0002556E03C4B1A68ED
:1011C0003C4B1A6065E001912BE0A368E56861681B
:1011D0002160002930D0C4F818D024610094364929
:1011E0000C6082F310880BB128469847EFF3108605
:1011F00072B6314B00221A60009BA3421FD086F3C7
:101200001088EFF3108272B6019CECB123690021C3
:1012100000919C42D7D0616959610B6101A9996124
:1012200001932368202BD0D9203B2360C4F818D029
:10123000246100940023D2E70021A161CFE7A261DD
:101240002046FFF76FFFDAE71C4B1B68002B29D104
:101250001B4803230363012383631A490B6801338B
:101260000B6082F31088FFF7B7FDEFF3108172B6C1
:10127000104B1A68136801930BB101A89861002301
:1012800013600C4A1368043313600F4A12689342C8
:1012900094D00A4B00221A6081F31088EFF3108279
:1012A00072B6B1E782F31088DFE700BF4D495441C1
:1012B00040020020AC010020B8010020B001002055
:1012C00054020020140100203C020020002850D0CD
:1012D0002DE9F8438946174698460646089B342B65
:1012E00002D00220BDE8F883EFF3108172B6264ADF
:1012F00013680133136081F31088244B1C680020AD
:10130000234D2D68854204D9B44202D0E46A0130ED
:10131000F6E7EFF3108172B61B4A1368013B1360C6
:1013200081F31088FFF79EFCB44224D02FB3B8F1AC
:10133000630F24D9174B1A68174B9A4217D0002015
:10134000EFF30583154A1268134307D0EFF30582C4
:10135000124B1B681343B3F1F03F12D30028C1D1E5
:1013600043463A4649463046FFF794FABAE7132017
:10137000E6E7022070470220B4E70320B2E7052029
:10138000B0E71320AEE700BF14010020D00000201A
:10139000CC000020040100205402002004000020A2
:1013A0002DE9F04786B00E9E00287DD089469046F4
:1013B0009A460746149BB42B03D00E2006B0BDE816
:1013C000F087EFF3108172B6404A1368013313605F
:1013D00081F310883E4B1C680F9B5A1E324400203C
:1013E000014602E0D4F8884001303A4B1B68834242
:1013F00012D9BC4210D079B9E568B54204D8236946
:10140000B34201D9012100269542EBD823699342CA
:10141000E8D901210026E5E7EFF3108172B62B4AE7
:101420001368013B136081F31088FFF71BFCBC427B
:101430003CD0002E3CD0B8F1000F3BD00F9BC72B07
:101440003AD9109B1F2B39D8119A934238D3139B4A
:10145000012B37D8204B1A68204B9A4222D000200B
:10146000EFF305831E4A1268134307D0EFF305829A
:101470001B4B1B681343B3F1F03F25D300289DD1CC
:10148000139B0593129B0493119B0393109B029350
:101490000F9B019300965346424649463846FFF754
:1014A0009BFA8BE71320DBE70E2087E70E2085E70A
:1014B000032083E7032081E705207FE70F207DE7F6
:1014C00018207BE7102079E7132077E7140100202C
:1014D00000010020FC000020040100205402002034
:1014E000040000207047000010B504460E4B187829
:1014F0004FF47A73B3FBF0F30C4A1068B0FBF3F0CF
:1015000000F0AEF868B90F2C01D901200AE00022E2
:1015100021464FF0FF3000F045F8054B1C600020DD
:1015200000E0012010BD00BF0C00002008000020DA
:101530001000002008B50B4B1A6842F400721A60C4
:101540001A6842F480621A601A6842F480721A6063
:10155000032000F009F80F20FFF7C6FFFFF74AF954
:10156000002008BD003C024010B50446C31E042BF9
:101570000FD80A4AD36823F4E0631B041B0C24022F
:1015800004F4E064234343F0BF6343F40033D360C7
:1015900010BD9221024802F0DDFAEAE700ED00E01A
:1015A000B457000870B505460C4616460F2A25D8D4
:1015B0000F2C28D81B4BDB68C3F30223C3F10701B0
:1015C000042928BF04211A1D062A21D9033B4FF004
:1015D000FF3202FA01F124EA01049C4002FA03F30B
:1015E00026EA03063443002D14DB2401E4B205F19E
:1015F000604505F5614585F8004370BDAA210A489C
:1016000002F0A8FAD4E7AB21074802F0A3FAD1E729
:101610000023DCE705F00F052401E4B2034B5C5521
:10162000EBE700BF00ED00E0B457000814ED00E068
:1016300010B5041E0ADB002C07DB04F01F0264094E
:1016400001239340044A42F8243010BDBE210348D0
:1016500002F080FAEFE700BF00E100E0B4570008B5
:101660000138B0F1807F0BD24FF0E0235861054A7A
:10167000F02182F823100020986107221A61704738
:101680000120704700ED00E030B405682C6824F4B8
:1016900080242C60046863608368402B05D0036855
:1016A00099600368DA6030BC704703689A60036829
:1016B000D960F8E710B40368D9B210390B4AA2FB1D
:1016C000014212090A4CA25CC2655F2908D923F4C1
:1016D0007F7323F0030304338365806D10BC704770
:1016E00023F47F7323F003038365F6E7ABAAAAAA6A
:1016F00030580008836A826992B9012B0AD0022B04
:1017000002D00BB100207047C36A13F0807F28D14C
:1017100000207047C36AB3F1C07F24D00020704717
:10172000B2F5005F09D0022B25D9032B25D1C36A5E
:1017300013F0807F23D100207047032B03D8DFE80C
:1017400003F01404140A00207047C36A13F0807F6A
:101750000DD100207047C36AB3F1C07F09D00020CB
:101760007047012070470120704701207047012019
:10177000704701207047012070470020704701200A
:101780007047000070B5044601F09EFF002C00F089
:101790003E8105462368954A934231D018329342E0
:1017A0002ED0183293422BD01832934228D01832C0
:1017B000934225D01832934222D0183293421FD040
:1017C000183293421CD002F55672934218D0183248
:1017D000934215D01832934212D0183293420FD050
:1017E000183293420CD01832934209D018329342E7
:1017F00006D01832934203D0B8217D4802F0AAF9EE
:101800006368A3B1B3F1007F11D0B3F1806F0ED044
:10181000B3F1C06F0BD0B3F1006F08D0B3F1206FFC
:1018200005D0B3F1406F02D0B3F1606F6DD1A36802
:101830001BB1402B01D0802B6CD1E368B3F5007F46
:1018400001D0002B6BD12369B3F5806F01D0002B41
:101850006AD163692BB1B3F5006F02D0B3F5805F35
:1018600067D1A3692BB1B3F5005F02D0B3F5804F08
:1018700064D1E36923B1B3F5807F01D0202B62D11D
:10188000236A43B1B3F5803F05D0B3F5003F02D0E2
:10189000B3F5403F5CD1636A0BB1042B5DD1636A41
:1018A000C3B1A36A032B5DD8E36A43B1B3F5000F5C
:1018B00005D0B3F1807F02D0B3F1C07F57D1236B45
:1018C00043B1B3F5001F05D0B3F5800F02D0B3F5D7
:1018D000C00F51D1022384F83530002384F834300E
:1018E0002268136823F00103136023681A6812F05A
:1018F000010F46D001F0E8FE401B0528F5D9202352
:101900006365032084F8350070BDB921384802F0C2
:1019100021F98CE7BA21364802F01CF98DE7BB218A
:10192000334802F017F98EE7BC21314802F012F972
:101930008FE7BD212E4802F00DF992E7BE212C4819
:1019400002F008F995E7BF21294802F003F997E76B
:10195000C021274802F0FEF89DE7C121244802F08B
:10196000F9F89CE7C621224802F0F4F89CE7C72169
:101970001F4802F0EFF8A2E7C8211D4802F0EAF87C
:10198000A8E71A681B4810406168A2680A43E1682A
:101990000A4321690A4361690A43A1690A43E1696B
:1019A0000A43216A0A430243616A042924D01A6067
:1019B0002668756925F00705636A1D43042B07D166
:1019C000A36A1D43E36A1BB12046FFF793FEC0B92B
:1019D00075612046FFF76EFEE26D3F239340836002
:1019E00000206065012384F835308DE710600240E7
:1019F000F45700083F8010F0E16A206B01430A436E
:101A0000D5E740236365012084F835007CE7012099
:101A10007AE700BF2DE9F04104460E4617461D4601
:101A2000D0F858805A1E4FF6FE739A4211D894F897
:101A30003430012B36D0012384F8343094F835301B
:101A4000DBB2012B0BD0002384F834300220BDE838
:101A5000F0814FF4E671144802F07CF8E7E70223C6
:101A600084F83530002363652B463A4631462046DC
:101A7000FFF70AFEE26D3F239340C8F80830226862
:101A8000136843F016031360236C23B122681368B4
:101A900043F0080313602268136843F001031360E6
:101AA0000020D4E70220D2E7F457000870B50446BE
:101AB000866D01F009FE94F83530DBB2022B06D0BA
:101AC00080236365002384F83430012070BD05460F
:101AD0002268136823F0160313602268536923F009
:101AE00080035361236CE3B12268136823F0080379
:101AF00013602268136823F00103136023681B68D6
:101B000013F0010F11D001F0DFFD431B052BF5D9B8
:101B100020236365032084F83500002384F83430E3
:101B2000D4E7A36C002BDFD1E3E7E26D3F239340C2
:101B3000B360012384F83530002084F83400C5E711
:101B400090F83530DBB2022B03D0802343650120AF
:101B50007047052380F835300268136823F00103CD
:101B60001360002070470000F0B583B004460023E6
:101B70000193724B1D68724BA3FB0535AD0A876D4F
:101B80003E68C26D08239340334210D003681A6840
:101B900012F0040F0BD01A6822F004021A60C26D12
:101BA00008239340BB60436D43F001034365E26D3E
:101BB00001239340334209D02268526912F0800F0A
:101BC00004D0BB60636D43F002036365E26D0423E0
:101BD0009340334209D02268126812F0020F04D0F9
:101BE000BB60636D43F004036365E26D10239340B3
:101BF000334224D02268126812F0080F1FD0BB6055
:101C000023681A6812F4802F0DD01B6813F4002F7C
:101C100004D1236C9BB12046984710E0A36C73B1AC
:101C2000204698470BE01A6812F4807F03D11A68A7
:101C300022F008021A60236C0BB120469847E26D2F
:101C400020239340334255D02268126812F0100FBF
:101C500050D0BB6094F83530DBB2052B0ED0236832
:101C60001A6812F4802F33D01B6813F4002F2AD186
:101C7000636C002B3ED0204698473BE022681368F7
:101C800023F0160313602268536923F08003536125
:101C9000236CA3B12268136823F008031360E26D7C
:101CA0003F239340BB60012384F83530002384F840
:101CB0003430236D002B3FD0204698473CE0A36C86
:101CC000002BE7D1EBE7E36BA3B12046984711E087
:101CD0001A6812F4807F09D11A6822F010021A6083
:101CE000012384F83530002384F83430E36B0BB1E2
:101CF00020469847636DFBB1636D13F0010F17D059
:101D0000052384F835302268136823F0010313603B
:101D1000019B01330193AB4204D823681B6813F085
:101D2000010FF5D1012384F83530002384F83430D5
:101D3000E36C0BB12046984703B0F0BD08000020CB
:101D4000B5814E1B2DE9F04182B007460E46544B3B
:101D500098421FD003F5806398421BD003F580633F
:101D6000984217D003F58063984213D003F580633F
:101D700098420FD003F5806398420BD003F580633F
:101D8000984207D003F58063984203D0AC214548C0
:101D900001F0E0FE33689AB212B11B0C1B041BB1B8
:101DA000AD21404801F0D6FE7368012B19D9112BE3
:101DB00017D0022B15D0122B13D0B3F5881F10D0DB
:101DC000B3F5041F0DD0B3F5441F0AD0B3F5901F2F
:101DD00007D0B3F5081F04D0B3F5481F01D0032B7B
:101DE00001D1002496E0AE212E4801F0B3FEF8E7C1
:101DF000F368032B13D8BA68610003238B4022EAEF
:101E00000302F3688B401343BB607A6822EA050241
:101E10007368C3F30015A54015437D608BE0C021B6
:101E2000204801F097FEE6E7D1211E4801F092FE1E
:101E30008AE03369DBB1092B19D0012B17D0022BB3
:101E400015D0032B13D0042B11D0052B0FD0062B4C
:101E50000DD0072B0BD0082B09D00A2B07D00B2B4A
:101E600005D00C2B03D00D2B01D00F2B10D1E20885
:101E7000083257F8220004F0070399000F238B4023
:101E800020EA030033698B40034347F822306BE0BC
:101E9000DE21044801F05EFEE9E7062305E000BF0D
:101EA000000002403858000800238B4003430232F0
:101EB000574941F82230574B1A686FEA080322EA63
:101EC0000801706810F4803F01D048EA0201514ACD
:101ED0001160526803EA0201706810F4003F01D0FB
:101EE00048EA02014B4A5160926803EA02017068B5
:101EF00010F4801F01D048EA0201464A9160D2687E
:101F00001340716811F4001F01D048EA0203414AEE
:101F1000D36001340F2C78D80125A540336803EA3B
:101F2000050835EA0303F4D1736803F00303013BAA
:101F3000012B7FF65DAF736803F00303032B0DD015
:101F4000B368022B3FF670AFFA68610003238B4041
:101F500022EA0302B3688B401343FB60736803F00B
:101F60000303022B3FF465AF3A68610003238B4003
:101F700022EA0302736803F003038B4013433B60C0
:101F8000736813F4403FC4D000230193224B5A6C72
:101F900042F480425A645B6C03F480430193019BDA
:101FA000A208911C1A4B53F8210004F00303990076
:101FB0000F238B4020EA0300184B9F423FF474AF7D
:101FC00003F580639F4216D003F580639F4214D0CF
:101FD00003F580639F4212D003F580639F4210D0C7
:101FE00003F580639F420ED003F580639F423FF468
:101FF00054AF072359E7012357E7022355E703238B
:1020000053E7042351E705234FE702B0BDE8F08111
:1020100000380140003C014000380240000002400E
:1020200038B504460D4621B123691D4207D0012071
:1020300038BD4FF4BE71034801F08CFDF4E7002079
:10204000F6E700BF3858000870B5054614460E463E
:1020500021B1012C08D86CB1AE6170BD40F29D1168
:10206000064801F077FDF4E74FF4CF71034801F023
:1020700071FDF0E73604AE61EFE700BF38580008A5
:1020800038B505460C4641B16B6904EA030224EAFF
:10209000030444EA0244AC6138BD4FF4DB710248EA
:1020A00001F058FDF0E700BF38580008002800F0A4
:1020B000F78070B50D4604460368013B0E2B6BD8C4
:1020C0000F2D6FD87A4B1B6803F00F03AB4208D279
:1020D000EBB2774A1370136803F00F03AB4240F082
:1020E000E180236813F0020F29D013F0040F04D00D
:1020F000704A936843F4E0539360236813F0080F29
:1021000004D06C4A936843F460439360A3687BB146
:10211000802B0DD0902B0BD0A02B09D0B02B07D04B
:10212000C02B05D0D02B03D0E02B01D0F02B3FD11A
:10213000604A936823F0F003A1680B43936023681F
:1021400013F0010F4ED06368032B37D86368012B5F
:102150003AD09A1E012A3ED9564A126812F0020F4E
:1021600000F0A28053498A6822F0030213438B6077
:1021700001F0AAFA06464F4B9B6803F00C03626815
:10218000B3EB820F2ED001F09FFA801B41F288330F
:102190009842F0D9032076E04FF41771464801F0D9
:1021A000D9FC8DE740F25D21434801F0D3FC89E77B
:1021B0004FF42071404801F0CDFCB9E740F287218F
:1021C0003D4801F0C7FCC1E73A4A126812F4003FEB
:1021D000C8D1012057E0374A126812F0007FC1D100
:1021E000012050E0324B1B6803F00F03AB4207D9CC
:1021F000EAB22F4B1A701B6803F00F03AB4255D1A4
:10220000236813F0040F14D0E3685BB1B3F5805F6B
:1022100008D0B3F5A05F05D0B3F5C05F02D0B3F529
:10222000E05F31D1234A936823F4E053E1680B4324
:102230009360236813F0080F15D023695BB1B3F5E1
:10224000805F08D0B3F5A05F05D0B3F5C05F02D0C2
:10225000B3F5E05F1ED1174A936823F46043216908
:1022600043EAC103936000F055F8124B9B68C3F337
:102270000313124AD35CD840114B1860114B1868F5
:10228000FFF732F9002070BD40F2C5210A4801F085
:1022900061FCC7E74FF43371074801F05BFCDAE7F4
:1022A000012070470120EEE70120ECE70120EAE77A
:1022B000003C024000380240785800089C57000853
:1022C0000800002010000020014B1868704700BF74
:1022D0000800002008B5FFF7F7FF044B9B68C3F325
:1022E0008223034AD35CD84008BD00BF00380240B7
:1022F000AC57000808B5FFF7E7FF044B9B68C3F332
:102300004233034AD35CD84008BD00BF00380240C6
:10231000AC57000808B5444B9B6803F00C03082B2E
:1023200007D00C2B43D0042B01D0404808BD4048B7
:10233000FCE73D4B5A6802F03F025B6813F4800FE4
:1023400012D0394B5968C1F3881139480023A1FBD9
:102350000001FEF7CDF8344B5B68C3F30143013352
:102360005B00B0FBF3F0E1E72F4B5968C1F3881C29
:102370004FEA4C11B1EB0C006EEB0E0E4FEA8E13D0
:1023800043EA90638101091A63EB0E03DB0043EA21
:102390005173C90011EB0C0C43F1000399020023A7
:1023A0004FEA8C2041EA9C51FEF7A2F8D3E71E4B7E
:1023B0005A6802F03F025B6813F4800F10D01A4B8A
:1023C0005968C1F388111A480023A1FB0001FEF7E8
:1023D0008FF8154B5B68C3F30273B0FBF3F0A5E70E
:1023E000114B5968C1F3881C4FEA4C11B1EB0C003A
:1023F0006EEB0E0E4FEA8E1343EA90638101091AC9
:1024000063EB0E03DB0043EA5173C90011EB0C0CC4
:1024100043F10003990200234FEA8C2041EA9C51CA
:10242000FEF766F8D5E700BF003802400024F4004C
:1024300040787D01002800F0968270B582B0044695
:1024400003680F2B3FD8236813F0010F55D0636842
:102450002BB1B3F5803F02D0B3F5A02F39D18E4B0D
:102460009B6803F00C03042B3ED08B4B9B6803F05E
:102470000C03082B33D0884B9B6803F00C030C2B08
:102480006CD06368B3F5803F6ED0B3F5A02F71D0E8
:10249000814B1A6822F480321A601A6822F4802272
:1024A0001A606368002B6FD001F00EF905467A4B75
:1024B0001B6813F4003F20D101F006F9401B64288B
:1024C000F5D9032056E240F61251744801F042FB60
:1024D000B9E740F61751714801F03CFBBFE76E4B7E
:1024E0005B6813F4800FC6D06B4B1B6813F4003F7E
:1024F00003D06368002B00F03882236813F0020FCA
:1025000073D0E368012B4ED823691F2B51D8624B3F
:102510009B6813F00C0F57D05F4B9B6803F00C03C4
:10252000082B4CD05C4B9B6803F00C030C2B79D030
:10253000E368002B00F08580594B01221A6001F0FE
:10254000C3F80546544B1B6813F0020F70D101F01D
:10255000BBF8401B0228F5D903200BE24E4B5B6809
:1025600013F4800F8DD0BFE74B4A136843F48033D8
:10257000136096E7484B1A6842F480221A601A6882
:1025800042F480321A608CE701F09EF80546424B17
:102590001B6813F4003FB0D001F096F8401B64288C
:1025A000F5D90320E6E140F64F513C4801F0D2FA5C
:1025B000AAE74FF45561394801F0CCFAA7E7364B4A
:1025C0005B6813F4800FADD1334B1B6813F0020F1F
:1025D00003D0E368012B40F0CA812F4A136823F02F
:1025E000F803216943EAC1031360236813F0080F5D
:1025F00058D06369012B36D86369002B39D0284B3A
:102600000122C3F8802E01F05FF80546224B5B6F74
:1026100013F0020F46D101F057F8401B0228F5D9FC
:102620000320A7E11C4B5B6813F4800F80D1CBE73C
:10263000194A136823F0F803216943EAC1031360C0
:10264000D3E7174B00221A6001F03EF80546124B03
:102650001B6813F0020FC8D001F036F8401B0228A7
:10266000F5D9032086E140F696510C4801F072FA44
:10267000C2E70B4B0022C3F8802E01F025F8054677
:10268000054B5B6F13F0020F0CD001F01DF8401BDF
:102690000228F5D903206DE100380240B458000843
:1026A00000004742236813F0040F7CD0A368012B7D
:1026B00001D9052B38D1924B1B6C13F0805F39D1B7
:1026C000002301938E4B1A6C42F080521A641B6CEB
:1026D00003F080530193019B01258A4B1B6813F47F
:1026E000807F29D0A368012B3AD0052B3ED0844BA4
:1026F0001A6F22F001021A671A6F22F004021A6799
:10270000A368002B3CD000F0DFFF06467C4B1B6F1C
:1027100013F0020F45D100F0D7FF801B41F2883340
:102720009842F3D9032025E140F6C251764801F0E2
:1027300011FAC0E70025D0E7724A136843F48073AA
:10274000136000F0C1FF06466E4B1B6813F4807FD8
:10275000C8D100F0B9FF801B0228F5D9032009E198
:10276000674A136F43F001031367C9E7644B1A6F9D
:1027700042F004021A671A6F42F001021A67BFE7BB
:1027800000F0A2FF06465E4B1B6F13F0020F08D04D
:1027900000F09AFF801B41F288339842F3D903205E
:1027A000E8E0002D40D1A369022B43D8A369002B98
:1027B00000F0DF80524A926802F00C02082A00F012
:1027C000A780022B40F08780E36913B1B3F5800F37
:1027D00036D1236A3F2B39D8636A323BB3F5BF7FCA
:1027E0003AD8A36A022B05D0042B03D0062B01D0C4
:1027F000082B37D1E36A023B0D2B39D8236B023B00
:10280000052B3BD8414B00221A6600F05DFF0546C0
:102810003B4B1B6813F0007F36D000F055FF401B88
:102820000228F5D90320A5E0354A136C23F0805324
:102830001364B8E740F60561334801F08BF9B5E75A
:1028400040F60E61304801F085F9C2E740F60F61AD
:102850002D4801F07FF9BFE74FF461612A4801F08C
:1028600079F9BEE740F61161274801F073F9C1E735
:1028700040F61261244801F06DF9BFE740F613619C
:10288000214801F067F9BDE7E369226A1343626AF0
:1028900043EA8213A26A5208013A43EA0243E26A17
:1028A00043EA0263226B43EA0273154A5360174BF3
:1028B00001221A6600F008FF0446114B1B6813F052
:1028C000007F06D100F000FF001B0228F5D903208D
:1028D00050E000204EE00D4B00221A6600F0F4FE9E
:1028E0000446074B1B6813F0007F06D000F0ECFE97
:1028F000001B0228F5D903203CE000203AE000BF8D
:102900000038024000700040B45800080000474200
:10291000012B31D01F4B5B6803F48001E2699142C7
:102920002CD103F03F02216A8A4229D1616A47F61D
:10293000C0721A40B2EB811F24D103F44031A26A65
:102940005208013AB1EB024F1ED103F07062E16A06
:10295000B2EB016F1AD103F0E043226BB3EB027FBD
:1029600016D1002006E001207047012002E001207E
:1029700000E0002002B070BD0120FBE70120F9E774
:102980000120F7E70120F5E70120F3E70120F1E757
:102990000120EFE700380240026802F10C0353E81F
:1029A000003F23F0C0030C3242E800310029F3D18C
:1029B000202380F83D307047026802F10C0353E891
:1029C000003F23F490730C3242E800310029F3D128
:1029D000026802F1140353E8003F23F001031432AC
:1029E00042E800310029F3D1036B012B05D02023ED
:1029F00080F83E30002303637047026802F10C0345
:102A000053E8003F23F010030C3242E80031002964
:102A1000F3D1ECE790F83D30DBB2212B01D002205E
:102A200070478368B3F5805F17D0036A5A1C02624F
:102A30001A7803685A60C38C9BB2013B9BB2C38473
:102A40004BB90268D36823F08003D3600268D3686F
:102A500043F04003D360002070470369002BE4D1AA
:102A6000036A1B880268C3F308035360036A0233D6
:102A70000362E0E738B504464268574B9A423FD8B4
:102A8000E36813B1B3F5005F40D123692BB1B3F50F
:102A9000806F02D0B3F5C06F3ED163694FF6F37219
:102AA000134200D123B940F659614C4801F052F865
:102AB0002268136923F44053E1680B431361A36850
:102AC0002269134362691343E2691A432168CB68A0
:102AD00023F4164323F00C031343CB60226853699D
:102AE00023F44073A1690B43536123683C4A93422A
:102AF00018D002F58062934214D0FFF7EBFB13E08D
:102B000040F65661354801F025F8B9E740F65761BF
:102B1000324801F01FF8B8E740F658612F4801F03D
:102B200019F8BAE7FFF7E6FBE369B3F5004F29D0E0
:102B30000021031849411B1841F10001C90041EA75
:102B40005371DB00181863684FEA83024FEA9373EE
:102B500041F10001FDF7CCFC224DA5FB00325109EB
:102B6000642303FB11031B013233A5FB03235B0921
:102B700003F0F00202EB011203F00F03216813448B
:102B80008B6038BD0023021843EB0301121841F19A
:102B90000001C90041EA5271D200101841F1000150
:102BA000626892185B41FDF7A3FC0E4DA5FB003255
:102BB0005109642303FB1103DB003233A5FB03231C
:102BC0005B095A0002F4F87202EB011203F00703EA
:102BD000216813448B60D4E7A037A000F4580008A4
:102BE000001001401F85EB512DE9F84305460F46C3
:102BF00016469946DDF820802C68246837EA0403DD
:102C00000CBF4FF0010C4FF0000CB4452DD1B8F1C2
:102C1000FF3FF1D0B8F1000F05D000F055FDA0EB5B
:102C200009004045E8D92A6802F10C0353E8003F47
:102C300023F4D0730C3242E800310029F3D12A6822
:102C400002F1140353E8003F23F00103143242E879
:102C500000310029F3D1202385F83D3085F83E303E
:102C6000002385F83C30032000E00020BDE8F88315
:102C700070470000002800F0938010B50446836977
:102C8000002B5DD00368474A934218D0A2F54C420E
:102C9000934214D002F58062934210D002F5806214
:102CA00093420CD002F58062934208D002F5444270
:102CB000934204D04FF4B9713B4800F04BFFA36935
:102CC00043B1B3F5807F05D0B3F5007F02D0B3F5F3
:102CD000407F2FD1A36813B1B3F5805F4ED1E36974
:102CE00013B1B3F5004F4FD194F83D30002B51D0C4
:102CF000242384F83D302268D36823F40053D36042
:102D00002046FFF7B7FE2268136923F4904313614E
:102D10002268536923F02A0353612268D36843F47D
:102D20000053D36000202064202384F83D3084F8D1
:102D30003E3010BD40F273111B4800F00BFFC9E795
:102D40000368184A9342C5D0A2F54C429342C1D0C1
:102D500002F580629342BDD002F580629342B9D001
:102D600002F580629342B5D002F544429342B1D05D
:102D700040F277110C4800F0EDFEABE740F279111C
:102D8000094800F0E7FEAAE74FF4BD71064800F0DD
:102D9000E1FEA9E784F83C302046FFF769FFA7E78A
:102DA0000120704700100140F45800082DE9F0415F
:102DB00082B01E4690F83D30DBB2202B54D1044641
:102DC0000D469046002953D0002A53D090F83C304D
:102DD000012B51D0012380F83C30002303642123D0
:102DE00080F83D3000F070FC0746A4F82480A4F879
:102DF0002680A368B3F5805F05D04FF0000800235C
:102E000084F83C3012E0236913B14FF00008F6E774
:102E1000A8460025F3E738F8023B2268C3F308030D
:102E20005360E28C92B2013A92B2E284E38C9BB29C
:102E300073B100963B46002280212046FFF7D4FE66
:102E4000E0B9002DE7D015F8012B23685A60E8E7B8
:102E500000963B46002240212046FFF7C5FE78B988
:102E6000202384F83D3000E0022002B0BDE8F0816C
:102E70000120FAE70120F8E70220F6E70320F4E753
:102E80000320F2E72DE9F04182B01E4690F83E3073
:102E9000DBB2202B5CD104460D46904600295BD066
:102EA000002A5BD090F83C30012B59D0012380F8E8
:102EB0003C3000230364222280F83E20036300F0AC
:102EC00003FC0746A4F82C80A4F82E80A368B3F571
:102ED000805F05D04FF00008002384F83C3017E0F5
:102EE000236913B14FF00008F6E7A8460025F3E781
:102EF00023685B68C3F3080328F8023B03E02368F8
:102F00005B682B700135E28D92B2013A92B2E28594
:102F1000E38D9BB2BBB100963B46002220212046A8
:102F2000FFF762FEF0B9002DE2D0A368B3F5805F31
:102F3000E5D013B92369002BE1D023685B6803F067
:102F40007F032B70DEE7202384F83E30002000E072
:102F5000022002B0BDE8F0810120FAE70120F8E785
:102F60000220F6E70320F4E790F83D30DBB2202B97
:102F700019D1D1B1DAB190F83C30012B19D001232D
:102F800080F83C3001628284C284002303642122E1
:102F900080F83D2080F83C300168CA6842F0800229
:102FA000CA60184670470220704701207047012010
:102FB000704702207047000038B590F83D30DBB212
:102FC000202B38D10446002937D0002A37D090F87A
:102FD0003C30012B35D0012380F83C3001628284E3
:102FE000C28400250564212380F83D30436B1648D8
:102FF000D863636B15481864636B1548D864636BBA
:103000001D6520681346021D606BFEF703FD2368F3
:103010006FF040021A6084F83C50226802F11403F9
:1030200053E8003F43F08003143242E800310029A6
:10303000F3D1002000E0022038BD0120FCE7012090
:10304000FAE70220F8E700BF55300008BD3000085D
:10305000C930000808B50346806B1B681B6813F471
:10306000807F1AD10023C384026802F1140353E85D
:10307000003F23F08003143242E800310029F3D1ED
:10308000026802F10C0353E8003F43F040030C32A6
:1030900042E800310029F3D108BD00F051FBFBE705
:1030A00008B50168CA6822F04002CA60202280F890
:1030B0003D2000F045FB002008BD704708B5806B3F
:1030C000FFF7FBFF08BD704710B5846B23685A6992
:1030D00094F83D30DBB2212B10D023685A6902F0FE
:1030E000400294F83E30DBB2222B11D0236C43F027
:1030F00010032364204600F033FB10BD02F0800271
:10310000002AEAD00023E3842046FFF745FCE4E7E9
:10311000002AEBD00023E3852046FFF74DFCE5E7CE
:1031200008B5806B0023C385C38400F019FB08BD7C
:10313000704790F83E30DBB2222B67D18368B3F53D
:10314000805F4DD0826AB3F5805F04D0002B54D1EC
:103150000369002B51D103685B681370836A0133E4
:103160008362C38D9BB2013B9BB2C385002B4FD1C1
:1031700000B583B00268D36823F02003D3600268EF
:10318000D36823F48073D3600268536923F001038A
:103190005361202380F83E30036B012B33D1002391
:1031A0000363026802F10C0353E8003F23F01003AD
:1031B0000C3242E800310029F3D103681A6812F09A
:1031C000100F06D0002201921A6801925B680193E9
:1031D000019B818DFFF7ACFF002003B05DF804FB7D
:1031E0000269002AAED1826A03685B68C3F30803F0
:1031F0001380836A02338362B3E703685B6803F07A
:103200007F031370AAE700F083FAE5E70220704716
:103210000020704730B583B0044602681368D06858
:10322000516913F00F0505D113F0200F02D010F0F3
:10323000200F19D12DB111F0010119D110F4907F97
:1032400016D1216B01297DD013F0800F03D010F02F
:10325000800F40F0158113F0400F03D010F0400FA5
:1032600040F0128103B030BD2046FFF762FFF9E75E
:1032700013F0010F06D010F4807F03D0226C42F0CF
:103280000102226413F0040F04D019B1226C42F041
:103290000202226413F0020F04D019B1226C42F032
:1032A0000402226413F0080F07D010F0200F00D1A1
:1032B00019B1226C42F008022264226C002AD1D09B
:1032C00013F0200F02D010F0200F29D123685B6982
:1032D00003F04003226C12F0080F00D163B32046C4
:1032E000FFF76AFB23685B6913F0400F20D0226868
:1032F00002F1140353E8003F23F04003143242E884
:1033000000310029F3D1A36B73B1614A1A65A06B38
:10331000FEF716FC0028A5D0A06B036D9847A1E727
:103320002046FFF706FFD1E7204600F019FA99E79B
:10333000204600F015FA95E7204600F011FA002328
:1033400023648FE713F0100F3FF47EAF10F0100FDF
:103350003FF47AAF002301931368019353680193FC
:10336000019B536913F0400F50D0A26B13685B6848
:103370009BB2002B3FF476AFA18D99427FF672AFDE
:10338000E385D369B3F5807F37D0226802F10C035F
:1033900053E8003F23F480730C3242E800310029E7
:1033A000F3D1226802F1140353E8003F23F0010334
:1033B000143242E800310029F3D1226802F11403EB
:1033C00053E8003F23F04003143242E80031002963
:1033D000F3D1202384F83E3000232363226802F1D6
:1033E0000C0353E8003F23F010030C3242E8003195
:1033F0000029F3D1A06BFEF759FBA18DE38D9BB2A1
:10340000C91A89B22046FFF793FE2BE7A18DE38D01
:103410009BB2C91A89B2E38D9BB2002B3FF422AF55
:1034200000293FF41FAF226802F10C0353E8003F6C
:1034300023F490730C3242E800300028F3D1226864
:1034400002F1140353E8003F23F00103143242E871
:1034500000300028F3D1202384F83E30002323637A
:10346000226802F10C0353E8003F23F010030C32F2
:1034700042E800300028F3D12046FFF759FEF1E67C
:103480002046FFF7C7FAEDE62046FFF709FEE9E61A
:103490002131000808B5806B036B012B02D0FFF7C8
:1034A00012FE08BD818D4908FFF742FEF9E708B515
:1034B0000346806B1B681B6813F4807F2BD10023AD
:1034C000C385026802F10C0353E8003F23F48073C4
:1034D0000C3242E800310029F3D1026802F11403F2
:1034E00053E8003F23F00103143242E80031002981
:1034F000F3D1026802F1140353E8003F23F04003C4
:10350000143242E800310029F3D1202380F83E3004
:10351000036B012B05D0036B012B0FD000F0F8F8E3
:1035200008BD026802F10C0353E8003F23F01003CA
:103530000C3242E800310029F3D1ECE7818DFFF72E
:10354000F7FDEDE7034681628285C285002018649D
:10355000222283F83E2083F83C001968CA6842F4AE
:103560008072CA6019684A6942F001024A611A68A9
:10357000D36843F02003D360704708B590F83E301D
:10358000DBB2202B0DD171B17AB190F83C30012B18
:103590000DD0012380F83C3000230363FFF7D2FFF6
:1035A00000E0022008BD0120FCE70120FAE702202C
:1035B000F8E7000030B583B0044613468162828587
:1035C00000250564222280F83E20826B1F48D063CC
:1035D000A26B1F481064A26B1E48D064A26B1565D5
:1035E00020680A46011DA06BFEF714FA01952368B6
:1035F0001A6801925B680193019B84F83C50226831
:1036000002F10C0353E8003F43F480730C3242E8AC
:1036100000310029F3D1226802F1140353E8003F7E
:1036200043F00103143242E800310029F3D122684B
:1036300002F1140353E8003F43F04003143242E820
:1036400000310029F3D1002003B030BDAF340008B1
:1036500095340008C930000808B590F83E30DBB258
:10366000202B0DD171B17AB190F83C30012B0DD0E7
:10367000012380F83C3000230363FFF79BFF00E049
:10368000022008BD0120FCE70120FAE70220F8E74C
:10369000012800D0704708B54FF6FF73994200D05B
:1036A00008BD034800F01EFC024B1860F8E700BF9D
:1036B000004400400C070020FEE7FEE7FEE7FEE7BF
:1036C000FEE7704770470000014B1868704700BF65
:1036D0005002002008B5034B186808B100F0ECFB5D
:1036E00008BD00BF0C07002008B5034800F00CFC23
:1036F00008B100F0F2FB08BD8860024008B503483D
:1037000000F002FC08B100F0E3FB08BDA06002403D
:103710000268084B9A4200D0704710B5064C2068EA
:1037200000F07FFC4FF480620449206800F094FCB4
:1037300010BD00BF004400400C070020544700208B
:1037400008B50268044B9A4200D008BD034B1868C4
:1037500000F093FCF9E700BF004400400C07002094
:1037600008B50268044B9A4200D008BD034B1868A4
:1037700000F08CFCF9E700BF004400400C0700207B
:1037800008B54FF6FF710120FFF782FF08BD00006A
:1037900010B596B00DF1300C1D4C0FCCACE80F00FD
:1037A0000FCCACE80F0094E803008CE80300022380
:1037B0008DF8303008220F927822109211931293D4
:1037C00013930322159204228DF852208DF8533062
:1037D0000CA90DEB020000F0CBF801A800F044F9B1
:1037E00000B9FEE701A800F0D7F80A4B186001A85D
:1037F00000F0D4F8084B186001A800F0D4F8074B8B
:10380000186001A800F0D8F8054B186016B010BD7C
:10381000485700084C470020504700201007002060
:103820001407002008B520210348FEF729FC4FF4B7
:10383000FA70FDF7D3F9F6E70000024010B582B048
:10384000ADF804000C46019800F0DCFE10B9002031
:1038500002B010BD214601F088F90120F8E7000010
:1038600000B589B0342300934FF480430C4A0D49CE
:103870000D48FDF72BFDB42306930122059200238A
:103880000493039202924FF480620192074A0092DD
:10389000074A08490848FDF783FD09B05DF804FBB5
:1038A0004C0700203459000818070020084C00205D
:1038B0002538000840590008544B00200FB410B5BB
:1038C000A2B024AB53F8042B0193802102A801F08D
:1038D000D1FB02A8FCF7B4FD0446022000F088FEEC
:1038E00020B922B0BDE8104004B07047224602A9BA
:1038F00001F0FEF8F5E70000F0B59FB000F026F902
:10390000FFF746FF00F0ACFF0021114B1868FFF7EE
:1039100095FF104C104F3B680293104E3368019393
:103920000F4D2B68009323680E4A642105A801F00F
:1039300041FB0D48FFF7C2FF3B68009333682A68DC
:1039400021680A48FFF7BAFFFDF720F8FEE700BF3D
:10395000140000204C47002014070020100700200E
:10396000504700204C590008745900088C59000831
:1039700010B5044686468C46BCE80F00AEE80F0042
:10398000BCE80F00AEE80F009CE803008EE80300DF
:103990000023A362204610BD806A7047826A008CB3
:1039A000B2FBF0F0704710B50446FFF7F7FF94F84C
:1039B0002230B0FBF3F010BD10B50446FFF7EEFF68
:1039C00094F82330B0FBF3F010BD402825D012D876
:1039D000102824D8022824D302380E2809D8DFE87A
:1039E00000F022081608080818080808080808083F
:1039F0001A0000207047B0F5807F16D0B0F5007F28
:103A000001D1F0207047802811D1D020704790203C
:103A10007047A0207047B0207047C020704700203A
:103A200070470020704780207047E02070470020DA
:103A3000704702380E2809D8DFE800F013080A089A
:103A400008080D080808080808081000002070473A
:103A50004FF4A05070474FF4C05070474FF4E050FF
:103A600070474FF48050704710B592B0044634222E
:103A7000002105A801F064F900230093019302934B
:103A800003930493022305930123089310230993BE
:103A90002378022B25D005A8FEF7CCFC00284ED1B8
:103AA0000F2300932378022B00D000230193208C56
:103AB000FFF78BFF029094F82200FFF7BAFF039004
:103AC00094F82300FFF7B5FF0490616A6846FEF79B
:103AD000EDFA002836D12378B3B91B4BA36201203D
:103AE0002EE00B9323796BB14FF480030C93E368C2
:103AF0000D9323690E9363690F93A3691093E36990
:103B00001193C8E70023F1E7012B03D0022B05D066
:103B1000012015E0A368A362012011E0237963B1BD
:103B2000A368E268B3FBF2F3226902FB03F3626964
:103B3000B3FBF2F3A362012002E0034BF1E70020A4
:103B400012B010BD0020FBE70024F40008B5FDF71B
:103B5000F1FC08BDFEE770B504460B4600F5907C0D
:103B600007C98CE807001B68A3600023E36023619A
:103B700063610C22A261E3612362251D2846FFF7E1
:103B800079F8D4F80831B3B1D4F81031E3644023A4
:103B90002365002363654FF48062A265E3652366B5
:103BA0006366A366E36604F148063046FDF7EAFD66
:103BB000A663C4F88050D4F80C3113B3D4F8143190
:103BC000C4F8AC300023C4F8B030C4F8B4304FF4BB
:103BD0008062C4F8B820C4F8BC30C4F8C0304FF4D8
:103BE0008072C4F8C4204FF40032C4F8C820C4F86E
:103BF000CC3004F1A8063046FDF7C4FDE663C4F8F6
:103C0000E05070BD08B54FF0FF3392B20430FFF7BB
:103C1000CDF808BD08B54FF0FF3392B20430FFF77E
:103C200031F908BD08B592B20430FFF79DF908BD1F
:103C300008B592B20430FFF7A0FC08BD08B592B2F7
:103C40000430FFF7B9F908BD08B592B20430FFF7A8
:103C500003FD08BD30B587B00A4600F5A073002407
:103C60000494EC46D1E900018CE803000DF1080E44
:103C70009EE8030082E803009CE803008EE803004E
:103C8000956894600495D4680599D16005949EE880
:103C900003008CE8030093E803008EE803009CE82F
:103CA000030083E803009A6804929D60D968059137
:103CB000DC6022B11346032271467046984707B074
:103CC00030BD30B587B00A4600F5A87300240494CF
:103CD000EC46D1E900018CE803000DF1080E9EE8E6
:103CE000030082E803009CE803008EE80300956867
:103CF00094600495D4680599D16005949EE803000A
:103D00008CE8030093E803008EE803009CE80300BE
:103D100083E803009A6804929D60D9680591DC608D
:103D200022B11346032271467046984707B030BD52
:103D300030B587B00A4600F5B07300240494EC4611
:103D4000D1E900018CE803000DF1080E9EE80300A4
:103D500082E803009CE803008EE803009568946005
:103D60000495D4680599D16005949EE803008CE819
:103D7000030093E803008EE803009CE8030083E857
:103D800003009A6804929D60D9680591DC6022B1B5
:103D90001346032271467046984707B030BD30B5D0
:103DA00087B00A4600F5987300240494EC46D1E9E4
:103DB00000018CE803000DF1080E9EE8030082E884
:103DC00003009CE803008EE8030095689460049566
:103DD000D4680599D16005949EE803008CE803003F
:103DE00093E803008EE803009CE8030083E80300E7
:103DF0009A6804929D60D9680591DC6022B11346EF
:103E0000032271467046984707B030BD10B504468E
:103E1000134B036000F5B070836813B103220146B1
:103E2000984704F5A870836813B1032201469847A8
:103E300004F5A070836813B103220146984704F586
:103E40009870836813B1032201469847054B23609D
:103E50004FF4B871204600F0CBFE204610BD00BFE5
:103E6000085A0008CC59000810B50446104B0360EE
:103E700000F5B070836813B103220146984704F53A
:103E8000A870836813B103220146984704F5A07017
:103E9000836813B103220146984704F5987083683C
:103EA00013B1032201469847024B2360204610BD00
:103EB000085A0008CC59000808B54268034B9A42DA
:103EC00000D008BD0430FFF7A5F9FAE70044004030
:103ED00008B54830FDF748FE08BD08B5A830FDF725
:103EE00043FE08BD064B074A934206D01A68824239
:103EF00001D00833F7E7586870470020704700BFCB
:103F0000180000203800002001460A4B00E008336A
:103F1000094A93420BD058680028F8D0D0F80821FD
:103F20008A4205D0D0F80C218A42F0D100E000206E
:103F3000704700BF1800002038000020054B064ADB
:103F4000934206D01A68824201D00833F7E75960DD
:103F50007047704718000020380000202DE9F84312
:103F600004460D4616461F46DDF82080224B0360AE
:103F7000224B40F8043B4422002100F0E1FE4FF0C8
:103F800060094A46002104F1480000F0D9FE4A4683
:103F9000002104F1A80000F0D3FEC4F80861C4F8C1
:103FA0000C81C4F81071099BC4F814310023C4F8C3
:103FB0001831C4F81C31124A04F5907C07CA8CE809
:103FC000070084F82C3184F82D3184F82E3184F8E0
:103FD0002F31C4F83831C4F84831C4F85831C4F826
:103FE00068316560A664C4F8A88021462846FFF7BA
:103FF000A5FF2046BDE8F883CC590008085A000800
:104000007057000800B583B08DF80710836833B18E
:10401000C3680DF10701984703B05DF804FB00F099
:1040200012FE08B5D0F8383133B143685968C9B2C7
:1040300000F59870FFF7E6FF08BD00B583B0019169
:104040000092836833B1C3686A4601A9984703B0F8
:104050005DF804FB00F0F7FD08B5D0F848311BB15E
:1040600000F5A070FFF7E9FF08BD08B5836813B13C
:10407000C368984708BD00F0E6FD08B5D0F8583190
:104080001BB100F5A870FFF7F0FF08BD08B5D0F828
:1040900068311BB100F5B070FFF7E7FF08BD000005
:1040A00030B587B005460C46002301930293039375
:1040B000049305934A78012393409BB201934B6884
:1040C000022B1FD0032B1FD0012B00D00023029303
:1040D000A368012B1AD0022B1AD10393E368022B99
:1040E00018D0032B18D0012B00D000230493237C7D
:1040F00005932378013B052B10D8DFE803F01B1153
:10410000131517190223E2E70323E0E70123E4E78D
:104110000023E2E70223E9E70323E7E70C480AE08C
:104120000C4808E00C4806E00C4804E00C4802E0AB
:104130000C4800E00C4801A9FDF704FE05F1040C51
:104140000FCCACE80F002368CCF8003007B030BDCE
:104150000000024000080240000C02400010024033
:1041600000140240001802400004024008B5034653
:104170000279013A052A04D8DFE802F00F050709A1
:104180000B0D0C480AE00C4808E00C4806E00C480F
:1041900004E00C4802E00C4800E00C485B79012187
:1041A000994089B2FDF73CFF012814BF002001208F
:1041B00008BD00BF0000024000080240000C0240A1
:1041C00000100240001402400018024000040240A7
:1041D00010B503460C460279013A052A04D8DFE8F7
:1041E00002F00F0507090B0D0B480AE00B4808E029
:1041F0000B4806E00B4804E00B4802E00B4800E0E7
:104200000B48597901238B4099B21CB10122FDF76B
:104210001BFF10BD0022FAE7000002400008024028
:10422000000C02400010024000140240001802403E
:104230000004024088B0062911D8DFE801F004121A
:104240001F2C39465300002301932D4B1A6B42F06B
:1042500001021A631B6B03F001030193019B08B079
:10426000704700230293264B1A6B42F002021A6336
:104270001B6B03F002030293029BF0E700230393FE
:104280001F4B1A6B42F004021A631B6B03F004030A
:104290000393039BE3E700230493194B1A6B42F04B
:1042A00008021A631B6B03F008030493049BD6E710
:1042B00000230593124B1A6B42F010021A631B6B1A
:1042C00003F010030593059BC9E7002306930C4BED
:1042D0001A6B42F020021A631B6B03F02003069353
:1042E000069BBCE700230793054B1A6B42F0400284
:1042F0001A631B6B03F040030793079BAFE700BFF4
:104300000038024082B0ADF80410012002B07047BE
:10431000013905290DD8DFE801F0030E050C0C0A60
:10432000064800E00648003818BF012070470548DD
:10433000F9E70020F7E70448F5E700BF0010014067
:1043400000480040001401400044004082B0ADF835
:104350000420012002B0704784B00139052910D82B
:10436000DFE801F003111E0F0F2B00230093194B00
:104370005A6C42F010025A645B6C03F01003009315
:10438000009B04B0704700230193124B1A6C42F457
:1043900000321A641B6C03F400330193019BF0E7B5
:1043A000002302930B4B1A6C42F480221A641B6C9C
:1043B00003F480230293029BE3E700230393054B5E
:1043C0005A6C42F020025A645B6C03F020030393A2
:1043D000039BD6E700380240024A0260024A0260AC
:1043E000704700BFB85A0008745A0008012800D06E
:1043F000704738B54FF6FF73994200D038BD094871
:104400000024046044608460074D2A46074900F098
:10441000EAFB07480460446084602A46054900F0CE
:10442000E2FBEBE72C50002000000020B345000821
:10443000385000207545000810B582B00024019462
:104440000D4B1A6B42F400121A631B6B03F400133A
:104450000193019B224606211020FDF7A3F81020AE
:10446000FDF7E6F8224606211120FDF79BF8112002
:10447000FDF7DEF802B010BD00380240022900D07E
:10448000704708B5002205212620FDF78BF826206D
:10449000FDF7CEF808BD000000B587B000230193FA
:1044A00002930393049305934A78012393409BB2AC
:1044B00001934B68022B1FD0032B1FD0012B00D080
:1044C000002302938B68012B1AD0022B1AD103937D
:1044D000CB68022B18D0032B18D0012B00D000235F
:1044E00004930B7C05930B78013B052B10D8DFE878
:1044F00003F01B11131517190223E2E70323E0E76A
:104500000123E4E70023E2E70223E9E70323E7E7E7
:1045100009480AE0094808E0094806E0094804E0BB
:10452000094802E0094800E0094801A9FDF70AFC32
:1045300007B05DF804FB00BF000002400008024025
:10454000000C02400010024000140240001802401B
:104550000004024010B50446044B0360044B0360A2
:10456000042100F045FB204610BD00BFB85A0008EA
:10457000745A0008F8B507460468466809E02846FA
:1045800000F067FA3C21284600F032FB002344F893
:10459000043BA64205D02568002DF7D0002DEED1B2
:1045A000F4E73868B968091A08B100F021FB384609
:1045B000F8BDF8B507460468466809E0284600F0EB
:1045C000B1FA1C21284600F013FB002344F8043BF9
:1045D000A64205D02568002DF7D0002DEED1F4E7D6
:1045E0003868B968091A08B100F002FB3846F8BD0E
:1045F000072803D8024B53F820007047002070476B
:104600000C50002030B58BB0ADF80400134A13688D
:10461000556800E0231D1C46AB421CD019680029D8
:10462000F8D005A800F0A7FABDF81430ADF80C30AA
:10463000BDF80430ADF810309DF80C209DF8103016
:104640009A42E7D19DF80D209DF811309A42E1D1B0
:1046500020680BB030BD0020FBE700BF2C500020CD
:104660002DE9F04F83B006461546012300934368B9
:1046700002689A1A6FF06040B0EBA20F24D0971036
:10468000019727B301AA1268174432689B1AB7EB47
:10469000A30F1ED3B7F1005F1ED2D6F800A0D6F844
:1046A00004800C46A1EB0A0BDFB1B7F1005F16D214
:1046B000B80000F0AEFA81462B6849F80B300023B1
:1046C0002B604D46534616E01A4800F0B9FA6A4688
:1046D000D9E76FF06047E0E76FF06047DDE700F093
:1046E000ACFA4FF00009E7E71A6845F8042B0022FE
:1046F0001A6043F8042B9C42F6D1043506E0236887
:1047000045F8043B0023236044F8043BA045F6D160
:10471000B168A1EB0A01BAF1000F02D0504600F0D7
:1047200067FAC6F80090756009EB8707B76003B0B9
:10473000BDE8F08F505A000810B504460A4641689B
:104740008368994209D013680B60002313604368A3
:10475000043343606068043810BDFFF781FFF9E758
:104760002DE9F04F83B006461546012300934368B8
:1047700002689A1A6FF06040B0EBA20F24D0971035
:10478000019727B301AA1268174432689B1AB7EB46
:10479000A30F1ED3B7F1005F1ED2D6F800A0D6F843
:1047A00004800C46A1EB0A0BDFB1B7F1005F16D213
:1047B000B80000F02EFA81462B6849F80B30002330
:1047C0002B604D46534616E01A4800F039FA6A4607
:1047D000D9E76FF06047E0E76FF06047DDE700F092
:1047E0002CFA4FF00009E7E71A6845F8042B00227D
:1047F0001A6043F8042B9C42F6D1043506E0236886
:1048000045F8043B0023236044F8043BA045F6D15F
:10481000B168A1EB0A01BAF1000F02D0504600F0D6
:10482000E7F9C6F80090756009EB8707B76003B039
:10483000BDE8F08F505A000810B504460A4641689A
:104840008368994209D013680B60002313604368A2
:10485000043343606068043810BDFFF781FFF9E757
:1048600070B586B0594B1B78BFF35B8F13F0010F07
:1048700001D0574D1EE0554800F0BCF90028F8D093
:10488000544A5549554800F0AEF9504800F0BEF979
:10489000EFE7204600F046F91C21204600F0A8F979
:1048A00000230393029810B1182100F0A1F900230E
:1048B000029314354A4B9D4236D0182000F0A9F9D6
:1048C0000024046044608460C46004614461454B1A
:1048D00003600346444A43F8042B5C609C60DC6040
:1048E0001C6102940290029404901C2000F091F943
:1048F00006462B4604AA394900F000F903940396B2
:10490000049810B1042100F073F900230493039874
:1049100000F013F903A93548FFF70EFF039C002CA4
:10492000BED0002CB5D1BBE7314C324B9C424BD0B2
:104930002378022B46D0304E4FF4B87000F069F95E
:1049400005464FF0006301932C4A0092183231461D
:10495000FFF704FB002602960295029605953C207F
:1049600000F057F90546234605AA1C4900F055F802
:1049700003960395059810B103685B689847002378
:104980000593039800F070F8227803991C4B43F8C4
:10499000221003A91B48FFF74FFF039D3DB135B11E
:1049A000284600F056F83C21284600F021F9002363
:1049B0000393029810B103685B6898470023029341
:1049C0003434B2E7104EB7E706B070BD085000208F
:1049D000145B000800000020D943000838000020C4
:1049E000505B0008A45A0008445A00082C500020CC
:1049F000E05A0008145B0008001001408860024083
:104A00000C500020385000200044004008B54FF6FC
:104A1000FF710120FFF7EAFC08BD10B504460160F4
:104A2000116841600021116000F1080E9C46BCE84D
:104A30000F00AEE80F00BCE80F00AEE80F00BCE8C6
:104A40000F00AEE80F00DCF80030CEF80030204652
:104A500010BD10B50446406810B103685B68984704
:104A600000236360204610BD10B584B00446006882
:104A700003685B69217A984700B9FEE720680368FC
:104A8000DB69217A984794F83A3023B120680368AB
:104A90001B6A217A984794F83B3023B12068036859
:104AA0005B6A217A9847114B93E8070004AB03E94E
:104AB0000700636B019394F83B3023B994F83A20D4
:104AC00092B1012200E00222029294F83A208DF87D
:104AD0000C208DF80E308DF80F30606803689B68ED
:104AE00001A9984704B010BD0022EDE77C570008EB
:104AF00008B540680368DB68984708BD10B50446F0
:104B00000160116841600021116000F1080E9C46AF
:104B1000BCE80F00AEE80F00DCF80030CEF8003043
:104B2000204610BD10B50446406810B1042100F0C5
:104B30005FF800236360204610BD10B50446C368CB
:104B4000022B0BD0206803689B68217A9847606825
:104B500003681B6804F10801984710BD00680368EA
:104B6000DB68227EA1689847ECE708B540680368D7
:104B70005B68984708BD10B50446864601F1080CED
:104B8000BCE80F00AEE80F00DCF80030CEF80030D3
:104B9000204610BDDFF834D00D480E490E4A0023E0
:104BA00002E0D458C4500433C4188C42F9D30B4AE1
:104BB0000B4C002301E013600432A242FBD3FCF74C
:104BC00091FC00F07BF8FEF797FE70470000022092
:104BD00000000020A40000209C5B0008A40000202E
:104BE00058500020FEE70B460146184600F052B828
:104BF00000F02CB80268D207034605D4427802B10F
:104C0000FFDE0120587070470020704701230360C9
:104C10007047012838BF012010B50446204600F037
:104C200071F830B900F026F808B900F02BF8804789
:104C3000F4E710BD08B500F017F808B500F022F849
:104C400008B500F01FF808B500F01CF800F062B8D5
:104C500008B5804700F016F8024B1868BFF35B8F69
:104C6000704700BF3C00002008B5FFF7F5FFFFF7D5
:104C7000EFFF0000024B1868BFF35B8F704700BF67
:104C80004450002008B5062000F078F90120FBF719
:104C9000FBFD000010B504460448134620B10A4647
:104CA00002202146AFF3008010BD00BF00000000CD
:104CB000014B1868704700BF4000002070B50D4DD3
:104CC0000D4C641BA4100026A64209D10B4D0C4CC0
:104CD00000F02EFD641BA4100026A64205D170BD75
:104CE00055F8043B98470136EEE755F8043B9847E2
:104CF0000136F2E78C5B00088C5B00088C5B0008D7
:104D0000985B0008024B0146186800F08BB800BFA2
:104D100040000020024B0146186800F019B800BF9F
:104D2000400000200A44914200F1FF3300D1704757
:104D300010B511F8014B03F8014F9142F9D110BDA4
:104D400002440346934200D1704703F8011BF9E780
:104D500038B50546002941D051F8043C0C1F002B02
:104D6000B8BFE41800F094F91D4A136833B96360C2
:104D700014602846BDE8384000F090B9A34208D935
:104D8000206821188B4201BF19685B6809182160EF
:104D9000EDE71A465B680BB1A342FAD911685018C7
:104DA000A0420BD120680144501883421160E0D129
:104DB00018685B68536001441160DAE702D90C237C
:104DC0002B60D6E7206821188B4204BF19685B6806
:104DD000636004BF091821605460CAE738BD00BF92
:104DE0004850002070B50E4E0C463168054611B98A
:104DF00000F08CF830602146284600F087F8431C0C
:104E00000AD0C41C24F00304A04207D0211A28466B
:104E100000F07CF8013001D14FF0FF34204670BD26
:104E20004C5000202DE9F041CD1C25F0030508353C
:104E30000C2D38BF0C25002D074601DBA94205D9F2
:104E40000C233B6000263046BDE8F0812E4E00F07A
:104E50001FF933681C4634BB29463846FFF7C2FFAA
:104E6000431C04464DD134682646002E40D12368A9
:104E70003146384604EB030800F048F880453AD143
:104E8000216803356D1A25F0030508350C2D38BF50
:104E90000C2529463846FFF7A5FF01302BD02368A3
:104EA0002B4423600EE02268521B1ED40B2A16D915
:104EB0006119A342256018BF5960636808BF31605B
:104EC00062514B60384604F10B0600F0E7F826F01B
:104ED0000706231DF21AB6D09B1BA350B3E76268E6
:104EE000A3420CBF32605A60ECE723466468B2E725
:104EF00034467668B9E70C233B60384600F0CEF8BC
:104F0000A1E72560DEE700BF4850002038B5064D18
:104F10000023044608462B60FBF788FC431C02D1A3
:104F20002B6803B1236038BD505000201F2938B5CD
:104F300004460D4604D9162303604FF0FF3038BDF8
:104F4000426C12B152F821304BB9204600F030F8D3
:104F50002A4601462046BDE8384000F017B8012B2C
:104F60000AD0591C03D1162303600120E7E700246F
:104F700042F82540284698470020E0E7024B0146CA
:104F80001868FFF7D3BF00BF4000002038B5074DB9
:104F900000230446084611462B60FBF76DFC431CBA
:104FA00002D12B6803B1236038BD00BF50500020F0
:104FB000FBF760BC0CB430B5174B0C1E1D689DB0E0
:104FC00008DA8B232B604FF0FF301DB0BDE8304076
:104FD00002B070474FF40273ADF8143014BF04F1FF
:104FE000FF332346049307934FF6FF730290069016
:104FF000ADF81630209A21AB02A92846019300F0A3
:10500000AFF8431CBCBF8B232B60002CDDD0029B70
:1050100000221A70D9E700BF4000002030B51446C6
:10502000002C9BB005461A4605DA8B2303604FF02F
:10503000FF301BB030BD4FF40273ADF80C3014BF1D
:1050400004F1FF332346029305934FF6FF7300915B
:105050000491ADF80E3069461E9B00F081F8431CA8
:10506000BCBF8B232B60002CE3D0009B00221A7066
:10507000DFE7000007B5009313460A4601460348E0
:105080000068FFF7CBFF03B05DF804FB4000002091
:10509000014800F0F9BA00BF54500020014800F068
:1050A000F4BA00BF545000202DE9F0478E689E42AC
:1050B00082460C4690461F4638D88A8912F4906F73
:1050C00032D025680969A5EB0109656905EB45053D
:1050D00005EBD57501334B446D109D4238BF1D461D
:1050E000530531D52946FFF79DFE064650B90C23DE
:1050F000CAF80030A38943F04003A3814FF0FF308A
:10510000BDE8F08721694A46FFF70CFEA38923F426
:10511000906343F08003A381266165614E44A5EB53
:1051200009052660A5603E46BE4200D93E4620687D
:105130003246414600F0AAFAA3689B1BA36023688D
:10514000334423600020DBE72A4600F0B9FA064624
:105150000028E1D121695046FFF7FAFDC7E70000BA
:105160002DE9F04F98468B891B069DB007460D46EA
:1051700014460ED50B6963B94021FFF753FE286032
:10518000286120B90C233B604FF0FF30D1E0402371
:105190006B610023099320238DF82930CDF80C8012
:1051A0003023DFF8A8818DF82A304FF0010923461B
:1051B0009A4613F8012B0AB1252AF9D1BAEB040B50
:1051C0000BD05B46224629463846FFF76DFF01307B
:1051D00000F0AA80099A5A4409929AF80030002BEC
:1051E00000F0A28000234FF0FF32CDE905230AF141
:1051F000010A049307938DF853301A9354460522FD
:1052000014F8011B5148FBF723F9049AD8B9D006CA
:1052100044BF20238DF85330110744BF2B238DF852
:1052200053309AF800302A2B15D0079A54460020A4
:105230004FF00A0C214611F8013B303B092B4ED9A7
:10524000B0B1079214E0A0EB080309FA03F313438B
:105250000493A246D2E7039B191D1B680391002B00
:10526000BBBF5B4242F0020207930793B8BF0492B0
:1052700023782E2B0CD163782A2B35D1039B1A1D52
:105280001B680392002BB8BF4FF0FF330234059325
:10529000DFF8BCA0217803225046FBF7D9F840B1D3
:1052A0004023A0EB0A0003FA00F0049B03430134FF
:1052B000049314F8011B27488DF828100622FBF7E9
:1052C000C7F8002838D0244B1BBB039B073323F0BF
:1052D000070308330393099B3344099367E70CFBE7
:1052E00002320C460120A5E700230134059319463C
:1052F0004FF00A0C204610F8012B303A092A03D946
:10530000002BC5D00591C3E70CFB01210446012306
:10531000F0E703AB00932A46104B04A93846AFF3DD
:105320000080421C0646D6D1AB895B063FF52CAF08
:1053300009981DB0BDE8F08F03AB00932A46074BD8
:1053400004A9384600F07AF8EBE700BF505B00088C
:10535000565B00085A5B000800000000A9500008D6
:105360002DE9F047164699468A680B69DDF82080DA
:105370009342B8BF1346336091F8432007460C466A
:105380000AB1013333602368990642BF33680233A0
:105390003360256815F0060506D104F1190AE368A3
:1053A00032689B1AAB4226DC94F84320131E226815
:1053B00018BF012392062BD404F143024946384614
:1053C000C04701301ED02368E568326803F0060349
:1053D000042B08BFAD1AA36822690CBF25EAE57546
:1053E00000259342C4BF9B1AED1800261A34B5421B
:1053F0001AD1002008E00123524649463846C047EA
:10540000013003D14FF0FF30BDE8F0870135C6E72A
:10541000E1185A1C302081F84300224494F84510CA
:1054200082F843100233C7E7012322464946384633
:10543000C0470130E6D00136D9E700002DE9FF472B
:105440000F7E0C9D782F914680460C469A4601F1BE
:10545000430207D8622F0AD8002F00F0D880582FB7
:1054600000F0A38004F1420584F842703AE0A7F10D
:105470006303152BF6D801A151F823F0D554000889
:10548000E954000865540008655400086554000894
:1054900065540008E9540008655400086554000884
:1054A0006554000865540008F555000819550008B2
:1054B000D7550008655400086554000817560008C1
:1054C0006554000819550008655400086554000823
:1054D000DF5500082B681A1D1B682A6004F142057D
:1054E00084F842300123A3E020682968060601F110
:1054F00004030AD50E682B60002E03DA2D237642B2
:1055000084F843305E480A2319E00E682B6010F0DF
:10551000400F18BF36B2EFE72B682068191D2960CD
:10552000010601D51E6802E04606FBD51E885448D8
:105530006F2F0CBF08230A23002184F843106568ED
:10554000A560002DA2BF216821F0040121600EB9E1
:10555000002D4DD01546B6FBF3F103FB1167C75D77
:1055600005F8017D3746BB420E46F4D9082B0BD116
:105570002368DE0708D5236961689942DEBF3023BE
:1055800005F8013C05F1FF35521B2261CDF800A062
:105590004B4603AA21464046FFF7E2FE01304CD1BC
:1055A0004FF0FF3004B0BDE8F087354881F8457012
:1055B0002968236851F8046B29601D0614D5DF079C
:1055C00044BF43F0200323601EB9236823F0200367
:1055D00023601023B0E7236843F02003236078237F
:1055E000284884F84530E3E7590648BFB6B2E6E7F5
:1055F0001546BBE72B6826686169181D28603506CB
:105600001B6801D5196002E07006FBD519800023E4
:1056100023611546BAE72B681A1D2A601D68626867
:1056200000212846FAF714FF08B1401B6060636848
:105630002361002384F84330A8E723692A464946BA
:105640004046D0470130ABD023689B0713D4E068B5
:10565000039B9842B8BF1846A4E701233246494647
:105660004046D04701309BD00135E36803995B1A6F
:10567000AB42F2DCEBE7002504F11906F5E700BFC9
:10568000615B0008725B000870477047884210B584
:1056900001EB020402D98442234607D8431EA142EB
:1056A00008D011F8012B03F8012FF8E70244014656
:1056B0008A4200D110BD13F8014D02F8014DF7E701
:1056C0002DE9F041804614460E4621B9BDE8F0416F
:1056D0001146FFF7A7BB2AB9FFF73AFB2546284634
:1056E000BDE8F08100F01BF88442074602D8B4EB15
:1056F000500F12D821464046FFF794FB054600287C
:10570000EDD0BC422246314628BF3A46FFF70AFB9D
:1057100031464046FFF71CFBE1E73546DFE751F82D
:10572000043C181F002BBCBF0B58C018704700006A
:10573000F8B500BFF8BC08BC9E467047F8B500BF7E
:08574000F8BC08BC9E4670474E
:105748000000000000000000000000000000000051
:105758000000000000000000000000000000000041
:105768000100010100000000802500000100000088
:10577800000000008025000001000000000000007B
:1057880053797374656D2054696D6572205468721D
:1057980065616400000000000000000001020304CD
:1057A80006070809000000000102030448414C2FC5
:1057B80053542F73746D333266342F53544D333230
:1057C800463478785F48414C5F4472697665722F39
:1057D8005372632F73746D3332663478785F6861FF
:1057E8006C5F636F727465782E63000048414C2FBC
:1057F80053542F73746D333266342F53544D3332F0
:10580800463478785F48414C5F4472697665722FF8
:105818005372632F73746D3332663478785F6861BE
:105828006C5F646D612E630000061016000610168A
:1058380048414C2F53542F73746D333266342F53B1
:10584800544D3332463478785F48414C5F4472692E
:105858007665722F5372632F73746D3332663478A2
:10586800785F68616C5F6770696F2E630000000085
:1058780048414C2F53542F73746D333266342F5371
:10588800544D3332463478785F48414C5F447269EE
:105898007665722F5372632F73746D333266347862
:1058A800785F68616C5F7263632E630048414C2FB8
:1058B80053542F73746D333266342F53544D33322F
:1058C800463478785F48414C5F4472697665722F38
:1058D8005372632F73746D3332663478785F6861FE
:1058E8006C5F7263635F65782E63000048414C2FDC
:1058F80053542F73746D333266342F53544D3332EF
:10590800463478785F48414C5F4472697665722FF7
:105918005372632F73746D3332663478785F6861BD
:105928006C5F756172742E630000000062797465A3
:1059380020706F6F6C20300074687265616420306D
:10594800000000004350553D256C752C2048434C01
:105958004B3D256C752C20415042313D256C752CF2
:1059680020415042323D256C750D0A0053797374FD
:10597800656D20696E697469616C697A65642E0D5C
:105988000A0000004672657175656E636965733A51
:10599800204350553D256C752C2048434C4B3D25E4
:1059A8006C752C20415042313D256C752C2041509E
:1059B80042323D256C750D0A000000000000000011
:1059C800000000000000000000000000354C000846
:1059D800354C0008354C0008354C0008354C00089B
:1059E800354C0008354C0008354C0008354C00088B
:1059F800354C0008354C000800000000000000008D
:105A0800693E00080D3E0008573B0008053C0008A9
:105A1800153C0008253C0008313C00083D3C0008C6
:105A2800493C00089F3D0008553C0008C33C00085D
:105A3800313D00080000000000000000A1400008FF
:105A4800D14100086D410008766563746F723A3A77
:105A58005F4D5F7265616C6C6F635F696E736572D1
:105A680074000000000000000000000000000000BA
:105A780000000000354C0008354C0008354C000883
:105A8800354C0008354C0008354C0008354C0008EA
:105A9800354C00080000000000000000354C0008EC
:105AA800354C0008354C00080000000000000000DC
:105AB800D943000855450008354200080543000849
:105AC80099440008114300084D4300085943000851
:105AD8007D4400083944000802000000000200006C
