:020000040800F2
:1000000000000220E9170008090500080B05000898
:100010000D0500080F05000811050008000000008C
:1000200000000000000000000000000013050008B0
:100030001505000800000000170500081905000854
:10004000391800083918000839180008391800084C
:10005000391800083918000839180008391800083C
:10006000391800083918000839180008391800082C
:10007000391800083918000839180008391800081C
:10008000391800083918000839180008391800080C
:1000900039180008391800083918000839180008FC
:1000A00039180008391800083918000839180008EC
:1000B00039180008391800083918000839180008DC
:1000C00039180008391800083918000839180008CC
:1000D00039180008391800083918000839180008BC
:1000E00039180008391800083918000839180008AC
:1000F000391800083918000839180008391800089C
:10010000391800083918000839180008391800088B
:10011000391800083918000839180008391800087B
:10012000391800083918000839180008391800086B
:10013000391800080000000000000000391800080D
:10014000391800083918000839180008391800084B
:10015000391800083918000839180008391800083B
:10016000391800083918000839180008391800082B
:100170003918000839180008391800080000000074
:100180000000000039180008000000000000000016
:1001900039180008000000000000000039180008AD
:1001A00000000000000000000000000039180008F6
:1001B00039180008391800083918000839180008DB
:0401C00039180008E2
:1001C40010B5054C237833B9044B13B10448AFF38D
:1001D40000800123237010BD0C00002000000000EB
:1001E4009418000808B5034B1BB103490348AFF347
:1001F400008008BD000000001000002094180008D2
:1002040053B94AB9002908BF00281CBF4FF0FF3179
:100214004FF0FF3000F074B9ADF1080C6DE904CE75
:1002240000F006F8DDF804E0DDE9022304B07047CD
:100234002DE9F047089E0D4604468846002B4DD113
:100244008A42944668D9B2FA82F252B101FA02F3B0
:10025400C2F1200120FA01F10CFA02FC41EA030880
:1002640094404FEA1C45210CB8FBF5FE1FFA8CF7AD
:1002740005FB1E8341EA03430EFB07F199420BD9A8
:100284001CEB03030EF1FF3080F01E81994240F213
:100294001B81AEF1020E63445B1AA4B2B3FBF5F00A
:1002A40005FB103344EA034400FB07F7A7420AD9CD
:1002B4001CEB040400F1FF3380F00881A74240F2F4
:1002C400058164440238E41B40EA0E4000211EB15B
:1002D400D4400023C6E90043BDE8F0878B4208D927
:1002E400002E00F0EE800021C6E900050846BDE8B6
:1002F400F087B3FA83F100294AD1AB4202D3824298
:1003040000F2F980841A65EB030301209846002E5D
:10031400E2D0C6E90048DFE702B9FFDEB2FA82F2B2
:10032400002A40F09180A1EB0C054FEA1C471FFA0C
:100334008CFE0121B5FBF7F307FB1350250C45EAAE
:1003440000450EFB03F0A84208D91CEB050503F198
:10035400FF3802D2A84200F2CB8043462D1AA4B241
:10036400B5FBF7F007FB105544EA05440EFB00FE0D
:10037400A64508D91CEB040400F1FF3502D2A645BA
:1003840000F2BB802846A4EB0E0440EA03409EE73B
:10039400C1F120078B4022FA07FC4CEA030C20FA37
:1003A40007F405FA01F31C43FD404FEA1C4900FA27
:1003B40001F3B5FBF9F8200C1FFA8CFE09FB185564
:1003C40040EA054508FB0EF0A84202FA01F20BD9F7
:1003D4001CEB050508F1FF3A80F08880A84240F242
:1003E4008580A8F1020865442D1AA4B2B5FBF9F082
:1003F40009FB105544EA054500FB0EFEAE4508D93D
:100404001CEB050500F1FF346CD2AE456AD9023805
:10041400654440EA0840A0FB0294A5EB0E05A54202
:10042400C846A64656D353D05EB1B3EB080265EB7B
:100434000E0505FA07F722FA01F3CD401F43C6E97A
:1004440000750021BDE8F087C2F1200320FA03F112
:100454000CFA02FC25FA03F395400D434FEA1C47BE
:100464001FFA8CFEB3FBF7F107FB11302B0C43EAA8
:10047400004301FB0EF0984204FA02F408D91CEB85
:10048400030301F1FF382FD298422DD90239634476
:100494001B1AADB2B3FBF7F007FB103345EA034573
:1004A40000FB0EF3AB4208D91CEB050500F1FF3845
:1004B40016D2AB4214D902386544ED1A40EA014120
:1004C40038E73146304607E78646E5E61846FAE659
:1004D4004B45A9D2B9EB020864EB0C0E0138A3E733
:1004E4004046EAE7204694E74146D1E7D0467BE719
:1004F400023B654432E7084609E76444023842E7B0
:10050400704700BFFEE7FEE7FEE7FEE7FEE7704741
:100514007047704708B500F023FF08BD82B0002182
:1005240000910B4B5A6C42F480425A645A6C02F4A8
:1005340080420092009A01911A6C42F080521A642F
:100544001B6C03F080530193019B02B0704700BF02
:100554000038024070470000002800F0F78070B5B2
:100564000D4604460368013B0E2B6BD80F2D6FD844
:100574007A4B1B6803F00F03AB4208D2EBB2774A05
:100584001370136803F00F03AB4240F0E18023685B
:1005940013F0020F29D013F0040F04D0704A9368AB
:1005A40043F4E0539360236813F0080F04D06C4ABB
:1005B400936843F460439360A3687BB1802B0DD0B0
:1005C400902B0BD0A02B09D0B02B07D0C02B05D07B
:1005D400D02B03D0E02B01D0F02B3FD1604A93689D
:1005E40023F0F003A1680B439360236813F0010F19
:1005F4004ED06368032B37D86368012B3AD09A1E18
:10060400012A3ED9564A126812F0020F00F0A28065
:1006140053498A6822F0030213438B6000F0ACFE56
:1006240006464F4B9B6803F00C036268B3EB820FE2
:100634002ED000F0A1FE801B41F288339842F0D9FD
:10064400032076E04FF41771464800F0DFFF8DE792
:1006540040F25D21434800F0D9FF89E74FF420714F
:10066400404800F0D3FFB9E740F287213D4800F04D
:10067400CDFFC1E73A4A126812F4003FC8D1012005
:1006840057E0374A126812F0007FC1D1012050E0D0
:10069400324B1B6803F00F03AB4207D9EAB22F4B6E
:1006A4001A701B6803F00F03AB4255D1236813F093
:1006B400040F14D0E3685BB1B3F5805F08D0B3F5E1
:1006C400A05F05D0B3F5C05F02D0B3F5E05F31D1D0
:1006D400234A936823F4E053E1680B43936023684F
:1006E40013F0080F15D023695BB1B3F5805F08D010
:1006F400B3F5A05F05D0B3F5C05F02D0B3F5E05FFA
:100704001ED1174A936823F46043216943EAC10365
:10071400936000F02FF8124B9B68C3F30313124A43
:10072400D35CD840114B1860114B186800F0D8FD09
:10073400002070BD40F2C5210A4800F067FFC7E7FA
:100744004FF43371074800F061FFDAE70120704786
:100754000120EEE70120ECE70120EAE7003C02403B
:1007640000380240E4180008D418000800000020F3
:100774000800002008B5444B9B6803F00C03082BC9
:1007840007D00C2B43D0042B01D0404808BD40486F
:10079400FCE73D4B5A6802F03F025B6813F4800F9C
:1007A40012D0394B5968C1F3881139480023A1FB91
:1007B4000001FFF725FD344B5B68C3F301430133AC
:1007C4005B00B0FBF3F0E1E72F4B5968C1F3881CE1
:1007D4004FEA4C11B1EB0C006EEB0E0E4FEA8E1388
:1007E40043EA90638101091A63EB0E03DB0043EAD9
:1007F4005173C90011EB0C0C43F10003990200235F
:100804004FEA8C2041EA9C51FFF7FAFCD3E71E4BD8
:100814005A6802F03F025B6813F4800F10D01A4B41
:100824005968C1F388111A480023A1FB0001FFF79E
:10083400E7FC154B5B68C3F30273B0FBF3F0A5E769
:10084400114B5968C1F3881C4FEA4C11B1EB0C00F1
:100854006EEB0E0E4FEA8E1343EA90638101091A80
:1008640063EB0E03DB0043EA5173C90011EB0C0C7C
:1008740043F10003990200234FEA8C2041EA9C5182
:10088400FFF7BEFCD5E700BF003802400024F400A7
:1008940040787D01002800F0968270B582B004464D
:1008A40003680F2B3FD8236813F0010F55D06368FA
:1008B4002BB1B3F5803F02D0B3F5A02F39D18E4BC5
:1008C4009B6803F00C03042B3ED08B4B9B6803F016
:1008D4000C03082B33D0884B9B6803F00C030C2BC0
:1008E4006CD06368B3F5803F6ED0B3F5A02F71D0A0
:1008F400814B1A6822F480321A601A6822F480222A
:100904001A606368002B6FD000F036FD05467A4B01
:100914001B6813F4003F20D100F02EFD401B642817
:10092400F5D9032056E240F61251744800F06EFEE9
:10093400B9E740F61751714800F068FEBFE76E4B07
:100944005B6813F4800FC6D06B4B1B6813F4003F35
:1009540003D06368002B00F03882236813F0020F81
:1009640073D0E368012B4ED823691F2B51D8624BF7
:100974009B6813F00C0F57D05F4B9B6803F00C037C
:10098400082B4CD05C4B9B6803F00C030C2B79D0E8
:10099400E368002B00F08580594B01221A6000F0B7
:1009A400EBFC0546544B1B6813F0020F70D100F0AA
:1009B400E3FC401B0228F5D903200BE24E4B5B6895
:1009C40013F4800F8DD0BFE74B4A136843F4803390
:1009D400136096E7484B1A6842F480221A601A683A
:1009E40042F480321A608CE700F0C6FC0546424BA4
:1009F4001B6813F4003FB0D000F0BEFC401B642819
:100A0400F5D90320E6E140F64F513C4800F0FEFDE5
:100A1400AAE74FF45561394800F0F8FDA7E7364BD3
:100A24005B6813F4800FADD1334B1B6813F0020FD6
:100A340003D0E368012B40F0CA812F4A136823F0E6
:100A4400F803216943EAC1031360236813F0080F14
:100A540058D06369012B36D86369002B39D0284BF1
:100A64000122C3F8802E00F087FC0546224B5B6F01
:100A740013F0020F46D100F07FFC401B0228F5D989
:100A84000320A7E11C4B5B6813F4800F80D1CBE7F4
:100A9400194A136823F0F803216943EAC103136078
:100AA400D3E7174B00221A6000F066FC0546124B90
:100AB4001B6813F0020FC8D000F05EFC401B022834
:100AC400F5D9032086E140F696510C4800F09EFDCE
:100AD400C2E70B4B0022C3F8802E00F04DFC054604
:100AE400054B5B6F13F0020F0CD000F045FC401B6C
:100AF4000228F5D903206DE10038024020190008CE
:100B040000004742236813F0040F7CD0A368012B34
:100B140001D9052B38D1924B1B6C13F0805F39D16E
:100B2400002301938E4B1A6C42F080521A641B6CA2
:100B340003F080530193019B01258A4B1B6813F436
:100B4400807F29D0A368012B3AD0052B3ED0844B5B
:100B54001A6F22F001021A671A6F22F004021A6750
:100B6400A368002B3CD000F007FC06467C4B1B6FAF
:100B740013F0020F45D100F0FFFB801B41F28833D4
:100B84009842F3D9032025E140F6C251764800F09B
:100B94003DFDC0E70025D0E7724A136843F4807333
:100BA400136000F0E9FB06466E4B1B6813F4807F6C
:100BB400C8D100F0E1FB801B0228F5D9032009E12C
:100BC400674A136F43F001031367C9E7644B1A6F55
:100BD40042F004021A671A6F42F001021A67BFE773
:100BE40000F0CAFB06465E4B1B6F13F0020F08D0E1
:100BF40000F0C2FB801B41F288339842F3D90320F2
:100C0400E8E0002D40D1A369022B43D8A369002B4F
:100C140000F0DF80524A926802F00C02082A00F0C9
:100C2400A780022B40F08780E36913B1B3F5800FEE
:100C340036D1236A3F2B39D8636A323BB3F5BF7F81
:100C44003AD8A36A022B05D0042B03D0062B01D07B
:100C5400082B37D1E36A023B0D2B39D8236B023BB7
:100C6400052B3BD8414B00221A6600F085FB054654
:100C74003B4B1B6813F0007F36D000F07DFB401B1C
:100C84000228F5D90320A5E0354A136C23F08053DC
:100C94001364B8E740F60561334800F0B7FCB5E7E4
:100CA40040F60E61304800F0B1FCC2E740F60F6137
:100CB4002D4800F0ABFCBFE74FF461612A4800F017
:100CC400A5FCBEE740F61161274800F09FFCC1E790
:100CD40040F61261244800F099FCBFE740F6136126
:100CE400214800F093FCBDE7E369226A1343626A7A
:100CF40043EA8213A26A5208013A43EA0243E26ACF
:100D040043EA0263226B43EA0273154A5360174BAA
:100D140001221A6600F030FB0446114B1B6813F0E5
:100D2400007F06D100F028FB001B0228F5D9032020
:100D340050E000204EE00D4B00221A6600F01CFB30
:100D44000446074B1B6813F0007F06D000F014FB29
:100D5400001B0228F5D903203CE000203AE000BF44
:100D6400003802400070004020190008000047428B
:100D7400012B31D01F4B5B6803F48001E26991427F
:100D84002CD103F03F02216A8A4229D1616A47F6D5
:100D9400C0721A40B2EB811F24D103F44031A26A1D
:100DA4005208013AB1EB024F1ED103F07062E16ABE
:100DB400B2EB016F1AD103F0E043226BB3EB027F75
:100DC40016D1002006E001207047012002E0012036
:100DD40000E0002002B070BD0120FBE70120F9E72C
:100DE4000120F7E70120F5E70120F3E70120F1E70F
:100DF4000120EFE7003802402DE9F04182B00746B8
:100E04000E46544B98421FD003F5806398421BD082
:100E140003F58063984217D003F58063984213D09A
:100E240003F5806398420FD003F5806398420BD09A
:100E340003F58063984207D003F58063984203D09A
:100E4400AC21454800F0E2FB33689AB212B11B0CA6
:100E54001B041BB1AD21404800F0D8FB7368012B83
:100E640019D9112B17D0022B15D0122B13D0B3F58F
:100E7400881F10D0B3F5041F0DD0B3F5441F0AD05A
:100E8400B3F5901F07D0B3F5081F04D0B3F5481F7E
:100E940001D0032B01D1002496E0AE212E4800F0AE
:100EA400B5FBF8E7F368032B13D8BA686100032392
:100EB4008B4022EA0302F3688B401343BB607A68D9
:100EC40022EA05027368C3F30015A54015437D604B
:100ED4008BE0C021204800F099FBE6E7D1211E48B1
:100EE40000F094FB8AE03369DBB1092B19D0012BA4
:100EF40017D0022B15D0032B13D0042B11D0052BA4
:100F04000FD0062B0DD0072B0BD0082B09D00A2BA2
:100F140007D00B2B05D00C2B03D00D2B01D00F2B9E
:100F240010D1E208083257F8220004F007039900B0
:100F34000F238B4020EA030033698B40034347F8B7
:100F440022306BE0DE21044800F060FBE9E7062371
:100F540005E000BF000002406019000800238B4038
:100F640003430232574941F82230574B1A686FEA5B
:100F7400080322EA0801706810F4803F01D048EAAF
:100F84000201514A1160526803EA0201706810F4C8
:100F9400003F01D048EA02014B4A5160926803EADB
:100FA4000201706810F4801F01D048EA0201464A29
:100FB4009160D2681340716811F4001F01D048EAAF
:100FC4000203414AD36001340F2C78D80125A5408F
:100FD400336803EA050835EA0303F4D1736803F0C0
:100FE4000303013B012B7FF65DAF736803F003033A
:100FF400032B0DD0B368022B3FF670AFFA68610083
:1010040003238B4022EA0302B3688B401343FB6043
:10101400736803F00303022B3FF465AF3A68610081
:1010240003238B4022EA0302736803F003038B401B
:1010340013433B60736813F4403FC4D0002301930F
:10104400224B5A6C42F480425A645B6C03F4804332
:101054000193019BA208911C1A4B53F8210004F040
:10106400030399000F238B4020EA0300184B9F428F
:101074003FF474AF03F580639F4216D003F5806399
:101084009F4214D003F580639F4212D003F580631E
:101094009F4210D003F580639F420ED003F5806316
:1010A4009F423FF454AF072359E7012357E7022334
:1010B40055E7032353E7042351E705234FE702B021
:1010C400BDE8F08100380140003C01400038024096
:1010D4000000024070B5054614460E4621B1012CAD
:1010E40008D86CB1AE6170BD40F29D11064800F0A5
:1010F4008DFAF4E74FF4CF71034800F087FAF0E774
:101104003604AE61EFE700BF6019000830B583B064
:101114000546B0F5404F05D0B0F5004F02D0B0F50C
:10112400804F22D1002300932D4B1A6C42F0805241
:101134001A641A6C02F080520092009A9B6803F0C1
:101144000C03082B48D0274B00221A6600F014F930
:101154000446234B1B6813F0007F0CD000F00CF9FD
:10116400031B022BF5D9032037E04FF493711E487B
:1011740000F04CFAD6E7002301931C4A136823F4C9
:1011840040431D431560136803F440430193019BDE
:10119400144B01221A6600F0EFF80446104B1B684A
:1011A40013F0007F06D100F0E7F8001B0228F5D900
:1011B400032012E000F0E0F804460C4B5B6813F4E3
:1011C400804F07D100F0D8F8001BB0F57A7FF4D92E
:1011D400032002E0002000E0012003B030BD00BF86
:1011E40000380240000047429C190008007000408B
:1011F40010B50446C31E042B0FD80A4AD36823F43F
:10120400E0631B041B0C240204F4E064234343F056
:10121400BF6343F40033D36010BD9221024800F051
:10122400F5F9EAE700ED00E0DC19000870B50546C1
:101234000C4616460F2A25D80F2C28D81B4BDB68E2
:10124400C3F30223C3F10701042928BF04211A1D93
:10125400062A21D9033B4FF0FF3202FA01F124EAB6
:1012640001049C4002FA03F326EA03063443002DEA
:1012740014DB2401E4B205F1604505F5614585F808
:10128400004370BDAA210A4800F0C0F9D4E7AB219D
:10129400074800F0BBF9D1E70023DCE705F00F05B0
:1012A4002401E4B2034B5C55EBE700BF00ED00E022
:1012B400DC19000814ED00E00138B0F1807F0BD296
:1012C4004FF0E0235861054AF02182F823100020F2
:1012D400986107221A6170470120704700ED00E011
:1012E40010B504460E4B18784FF47A73B3FBF0F341
:1012F4000C4A1068B0FBF3F0FFF7DEFF68B90F2C5F
:1013040001D901200AE0002221464FF0FF30FFF707
:101314008DFF054B1C60002000E0012010BD00BFC4
:1013240004000020000000200800002008B50B4B3A
:101334001A6842F400721A601A6842F480621A60F1
:101344001A6842F480721A600320FFF751FF0F20DD
:10135400FFF7C6FFFFF7E2F8002008BD003C02409B
:10136400034A1168034B1B780B441360704700BF9A
:101374002800002004000020014B1868704700BFBB
:101384002800002038B50446FFF7F6FF0546B4F1FF
:10139400FF3F02D0044B1B781C44FFF7EDFF401BBA
:1013A400A042FAD338BD00BF0400002010B594B0A9
:1013B4000DF1280C0C4C0FCCACE80F000FCCACE8B2
:1013C4000F0094E803008CE8030001238DF8283013
:1013D4000AA9684600F01BF9684600F079F900B9DB
:1013E400FEE714B010BD00BFAC180008012800D0FF
:1013F400704708B54FF6FF73994200D008BD052227
:101404000021024800F0A2F8F8E700BF2C000020F9
:1014140000B583B000F0F2F8FFF7C8FF0022009295
:10142400022301210A4800F095F8094C01212046C5
:1014340000F0D0F84FF47A7000F0E4F80021204670
:1014440000F0C8F84FF47A7000F0DCF8EDE700BF64
:101454002C00002008B54FF6FF710120FFF7C6FFEE
:1014640008BD000088B0072811D8DFE800F0041296
:101474001F2C3946536000230093334B1A6B42F000
:1014840001021A631B6B03F001030093009B08B075
:101494007047002301932C4B1A6B42F002021A632B
:1014A4001B6B03F002030193019BF0E700230293FB
:1014B400254B1A6B42F004021A631B6B03F00403FE
:1014C4000293029BE3E7002303931F4B1A6B42F042
:1014D40008021A631B6B03F008030393039BD6E70C
:1014E40000230493184B1A6B42F010021A631B6B0F
:1014F40003F010030493049BC9E700230593124BE4
:101504001A6B42F020021A631B6B03F0200305934D
:10151400059BBCE7002306930B4B1A6B42F0400279
:101524001A631B6B03F040030693069BAFE700238B
:101534000793054B1A6B42F080021A631B6B03F08E
:1015440080030793079BA2E70038024001704270B2
:1015540070470000F0B587B004460078072802D928
:10156400002007B0F0BD0D4617461E46FFF77AFF70
:101574000021019102910391049105916278012364
:1015840093400193022D17D0032D18D0012D10D0B4
:10159400012F17D0022F18D004969DF830300593F0
:1015A400227801A90A4B53F82200FFF725FC0120F9
:1015B400D7E701230293EBE702230293E8E703232F
:1015C4000293E5E701230393E6E702230393E3E7AA
:1015D4001C1A000808B503460078074A52F8200090
:1015E4005A78012393409BB221B101221946FFF797
:1015F40071FD08BD0022F9E71C1A000808B5FFF7C1
:1016040095FE08BD08B5FFF7BDFE08BDFEE710B5A1
:10161400044686468C46BCE80F00AEE80F00BCE8E2
:101624000F00AEE80F009CE803008EE8030020469C
:1016340010BD402825D012D8102824D8022824D33D
:1016440002380E2809D8DFE800F022081608080836
:1016540018080808080808081A0000207047B0F5A0
:10166400807F16D0B0F5007F01D1F020704780282C
:1016740011D1D020704790207047A0207047B0202F
:101684007047C020704700207047002070478020BA
:101694007047E02070470020704702380E2809D8B0
:1016A400DFE800F013080A0808080D08080808080D
:1016B40008081000002070474FF4A05070474FF402
:1016C400C05070474FF4E05070474FF4805070475B
:1016D40030B595B0044600250195414B1A6C42F093
:1016E40080521A641B6C03F080530193019B4FF4E6
:1016F4004040FFF70BFD3422294607A800F0C0F84C
:1017040002950395049505950695072302930F23E7
:1017140002932378012B26D0022B31D0B3B1208C35
:10172400FFF787FF049094F82200FFF7B6FF0590B7
:1017340094F82300FFF7B1FF0690616A02A8FEF750
:101744000BFF00284AD1012015B030BD02230793B6
:1017540001230A9310230B9307A8FFF79BF8002893
:1017640036D10395DBE7012307934FF480330893C5
:1017740007A8FFF78FF800282CD101230393CEE7A5
:101784002379E3B1012307934FF4803308930223B1
:101794000D932379D3B14FF480030E93E3680F9331
:1017A4002369109363691193A3691293E3691393F3
:1017B40007A8FFF76FF878B902230393AFE7022372
:1017C400079301230A9310230B93E0E70023E4E734
:1017D4000020B9E70020B7E70020B5E70020B3E711
:1017E40000380240DFF834D00D480E490E4A002379
:1017F40002E0D458C4500433C4188C42F9D30B4AC1
:101804000B4C002301E013600432A242FBD3FEF729
:10181400A1FE00F011F8FFF7FBFD70470000022065
:10182400000000200C000020501A00080C000020CA
:1018340030000020FEE7000070B50D4D0D4C641B18
:10184400A4100026A64209D10B4D0C4C00F020F840
:10185400641BA4100026A64205D170BD55F8043BB4
:1018640098470136EEE755F8043B98470136F2E70E
:10187400441A0008441A0008441A00084C1A0008C4
:1018840002440346934200D1704703F8011BF9E771
:10189400F8B500BFF8BC08BC9E467047F8B500BF59
:0818A400F8BC08BC9E46704729
:1018AC00000000000000000000000000000000002C
:1018BC00000000000000000000000000000000001C
:1018CC000100010100000000000000000000000009
:1018DC00010203040607080956656E646F725F48BF
:1018EC00414C2F53542F53544D3332463478785F38
:1018FC0048414C5F4472697665722F5372632F7343
:10190C00746D3332663478785F68616C5F726363D0
:10191C002E63000056656E646F725F48414C2F5306
:10192C00542F53544D3332463478785F48414C5FD2
:10193C004472697665722F5372632F73746D3332F0
:10194C00663478785F68616C5F7263635F65782E6C
:10195C006300000056656E646F725F48414C2F53F4
:10196C00542F53544D3332463478785F48414C5F92
:10197C004472697665722F5372632F73746D3332B0
:10198C00663478785F68616C5F6770696F2E63008E
:10199C0056656E646F725F48414C2F53542F5354ED
:1019AC004D3332463478785F48414C5F44726976E7
:1019BC0065722F5372632F73746D3332663478787B
:1019CC005F68616C5F7077725F65782E63000000F2
:1019DC0056656E646F725F48414C2F53542F5354AD
:1019EC004D3332463478785F48414C5F44726976A7
:1019FC0065722F5372632F73746D3332663478783B
:101A0C005F68616C5F636F727465782E63000000B1
:101A1C00000002400004024000080240000C02409A
:101A2C00001002400014024000180240001C02404A
:081A3C00F8E7FF7F0100000044
:081A4400E90100085914000833
:041A4C00C5010008C8
:0C1A50000024F400010000001000000061
:04000005080017E9EF
:00000001FF
