:020000040800F2
:1000000000000220313A00084D2300084F23000869
:100010005123000853230008552300080000000066
:10002000000000000000000000000000572300084E
:1000300059230008000000005B2300085D2300082E
:10004000813A0008813A0008813A0008813A0008A4
:10005000813A0008813A0008813A0008813A000894
:10006000813A0008813A0008813A0008813A000884
:10007000813A0008813A0008813A0008813A000874
:10008000813A0008813A0008813A0008813A000864
:10009000813A0008813A0008813A0008813A000854
:1000A000813A0008813A0008813A0008813A000844
:1000B000813A0008813A0008813A0008813A000834
:1000C000813A0008813A0008813A0008813A000824
:1000D000813A0008813A000865230008813A000847
:1000E000813A0008813A0008813A0008813A000804
:1000F000813A0008813A0008813A0008813A0008F4
:10010000813A0008813A0008813A0008813A0008E3
:10011000813A0008813A0008813A0008813A0008D3
:10012000813A0008813A0008813A0008813A0008C3
:10013000813A00080000000000000000813A000839
:10014000813A0008813A0008813A0008813A0008A3
:10015000813A0008813A0008813A0008813A000893
:10016000813A0008813A0008813A0008813A000883
:10017000813A0008813A0008813A00080000000036
:1001800000000000813A00080000000000000000AC
:10019000813A00080000000000000000813A0008D9
:1001A000000000000000000000000000813A00088C
:1001B000813A0008813A0008813A0008813A000833
:0401C000813A000878
:1001D00010B5054C237833B9044B13B10448AFF381
:1001E00000800123237010BDA0000020000000004B
:1001F000B84F000808B5034B1BB103490348AFF3E0
:10020000008008BD00000000A4000020B84F0008D6
:10021000034613F8012B002AFBD1181A0138704746
:1002200001F0FF01102A2BDB10F0070F08D010F8A7
:10023000013B013A8B422DD010F0070F42B3F6D1AB
:10024000F0B441EA012141EA014122F007047FF0C4
:1002500000070023F0E80256083C85EA010586EA1B
:10026000010685FA47F5A3FA87F586FA47F6A5FA57
:1002700087F68EB9EED1F0BC01F0FF0102F0070263
:1002800032B110F8013B013A83EA010313B1F8D10E
:100290000020704701387047002D06BF35460338EF
:1002A000073815F0010F07D1013015F4807F02BF28
:1002B000013015F4C03F0130F0BC0138704700BF79
:1002C00053B94AB9002908BF00281CBF4FF0FF31BD
:1002D0004FF0FF3000F074B9ADF1080C6DE904CEB9
:1002E00000F006F8DDF804E0DDE9022304B0704711
:1002F0002DE9F047089E0D4604468846002B4DD157
:100300008A42944668D9B2FA82F252B101FA02F3F3
:10031000C2F1200120FA01F10CFA02FC41EA0308C3
:1003200094404FEA1C45210CB8FBF5FE1FFA8CF7F0
:1003300005FB1E8341EA03430EFB07F199420BD9EB
:100340001CEB03030EF1FF3080F01E81994240F256
:100350001B81AEF1020E63445B1AA4B2B3FBF5F04D
:1003600005FB103344EA034400FB07F7A7420AD910
:100370001CEB040400F1FF3380F00881A74240F237
:10038000058164440238E41B40EA0E4000211EB19E
:10039000D4400023C6E90043BDE8F0878B4208D96A
:1003A000002E00F0EE800021C6E900050846BDE8F9
:1003B000F087B3FA83F100294AD1AB4202D38242DB
:1003C00000F2F980841A65EB030301209846002EA1
:1003D000E2D0C6E90048DFE702B9FFDEB2FA82F2F6
:1003E000002A40F09180A1EB0C054FEA1C471FFA50
:1003F0008CFE0121B5FBF7F307FB1350250C45EAF2
:1004000000450EFB03F0A84208D91CEB050503F1DB
:10041000FF3802D2A84200F2CB8043462D1AA4B284
:10042000B5FBF7F007FB105544EA05440EFB00FE50
:10043000A64508D91CEB040400F1FF3502D2A645FD
:1004400000F2BB802846A4EB0E0440EA03409EE77E
:10045000C1F120078B4022FA07FC4CEA030C20FA7A
:1004600007F405FA01F31C43FD404FEA1C4900FA6A
:1004700001F3B5FBF9F8200C1FFA8CFE09FB1855A7
:1004800040EA054508FB0EF0A84202FA01F20BD93A
:100490001CEB050508F1FF3A80F08880A84240F285
:1004A0008580A8F1020865442D1AA4B2B5FBF9F0C5
:1004B00009FB105544EA054500FB0EFEAE4508D980
:1004C0001CEB050500F1FF346CD2AE456AD9023849
:1004D000654440EA0840A0FB0294A5EB0E05A54246
:1004E000C846A64656D353D05EB1B3EB080265EBBF
:1004F0000E0505FA07F722FA01F3CD401F43C6E9BE
:1005000000750021BDE8F087C2F1200320FA03F155
:100510000CFA02FC25FA03F395400D434FEA1C4701
:100520001FFA8CFEB3FBF7F107FB11302B0C43EAEB
:10053000004301FB0EF0984204FA02F408D91CEBC8
:10054000030301F1FF382FD298422DD902396344B9
:100550001B1AADB2B3FBF7F007FB103345EA0345B6
:1005600000FB0EF3AB4208D91CEB050500F1FF3888
:1005700016D2AB4214D902386544ED1A40EA014163
:1005800038E73146304607E78646E5E61846FAE69C
:100590004B45A9D2B9EB020864EB0C0E0138A3E776
:1005A0004046EAE7204694E74146D1E7D0467BE75C
:1005B000023B654432E7084609E76444023842E7F3
:1005C000704700BF82B0002100910B4B5A6C42F47F
:1005D00080425A645A6C02F480420092009A01915F
:1005E0001A6C42F080521A641B6C03F08053019322
:1005F000019B02B0704700BF0038024010B50346AF
:100600000C4A0D490D48006840B10C48006803448D
:10061000521A934206D8094A136010BD0748084C85
:100620000460F2E703F092FA0C2303604FF0FF300E
:10063000F3E700BF0000022000040000BC0000201F
:10064000A00100200120704708B503F07FFA1623AF
:1006500003604FF0FF3008BD08B54FF0FF31FFF7E2
:10066000F3FFFEE770B50C461646002506E0AFF333
:100670000080214601F8010B01350C46B542F6DB3E
:10068000304670BD70B50C461646002504E014F8DF
:10069000010BAFF300800135B542F8DB304670BD89
:1006A0004FF0FF3070474FF400534B60002070470D
:1006B000012070470020704770470000002800F0BC
:1006C000F78070B50D4604460368013B0E2B6BD8CE
:1006D0000F2D6FD87A4B1B6803F00F03AB4208D283
:1006E000EBB2774A1370136803F00F03AB4240F08C
:1006F000E180236813F0020F29D013F0040F04D017
:10070000704A936843F4E0539360236813F0080F32
:1007100004D06C4A936843F460439360A3687BB150
:10072000802B0DD0902B0BD0A02B09D0B02B07D055
:10073000C02B05D0D02B03D0E02B01D0F02B3FD124
:10074000604A936823F0F003A1680B439360236829
:1007500013F0010F4ED06368032B37D86368012B69
:100760003AD09A1E012A3ED9564A126812F0020F58
:1007700000F0A28053498A6822F0030213438B6081
:1007800000F04CFF06464F4B9B6803F00C03626879
:10079000B3EB820F2ED000F041FF801B41F2883373
:1007A0009842F0D9032076E04FF41771464802F0E2
:1007B00009FA8DE740F25D21434802F003FA89E728
:1007C0004FF42071404802F0FDF9B9E740F287216B
:1007D0003D4802F0F7F9C1E73A4A126812F4003FC7
:1007E000C8D1012057E0374A126812F0007FC1D10A
:1007F000012050E0324B1B6803F00F03AB4207D9D6
:10080000EAB22F4B1A701B6803F00F03AB4255D1AD
:10081000236813F0040F14D0E3685BB1B3F5805F75
:1008200008D0B3F5A05F05D0B3F5C05F02D0B3F533
:10083000E05F31D1234A936823F4E053E1680B432E
:100840009360236813F0080F15D023695BB1B3F5EB
:10085000805F08D0B3F5A05F05D0B3F5C05F02D0CC
:10086000B3F5E05F1ED1174A936823F46043216912
:1008700043EAC103936000F055F8124B9B68C3F341
:100880000313124AD35CD840114B1860114B1868FF
:1008900000F078FE002070BD40F2C5210A4802F049
:1008A00091F9C7E74FF43371074802F08BF9DAE7A3
:1008B000012070470120EEE70120ECE70120EAE784
:1008C000003C024000380240285000081050000848
:1008D000040000200C000020014B1868704700BF86
:1008E0000400002008B5FFF7F7FF044B9B68C3F333
:1008F0008223034AD35CD84008BD00BF00380240C1
:100900002050000808B5FFF7E7FF044B9B68C3F3CE
:100910004233034AD35CD84008BD00BF00380240D0
:100920002050000808B5444B9B6803F00C03082BCB
:1009300007D00C2B43D0042B01D0404808BD4048C1
:10094000FCE73D4B5A6802F03F025B6813F4800FEE
:1009500012D0394B5968C1F3881139480023A1FBE3
:100960000001FFF7ADFC344B5B68C3F30143013377
:100970005B00B0FBF3F0E1E72F4B5968C1F3881C33
:100980004FEA4C11B1EB0C006EEB0E0E4FEA8E13DA
:1009900043EA90638101091A63EB0E03DB0043EA2B
:1009A0005173C90011EB0C0C43F1000399020023B1
:1009B0004FEA8C2041EA9C51FFF782FCD3E71E4BA3
:1009C0005A6802F03F025B6813F4800F10D01A4B94
:1009D0005968C1F388111A480023A1FB0001FFF7F1
:1009E0006FFC154B5B68C3F30273B0FBF3F0A5E734
:1009F000114B5968C1F3881C4FEA4C11B1EB0C0044
:100A00006EEB0E0E4FEA8E1343EA90638101091AD2
:100A100063EB0E03DB0043EA5173C90011EB0C0CCE
:100A200043F10003990200234FEA8C2041EA9C51D4
:100A3000FFF746FCD5E700BF003802400024F40071
:100A400040787D01002800F0968270B582B004469F
:100A500003680F2B3FD8236813F0010F55D063684C
:100A60002BB1B3F5803F02D0B3F5A02F39D18E4B17
:100A70009B6803F00C03042B3ED08B4B9B6803F068
:100A80000C03082B33D0884B9B6803F00C030C2B12
:100A90006CD06368B3F5803F6ED0B3F5A02F71D0F2
:100AA000814B1A6822F480321A601A6822F480227C
:100AB0001A606368002B6FD000F0B0FD05467A4BDA
:100AC0001B6813F4003F20D100F0A8FD401B6428F0
:100AD000F5D9032056E240F61251744802F072F83C
:100AE000B9E740F61751714802F06CF8BFE76E4B5A
:100AF0005B6813F4800FC6D06B4B1B6813F4003F88
:100B000003D06368002B00F03882236813F0020FD3
:100B100073D0E368012B4ED823691F2B51D8624B49
:100B20009B6813F00C0F57D05F4B9B6803F00C03CE
:100B3000082B4CD05C4B9B6803F00C030C2B79D03A
:100B4000E368002B00F08580594B01221A6000F009
:100B500065FD0546544B1B6813F0020F70D100F081
:100B60005DFD401B0228F5D903200BE24E4B5B686C
:100B700013F4800F8DD0BFE74B4A136843F48033E2
:100B8000136096E7484B1A6842F480221A601A688C
:100B900042F480321A608CE700F040FD0546424B7B
:100BA0001B6813F4003FB0D000F038FD401B6428F0
:100BB000F5D90320E6E140F64F513C4802F002F837
:100BC000AAE74FF45561394801F0FCFFA7E7364B1F
:100BD0005B6813F4800FADD1334B1B6813F0020F29
:100BE00003D0E368012B40F0CA812F4A136823F039
:100BF000F803216943EAC1031360236813F0080F67
:100C000058D06369012B36D86369002B39D0284B43
:100C10000122C3F8802E00F001FD0546224B5B6FD8
:100C200013F0020F46D100F0F9FC401B0228F5D961
:100C30000320A7E11C4B5B6813F4800F80D1CBE746
:100C4000194A136823F0F803216943EAC1031360CA
:100C5000D3E7174B00221A6000F0E0FC0546124B68
:100C60001B6813F0020FC8D000F0D8FC401B02280C
:100C7000F5D9032086E140F696510C4801F0A2FF19
:100C8000C2E70B4B0022C3F8802E00F0C7FC0546DC
:100C9000054B5B6F13F0020F0CD000F0BFFC401B44
:100CA0000228F5D903206DE10038024064500008A5
:100CB00000004742236813F0040F7CD0A368012B87
:100CC00001D9052B38D1924B1B6C13F0805F39D1C1
:100CD000002301938E4B1A6C42F080521A641B6CF5
:100CE00003F080530193019B01258A4B1B6813F489
:100CF000807F29D0A368012B3AD0052B3ED0844BAE
:100D00001A6F22F001021A671A6F22F004021A67A2
:100D1000A368002B3CD000F081FC06467C4B1B6F87
:100D200013F0020F45D100F079FC801B41F28833AB
:100D30009842F3D9032025E140F6C251764801F0EC
:100D400041FFC0E70025D0E7724A136843F480737F
:100D5000136000F063FC06466E4B1B6813F4807F43
:100D6000C8D100F05BFC801B0228F5D9032009E103
:100D7000674A136F43F001031367C9E7644B1A6FA7
:100D800042F004021A671A6F42F001021A67BFE7C5
:100D900000F044FC06465E4B1B6F13F0020F08D0B8
:100DA00000F03CFC801B41F288339842F3D90320C9
:100DB000E8E0002D40D1A369022B43D8A369002BA2
:100DC00000F0DF80524A926802F00C02082A00F01C
:100DD000A780022B40F08780E36913B1B3F5800F41
:100DE00036D1236A3F2B39D8636A323BB3F5BF7FD4
:100DF0003AD8A36A022B05D0042B03D0062B01D0CE
:100E0000082B37D1E36A023B0D2B39D8236B023B09
:100E1000052B3BD8414B00221A6600F0FFFB05462C
:100E20003B4B1B6813F0007F36D000F0F7FB401BF4
:100E30000228F5D90320A5E0354A136C23F080532E
:100E40001364B8E740F60561334801F0BBFEB5E72F
:100E500040F60E61304801F0B5FEC2E740F60F6182
:100E60002D4801F0AFFEBFE74FF461612A4801F061
:100E7000A9FEBEE740F61161274801F0A3FEC1E7D5
:100E800040F61261244801F09DFEBFE740F6136171
:100E9000214801F097FEBDE7E369226A1343626AC5
:100EA00043EA8213A26A5208013A43EA0243E26A21
:100EB00043EA0263226B43EA0273154A5360174BFD
:100EC00001221A6600F0AAFB0446114B1B6813F0BE
:100ED000007F06D100F0A2FB001B0228F5D90320F9
:100EE00050E000204EE00D4B00221A6600F096FB09
:100EF0000446074B1B6813F0007F06D000F08EFB02
:100F0000001B0228F5D903203CE000203AE000BF96
:100F10000038024000700040645000080000474262
:100F2000012B31D01F4B5B6803F48001E2699142D1
:100F30002CD103F03F02216A8A4229D1616A47F627
:100F4000C0721A40B2EB811F24D103F44031A26A6F
:100F50005208013AB1EB024F1ED103F07062E16A10
:100F6000B2EB016F1AD103F0E043226BB3EB027FC7
:100F700016D1002006E001207047012002E0012088
:100F800000E0002002B070BD0120FBE70120F9E77E
:100F90000120F7E70120F5E70120F3E70120F1E761
:100FA0000120EFE7003802402DE9F04182B007460A
:100FB0000E46544B98421FD003F5806398421BD0D5
:100FC00003F58063984217D003F58063984213D0ED
:100FD00003F5806398420FD003F5806398420BD0ED
:100FE00003F58063984207D003F58063984203D0ED
:100FF000AC21454801F0E6FD33689AB212B11B0CF2
:101000001B041BB1AD21404801F0DCFD7368012BCE
:1010100019D9112B17D0022B15D0122B13D0B3F5E1
:10102000881F10D0B3F5041F0DD0B3F5441F0AD0AC
:10103000B3F5901F07D0B3F5081F04D0B3F5481FD0
:1010400001D0032B01D1002496E0AE212E4801F0FF
:10105000B9FDF8E7F368032B13D8BA6861000323DE
:101060008B4022EA0302F3688B401343BB607A682B
:1010700022EA05027368C3F30015A54015437D609D
:101080008BE0C021204801F09DFDE6E7D1211E48FC
:1010900001F098FD8AE03369DBB1092B19D0012BEF
:1010A00017D0022B15D0032B13D0042B11D0052BF6
:1010B0000FD0062B0DD0072B0BD0082B09D00A2BF5
:1010C00007D00B2B05D00C2B03D00D2B01D00F2BF1
:1010D00010D1E208083257F8220004F00703990003
:1010E0000F238B4020EA030033698B40034347F80A
:1010F00022306BE0DE21044801F064FDE9E70623BD
:1011000005E000BF00000240A450000800238B400F
:1011100003430232574941F82230574B1A686FEAAD
:10112000080322EA0801706810F4803F01D048EA01
:101130000201514A1160526803EA0201706810F41A
:10114000003F01D048EA02014B4A5160926803EA2D
:101150000201706810F4801F01D048EA0201464A7B
:101160009160D2681340716811F4001F01D048EA01
:101170000203414AD36001340F2C78D80125A540E1
:10118000336803EA050835EA0303F4D1736803F012
:101190000303013B012B7FF65DAF736803F003038C
:1011A000032B0DD0B368022B3FF670AFFA686100D5
:1011B00003238B4022EA0302B3688B401343FB6096
:1011C000736803F00303022B3FF465AF3A686100D4
:1011D00003238B4022EA0302736803F003038B406E
:1011E00013433B60736813F4403FC4D00023019362
:1011F000224B5A6C42F480425A645B6C03F4804385
:101200000193019BA208911C1A4B53F8210004F092
:10121000030399000F238B4020EA0300184B9F42E1
:101220003FF474AF03F580639F4216D003F58063EB
:101230009F4214D003F580639F4212D003F5806370
:101240009F4210D003F580639F420ED003F5806368
:101250009F423FF454AF072359E7012357E7022386
:1012600055E7032353E7042351E705234FE702B073
:10127000BDE8F08100380140003C014000380240E8
:101280000000024038B504460D4621B123691D42D5
:1012900007D0012038BD4FF4BE71034801F092FC25
:1012A000F4E70020F6E700BFA450000870B505463B
:1012B00014460E4621B1012C08D86CB1AE6170BD48
:1012C00040F29D11064801F07DFCF4E74FF4CF7128
:1012D000034801F077FCF0E73604AE61EFE700BFAA
:1012E000A450000830B405682C6824F480242C60D5
:1012F000046863608368402B05D0036899600368C5
:10130000DA6030BC704703689A600368D960F8E718
:101310002DE9F04104460E4617461D46D0F8588088
:101320005A1E4FF6FE739A4211D894F83430012BAE
:1013300036D0012384F8343094F83530DBB2012BF9
:101340000BD0002384F834300220BDE8F0814FF444
:10135000E671144801F036FCE7E7022384F83530E3
:10136000002363652B463A4631462046FFF7BAFF15
:10137000E26D3F239340C8F808302268136843F0B9
:1013800016031360236C23B12268136843F008032B
:1013900013602268136843F0010313600020D4E750
:1013A0000220D2E7E450000870B50446866D00F0D4
:1013B00035F994F83530DBB2022B06D08023636513
:1013C000002384F83430012070BD0546226813687C
:1013D00023F0160313602268536923F080035361DE
:1013E000236CE3B12268136823F0080313602268BA
:1013F000136823F00103136023681B6813F0010FC7
:1014000011D000F00BF9431B052BF5D920236365A0
:10141000032084F83500002384F83430D4E7A36C2B
:10142000002BDFD1E3E7E26D3F239340B36001235C
:1014300084F83530002084F83400C5E790F8353062
:10144000DBB2022B03D080234365012070470523C4
:1014500080F835300268136823F001031360002020
:101460007047000010B50446C31E042B0FD80A4A6B
:10147000D36823F4E0631B041B0C240204F4E0642F
:10148000234343F0BF6343F40033D36010BD922184
:10149000024801F097FBEAE700ED00E02051000868
:1014A00070B505460C4616460F2A25D80F2C28D8AD
:1014B0001B4BDB68C3F30223C3F10701042928BFD8
:1014C00004211A1D062A21D9033B4FF0FF3202FAEC
:1014D00001F124EA01049C4002FA03F326EA030620
:1014E0003443002D14DB2401E4B205F1604505F519
:1014F000614585F8004370BDAA210A4801F062FBEE
:10150000D4E7AB21074801F05DFBD1E70023DCE71E
:1015100005F00F052401E4B2034B5C55EBE700BF77
:1015200000ED00E02051000814ED00E010B5041EAD
:101530000ADB002C07DB04F01F026409012393403F
:10154000044A42F8243010BDBE21034801F03AFBA2
:10155000EFE700BF00E100E0205100080138B0F1E2
:10156000807F0BD24FF0E0235861054AF02182F8CA
:1015700023100020986107221A61704701207047EC
:1015800000ED00E010B504460E4B18784FF47A7366
:10159000B3FBF0F30C4A1068B0FBF3F0FFF7DEFF8B
:1015A00068B90F2C01D901200AE0002221464FF032
:1015B000FF30FFF775FF054B1C60002000E00120A5
:1015C00010BD00BF08000020040000200C00002017
:1015D00008B50B4B1A6842F400721A601A6842F49C
:1015E00080621A601A6842F480721A600320FFF762
:1015F00039FF0F20FFF7C6FFFEF7E4FF002008BD0C
:10160000003C0240034A1168034B1B780B441360F3
:10161000704700BFC000002008000020014B186880
:10162000704700BFC000002038B50446FFF7F6FF42
:101630000546B4F1FF3F02D0044B1B781C44FFF772
:10164000EDFF401BA042FAD338BD00BF08000020C8
:10165000026802F10C0353E8003F23F0C0030C3290
:1016600042E800310029F3D1202380F83D30704753
:10167000026802F10C0353E8003F23F490730C322C
:1016800042E800310029F3D1026802F1140353E863
:10169000003F23F00103143242E800310029F3D166
:1016A000036B012B05D0202380F83E300023036319
:1016B0007047026802F10C0353E8003F23F0100367
:1016C0000C3242E800310029F3D1ECE790F83D30CC
:1016D000DBB2212B01D0022070478368B3F5805F15
:1016E00017D0036A5A1C02621A7803685A60C38CC6
:1016F0009BB2013B9BB2C3844BB90268D36823F011
:101700008003D3600268D36843F04003D3600020B5
:1017100070470369002BE4D1036A1B880268C3F396
:1017200008035360036A02330362E0E738B50446F6
:101730004268574B9A423FD8E36813B1B3F5005F54
:1017400040D123692BB1B3F5806F02D0B3F5C06FE0
:101750003ED163694FF6F372134200D123B940F6CC
:1017600059614C4801F02EFA2268136923F4405362
:10177000E1680B431361A368226913436269134351
:10178000E2691A432168CB6823F4164323F00C0363
:101790001343CB602268536923F44073A1690B4360
:1017A000536123683C4A934218D002F58062934209
:1017B00014D0FFF797F813E040F65661354801F072
:1017C00001FAB9E740F65761324801F0FBF9B8E792
:1017D00040F658612F4801F0F5F9BAE7FFF792F8A3
:1017E000E369B3F5004F29D00021031849411B18C4
:1017F00041F10001C90041EA5371DB001818636828
:101800004FEA83024FEA937341F10001FEF758FD5E
:10181000224DA5FB00325109642303FB11031B0178
:101820003233A5FB03235B0903F0F00202EB011244
:1018300003F00F03216813448B6038BD00230218A6
:1018400043EB0301121841F10001C90041EA527152
:10185000D200101841F10001626892185B41FEF756
:101860002FFD0E4DA5FB00325109642303FB11032C
:10187000DB003233A5FB03235B095A0002F4F87244
:1018800002EB011203F00703216813448B60D4E7D5
:10189000A037A00060510008001001401F85EB51E7
:1018A0002DE9F84305460F4616469946DDF8208097
:1018B0002C68246837EA04030CBF4FF0010C4FF08A
:1018C000000CB4452DD1B8F1FF3FF1D0B8F1000FB5
:1018D00005D0FFF7A3FEA0EB09004045E8D92A6830
:1018E00002F10C0353E8003F23F4D0730C3242E8BA
:1018F00000310029F3D12A6802F1140353E8003FB4
:1019000023F00103143242E800310029F3D12023EF
:1019100085F83D3085F83E30002385F83C300320C3
:1019200000E00020BDE8F88370470000002800F0C8
:10193000938010B504468369002B5DD00368474A45
:10194000934218D0A2F54C42934214D002F5806223
:10195000934210D002F5806293420CD002F580626F
:10196000934208D002F54442934204D04FF4B97137
:101970003B4801F027F9A36943B1B3F5807F05D057
:10198000B3F5007F02D0B3F5407F2FD1A36813B128
:10199000B3F5805F4ED1E36913B1B3F5004F4FD17A
:1019A00094F83D30002B51D0242384F83D30226838
:1019B000D36823F40053D3602046FFF7B7FE2268B4
:1019C000136923F4904313612268536923F02A03B7
:1019D00053612268D36843F40053D360002020642D
:1019E000202384F83D3084F83E3010BD40F273115E
:1019F0001B4801F0E7F8C9E70368184A9342C5D0CD
:101A0000A2F54C429342C1D002F580629342BDD010
:101A100002F580629342B9D002F580629342B5D05C
:101A200002F544429342B1D040F277110C4801F0E4
:101A3000C9F8ABE740F27911094801F0C3F8AAE709
:101A40004FF4BD71064801F0BDF8A9E784F83C30B9
:101A50002046FFF769FFA7E701207047001001400B
:101A6000605100082DE9F04182B01E4690F83D30EB
:101A7000DBB2202B54D104460D469046002953D0AA
:101A8000002A53D090F83C30012B51D0012380F82C
:101A90003C3000230364212380F83D30FFF7BEFD76
:101AA0000746A4F82480A4F82680A368B3F5805FD5
:101AB00005D04FF00008002384F83C3012E0236981
:101AC00013B14FF00008F6E7A8460025F3E738F811
:101AD000023B2268C3F308035360E28C92B2013ADE
:101AE00092B2E284E38C9BB273B100963B46002233
:101AF00080212046FFF7D4FEE0B9002DE7D015F88D
:101B0000012B23685A60E8E700963B4600224021FB
:101B10002046FFF7C5FE78B9202384F83D3000E069
:101B2000022002B0BDE8F0810120FAE70120F8E7C9
:101B30000220F6E70320F4E70320F2E72DE9F04165
:101B400082B01E4690F83E30DBB2202B5CD10446BA
:101B50000D46904600295BD0002A5BD090F83C30BF
:101B6000012B59D0012380F83C300023036422224A
:101B700080F83E200363FFF751FD0746A4F82C8050
:101B8000A4F82E80A368B3F5805F05D04FF000085D
:101B9000002384F83C3017E0236913B14FF00008AC
:101BA000F6E7A8460025F3E723685B68C3F308035C
:101BB00028F8023B03E023685B682B700135E28D57
:101BC00092B2013A92B2E285E38D9BB2BBB100962C
:101BD0003B46002220212046FFF762FEF0B9002D8F
:101BE000E2D0A368B3F5805FE5D013B92369002B79
:101BF000E1D023685B6803F07F032B70DEE72023CE
:101C000084F83E30002000E0022002B0BDE8F08100
:101C10000120FAE70120F8E70220F6E70320F4E7C5
:101C200090F83D30DBB2202B19D1D1B1DAB190F868
:101C30003C30012B19D0012380F83C3001628284B2
:101C4000C28400230364212280F83D2080F83C30C8
:101C50000168CA6842F08002CA60184670470220D4
:101C60007047012070470120704702207047000034
:101C700038B590F83D30DBB2202B38D1044600292E
:101C800037D0002A37D090F83C30012B35D00123D3
:101C900080F83C3001628284C284002505642123DF
:101CA00080F83D30436B1648D863636B1548186461
:101CB000636B1548D864636B1D6520681346021D6D
:101CC000606BFFF725FB23686FF040021A6084F811
:101CD0003C50226802F1140353E8003F43F08003B4
:101CE000143242E800310029F3D1002000E0022044
:101CF00038BD0120FCE70120FAE70220F8E700BF29
:101D00000F1D0008771D0008851D0008704708B5E5
:101D10000346806B1B681B6813F4807F1AD1002375
:101D2000C384026802F1140353E8003F23F08003E8
:101D3000143242E800310029F3D1026802F10C03A9
:101D400053E8003F43F040030C3242E800310029E1
:101D5000F3D108BDFFF7DAFFFBE708B50168CA68F1
:101D600022F04002CA60202280F83D20FFF7CEFF1B
:101D7000002008BD704708B5806BFFF7FBFF08BD6A
:101D80007047704710B5846B23685A6994F83D30EA
:101D9000DBB2212B10D023685A6902F0400294F87C
:101DA0003E30DBB2222B11D0236C43F010032364AE
:101DB0002046FFF7E6FF10BD02F08002002AEAD0BD
:101DC0000023E3842046FFF743FCE4E7002AEBD03E
:101DD0000023E3852046FFF74BFCE5E708B5806B61
:101DE0000023C385C384FFF7CCFF08BD704790F87C
:101DF0003E30DBB2222B67D18368B3F5805F4DD0D4
:101E0000826AB3F5805F04D0002B54D10369002BA4
:101E100051D103685B681370836A01338362C38D99
:101E20009BB2013B9BB2C385002B4FD100B583B061
:101E30000268D36823F02003D3600268D36823F4D8
:101E40008073D3600268536923F001035361202338
:101E500080F83E30036B012B33D10023036302680B
:101E600002F10C0353E8003F23F010030C3242E868
:101E700000310029F3D103681A6812F0100F06D060
:101E8000002201921A6801925B680193019B818D87
:101E9000FFF7ACFF002003B05DF804FB0269002AE5
:101EA000AED1826A03685B68C3F308031380836A58
:101EB00002338362B3E703685B6803F07F03137048
:101EC000AAE700F057FAE5E70220704700207047C4
:101ED00030B583B0044602681368D068516913F0C6
:101EE0000F0505D113F0200F02D010F0200F19D1EB
:101EF0002DB111F0010119D110F4907F16D1216B91
:101F000001297DD013F0800F03D010F0800F40F036
:101F1000158113F0400F03D010F0400F40F01281F4
:101F200003B030BD2046FFF762FFF9E713F0010F61
:101F300006D010F4807F03D0226C42F001022264AC
:101F400013F0040F04D019B1226C42F00202226493
:101F500013F0020F04D019B1226C42F00402226483
:101F600013F0080F07D010F0200F00D119B1226C28
:101F700042F008022264226C002AD1D013F0200F14
:101F800002D010F0200F29D123685B6903F04003D1
:101F9000226C12F0080F00D163B32046FFF768FBF4
:101FA00023685B6913F0400F20D0226802F114030C
:101FB00053E8003F23F04003143242E80031002987
:101FC000F3D1A36B73B1614A1A65A06BFFF736FAC0
:101FD0000028A5D0A06B036D9847A1E72046FFF726
:101FE00006FFD1E72046FFF7CCFE99E72046FFF732
:101FF000C8FE95E72046FFF7C4FE002323648FE761
:1020000013F0100F3FF47EAF10F0100F3FF47AAFD3
:10201000002301931368019353680193019B536953
:1020200013F0400F50D0A26B13685B689BB2002B7B
:102030003FF476AFA18D99427FF672AFE385D36905
:10204000B3F5807F37D0226802F10C0353E8003FDC
:1020500023F480730C3242E800310029F3D1226866
:1020600002F1140353E8003F23F00103143242E865
:1020700000310029F3D1226802F1140353E8003F34
:1020800023F04003143242E800310029F3D1202329
:1020900084F83E3000232363226802F10C0353E8E6
:1020A000003F23F010030C3242E800310029F3D145
:1020B000A06BFFF779F9A18DE38D9BB2C91A89B2A4
:1020C0002046FFF793FE2BE7A18DE38D9BB2C91A43
:1020D00089B2E38D9BB2002B3FF422AF00293FF47D
:1020E0001FAF226802F10C0353E8003F23F4907302
:1020F0000C3242E800300028F3D1226802F11403C8
:1021000053E8003F23F00103143242E80030002876
:10211000F3D1202384F83E3000232363226802F1A8
:102120000C0353E8003F23F010030C3242E8003068
:102130000028F3D12046FFF759FEF1E62046FFF7CD
:10214000C5FAEDE62046FFF708FEE9E6DD1D0008CA
:1021500008B5806B036B012B02D0FFF711FE08BDA1
:10216000818D4908FFF742FEF9E708B50346806B09
:102170001B681B6813F4807F2BD10023C385026882
:1021800002F10C0353E8003F23F480730C3242E861
:1021900000310029F3D1026802F1140353E8003F33
:1021A00023F00103143242E800310029F3D1026820
:1021B00002F1140353E8003F23F04003143242E8D5
:1021C00000310029F3D1202380F83E30036B012B2E
:1021D00005D0036B012B0FD000F0CCF808BD0268CE
:1021E00002F10C0353E8003F23F010030C3242E8E5
:1021F00000310029F3D1ECE7818DFFF7F7FDEDE722
:10220000034681628285C28500201864222283F8F9
:102210003E2083F83C001968CA6842F48072CA60A4
:1022200019684A6942F001024A611A68D36843F0AA
:102230002003D360704708B590F83E30DBB2202B06
:102240000DD171B17AB190F83C30012B0DD0012342
:1022500080F83C3000230363FFF7D2FF00E0022048
:1022600008BD0120FCE70120FAE70220F8E70000A2
:1022700030B583B00446134681628285002505642B
:10228000222280F83E20826B1F48D063A26B1F4839
:102290001064A26B1E48D064A26B156520680A46C4
:1022A000011DA06BFFF734F8019523681A680192AD
:1022B0005B680193019B84F83C50226802F10C0397
:1022C00053E8003F43F480730C3242E800310029A8
:1022D000F3D1226802F1140353E8003F43F00103F5
:1022E000143242E800310029F3D1226802F11403CC
:1022F00053E8003F43F04003143242E80031002924
:10230000F3D1002003B030BD6B210008512100083B
:10231000851D000808B590F83E30DBB2202B0DD1AA
:1023200071B17AB190F83C30012B0DD0012380F8C7
:102330003C3000230363FFF79BFF00E0022008BD51
:102340000120FCE70120FAE70220F8E7FEE7FEE7BC
:10235000FEE7FEE7FEE770477047704708B5FFF7F6
:1023600051F908BD08B5024B186800F0C3FD08BD5F
:102370008401002008B50268054B9A4200D008BDD0
:10238000044B18680028FAD000F033FEF7E700BFCE
:10239000004400408401002088B0062911D8DFE8FD
:1023A00001F004121F2C39465300002301932D4BDA
:1023B0001A6B42F001021A631B6B03F001030193D5
:1023C000019B08B0704700230293264B1A6B42F022
:1023D00002021A631B6B03F002030293029BF0E7F5
:1023E000002303931F4B1A6B42F004021A631B6B0A
:1023F00003F004030393039BE3E700230493194BC7
:102400001A6B42F008021A631B6B03F00803049373
:10241000049BD6E700230593124B1A6B42F010027F
:102420001A631B6B03F010030593059BC9E7002398
:1024300006930C4B1A6B42F020021A631B6B03F0DD
:1024400020030693069BBCE700230793054B1A6BFA
:1024500042F040021A631B6B03F040030793079B93
:10246000AFE700BF0038024082B0ADF80410012091
:1024700002B07047013905290DD8DFE801F0030EDD
:10248000050C0C0A064800E00648003818BF012079
:1024900070470548F9E70020F7E70448F5E700BF73
:1024A000001001400048004000140140004400407A
:1024B00082B0ADF80420012002B0704784B0013929
:1024C000052910D8DFE801F003111E0F0F2B0023A0
:1024D0000093194B5A6C42F010025A645B6C03F083
:1024E00010030093009B04B0704700230193124B2C
:1024F0001A6C42F400321A641B6C03F4003301932B
:10250000019BF0E7002302930B4B1A6C42F48022EC
:102510001A641B6C03F480230293029BE3E70023FD
:102520000393054B5A6C42F020025A645B6C03F033
:1025300020030393039BD6E70038024008B50368E5
:102540000878984708BD012A02D101600020704731
:10255000022A05D0032AF9D0012AF7D10160F5E754
:102560000B680360F2E70000024A0260024A026060
:10257000704700BFA05200087052000810B582B02A
:10258000002401940D4B1A6B42F400121A631B6B6A
:1025900003F400130193019B224606211020FEF74D
:1025A0007FFF1020FEF7C2FF224606211120FEF712
:1025B00077FF1120FEF7BAFF02B010BD00380240CD
:1025C000022900D0704708B5002205212620FEF719
:1025D00067FF2620FEF7AAFF08BD000000B587B000
:1025E0000023019302930393049305934A780123F4
:1025F00093409BB201934B68022B1FD0032B1FD03B
:10260000012B00D0002302938B68012B1AD0022BE0
:102610001AD10393CB68022B18D0032B18D0012BAF
:1026200000D0002304930B7C05930B78013B052B12
:1026300010D8DFE803F01B11131517190223E2E786
:102640000323E0E70123E4E70023E2E70223E9E7CD
:102650000323E7E709480AE0094808E0094806E0DB
:10266000094804E0094802E0094800E0094801A9D6
:10267000FEF79AFC07B05DF804FB00BF00000240C3
:1026800000080240000C024000100240001402400A
:10269000001802400004024010B50446044B0360D9
:1026A000044B0360042101F0F1F9204610BD00BF86
:1026B000A052000870520008F0B597B00DF1300C30
:1026C000254C0FCCACE80F000FCCACE80F0094E821
:1026D00003008CE8030002238DF8303008220F92AB
:1026E00078221092119312931393032215920422CD
:1026F0008DF852208DF853300CA90DEB020000F03C
:102700006AF901A800F0E4F900B9FEE701A800F0B9
:1027100076F9124F386001A800F073F9104E30605E
:1027200001A800F073F90F4D286001A800F077F9B7
:102730000D4C206039680D4801F036FB31680C48BB
:1027400001F032FB29680B4801F02EFB21680A4892
:1027500001F02AFB17B0F0BDD04F0008CC000020DC
:10276000D0000020C4000020C8000020A0510008B4
:10277000B0510008C0510008D0510008012800D015
:10278000704708B54FF6FF73994200D008BD034A61
:102790000349044801F075F9F8E700BF0000002084
:1027A000692500081000002010B50446836813B1A5
:1027B000032201469847204610BD10B582B0ADF8FF
:1027C00004000C46019800F085FD10B9002002B00D
:1027D00010BD214601F016F90120F8E738B50C4686
:1027E000154600F06DFD08B9002038BD2A46214687
:1027F00001F0B8F80120F8E70FB410B5A2B024AB8F
:1028000053F8042B0193802102A801F099FB02A840
:10281000FDF7FEFC0446022000F052FD20B922B074
:10282000BDE8104004B07047224602A901F094F8B8
:10283000F5E7000038B50D2805D00A2803D00E4B67
:102840001B78622B0DD90C4C23780C490025CD54F4
:102850000B48FFF7D1FF2570022000F031FD30B9A1
:1028600038BD591C044A1170044AD054F4E70122BF
:10287000044901F077F8F3E739010020D400002083
:10288000E05100083801002038B504460023836079
:102890008B6833B10D4602229847EB68E360AB6862
:1028A000A360204638BD00000023836021B1016091
:1028B000024BC360024B8360704700BF3D25000898
:1028C00047250008F0B5A9B000F074F9FFF7F4FE51
:1028D00000F0AEFE00218DF87C1005238DF87D30D0
:1028E0001F98FFF76AFF2F4C2F4F3B6802932F4E24
:1028F000336801932E4D2B68009323682D4A642181
:1029000006A801F0BDFA2C48FFF776FF3B6800935C
:1029100033682A6821682948FFF76EFF284920A8F4
:10292000FFF7C2FF022000F0CBFC40B920A8FFF760
:102930003BFF012223490220FFF750FF18E0044625
:1029400020A924A8FFF7A0FF24A9204601F010F831
:10295000269B002BEAD0032224A908469847E5E7E6
:10296000012101F04FF80CE04FF4FA7000F026F965
:10297000BDF87C30ADF81430059800F0ABFC0028B1
:10298000EED14FF4FA7000F019F9BDF87C30ADF8D3
:102990001430059800F09EFC0028E5D0002101F0DD
:1029A00031F8E1E7CC000020C8000020C40000207E
:1029B000D0000020F05100081852000830520008E2
:1029C000352800083801002008B54FF6FF710120B6
:1029D000FFF7D4FE08BD10B5044686468C46BCE819
:1029E0000F00AEE80F00BCE80F00AEE80F009CE857
:1029F00003008EE803000023A362204610BD806A16
:102A00007047826A008CB2FBF0F0704710B5044644
:102A1000FFF7F7FF94F82230B0FBF3F010BD10B5CC
:102A20000446FFF7EEFF94F82330B0FBF3F010BD3F
:102A3000402825D012D8102824D8022824D30238C0
:102A40000E2809D8DFE800F0220816080808180840
:102A50000808080808081A0000207047B0F5807FB1
:102A600016D0B0F5007F01D1F0207047802811D139
:102A7000D020704790207047A0207047B02070474A
:102A8000C0207047002070470020704780207047AA
:102A9000E02070470020704702380E2809D8DFE890
:102AA00000F013080A0808080D08080808080808B4
:102AB0001000002070474FF4A05070474FF4C050F2
:102AC00070474FF4E05070474FF48050704700005B
:102AD00010B592B004463422002105A801F07EF81A
:102AE000002300930193029303930493022305931D
:102AF00001230893102309932378022B25D005A8DE
:102B0000FDF7A0FF00284ED10F2300932378022B5E
:102B100000D000230193208CFFF78AFF029094F8E5
:102B20002200FFF7B9FF039094F82300FFF7B4FFEA
:102B30000490616A6846FDF7C1FD002836D123780C
:102B4000B3B91B4BA36201202EE00B9323796BB129
:102B50004FF480030C93E3680D9323690E9363692C
:102B60000F93A3691093E3691193C8E70023F1E77A
:102B7000012B03D0022B05D0012015E0A368A3622E
:102B8000012011E0237963B1A368E268B3FBF2F39B
:102B9000226902FB03F36269B3FBF2F3A362012033
:102BA00002E0034BF1E7002012B010BD0020FBE76C
:102BB0000024F40008B5FEF70BFD08BD08B5FEF7CC
:102BC00033FD08BDFEE70000024A0260024A0260CF
:102BD000704700BFF0520008D0520008704770479D
:102BE000002070470020704710B50446FFF7ECFF47
:102BF0000821204600F04AFF204610BD024A02602C
:102C0000024A026041607047D0520008F05200084A
:102C100008B503468C4600F5907E07C98EE807008C
:102C2000DCF800209A600022DA601A615A610C21F7
:102C30009961DA611A62181DFEF778FE08BD08B5C1
:102C40004FF0FF3392B20430FEF70CFF08BD08B519
:102C50004FF0FF3392B20430FEF770FF08BD08B5A5
:102C600092B20430FEF7DCFF08BD08B592B2043022
:102C7000FFF7E1FA08BD08B592B20430FEF7F8FF9D
:102C800008BD08B592B20430FFF744FB08BD30B56B
:102C900087B00A4600F5A87300240494EC46D1E9F5
:102CA00000018CE803000DF1080E9EE8030082E8A5
:102CB00003009CE803008EE8030095689460049587
:102CC000D4680599D16005949EE803008CE8030060
:102CD00093E803008EE803009CE8030083E8030008
:102CE0009A6804929D60D9680591DC6022B1134610
:102CF000032271467046984707B030BD30B587B0A3
:102D00000A4600F5987300240494EC46D1E90001CA
:102D10008CE803000DF1080E9EE8030082E8030032
:102D20009CE803008EE80300956894600495D468DD
:102D30000599D16005949EE803008CE8030093E8B0
:102D400003008EE803009CE8030083E803009A6810
:102D500004929D60D9680591DC6022B1134603227C
:102D600071467046984707B030BD30B587B00A4607
:102D700000F5A07300240494EC46D1E900018CE82E
:102D800003000DF1080E9EE8030082E803009CE8B2
:102D900003008EE80300956894600495D468059953
:102DA000D16005949EE803008CE8030093E80300DB
:102DB0008EE803009CE8030083E803009A6804920D
:102DC0009D60D9680591DC6022B1134603227146EB
:102DD0007046984707B030BD30B587B00A4600F559
:102DE000B07300240494EC46D1E900018CE80300A0
:102DF0000DF1080E9EE8030082E803009CE8030042
:102E00008EE80300956894600495D4680599D160B4
:102E100005949EE803008CE8030093E803008EE825
:102E200003009CE8030083E803009A6804929D6015
:102E3000D9680591DC6022B11346032271467046C1
:102E4000984707B030BD000010B50446134B03602F
:102E500000F5B070836813B103220146984704F56A
:102E6000A870836813B103220146984704F5A07047
:102E7000836813B103220146984704F5987083686C
:102E800013B1032201469847054B23604FF4B871F4
:102E9000204600F0FBFD204610BD00BF4C5300084B
:102EA0001053000810B50446104B036000F5B070D5
:102EB000836813B103220146984704F5A87083681C
:102EC00013B103220146984704F5A070836813B13B
:102ED00003220146984704F59870836813B10322D2
:102EE00001469847024B2360204610BD4C53000812
:102EF0001053000808B54268034B9A4200D008BD41
:102F00000430FEF7E5FFFAE700440040054B064AAF
:102F1000934206D01A68824201D00833F7E759601D
:102F20007047704714000020340000202DE9F8435A
:102F300004460D4616461F46DDF82080224B0360EE
:102F4000224B40F8043B4422002100F047FE4FF0A2
:102F500060094A46002104F1480000F03FFE4A465D
:102F6000002104F1A80000F039FEC4F80861C4F89B
:102F70000C81C4F81071099BC4F814310023C4F803
:102F80001831C4F81C31124A04F5907C07CA8CE849
:102F9000070084F82C3184F82D3184F82E3184F820
:102FA0002F31C4F83831C4F84831C4F85831C4F866
:102FB00068316560A664C4F8A88021462846FFF7FA
:102FC000A5FF2046BDE8F883105300084C530008C5
:102FD000F84F000800B583B08DF80710836833B14F
:102FE000C3680DF10701984703B05DF804FB00F0DA
:102FF00078FD08B5D0F8383133B143685968C9B2A3
:1030000000F59870FFF7E6FF08BD000030B587B007
:1030100005460C4600230193029303930493059302
:103020004A78012393409BB201934B68022B1FD037
:10303000032B1FD0012B00D000230293A368012B88
:103040001AD0022B1AD10393E368022B18D0032B5A
:1030500018D0012B00D000230493237C0593237800
:10306000013B052B10D8DFE803F01B1113151719CE
:103070000223E2E70323E0E70123E4E70023E2E79A
:103080000223E9E70323E7E70C480AE00C4808E0DD
:103090000C4806E00C4804E00C4802E00C4800E054
:1030A0000C4801A9FDF780FF05F1040C0FCCACE83A
:1030B0000F002368CCF8003007B030BD000002409C
:1030C00000080240000C02400010024000140240C0
:1030D000001802400004024008B503460279013A94
:1030E000052A04D8DFE802F00F0507090B0D0C488C
:1030F0000AE00C4808E00C4806E00C4804E00C48E4
:1031000002E00C4800E00C485B790121994089B24B
:10311000FEF7B8F8012814BF0020012008BD00BF49
:103120000000024000080240000C02400010024073
:1031300000140240001802400004024010B503468B
:103140000C460279013A052A04D8DFE802F00F059F
:1031500007090B0D0B480AE00B4808E00B4806E096
:103160000B4804E00B4802E00B4800E00B4859799B
:1031700001238B4099B21CB10122FEF797F810BDD4
:103180000022FAE70000024000080240000C024062
:1031900000100240001402400018024000040240E7
:1031A000012800D0704738B54FF6FF73994200D020
:1031B00038BD0D4800240460446084600B4D2A46ED
:1031C0000B4900F05EFC0B480460446084602A46B2
:1031D000094900F056FC09480460446084602A46AE
:1031E000074900F04EFCE3E76C01002000000020DE
:1031F00005320008780100208132000860010020BB
:1032000043320008F8B507460468466809E02846D6
:1032100000F0D5FB1C21284600F038FC002344F8C0
:10322000043BA64205D02568002DF7D0002DEED135
:10323000F4E73868B968091A08B100F027FC384685
:10324000F8BDF8B507460468466809E0284600F06E
:103250000DFB0421284600F019FC002344F8043B30
:10326000A64205D02568002DF7D0002DEED1F4E759
:103270003868B968091A08B100F008FC3846F8BD8A
:10328000F8B507460468466809E0284600F015FBD3
:103290003C21284600F0FAFB002344F8043BA642F8
:1032A00005D02568002DF7D0002DEED1F4E7386861
:1032B000B968091A08B100F0E9FB3846F8BD00000A
:1032C000072803D8024B53F82000704700207047AE
:1032D0004001002030B58BB0ADF80400134A1368EC
:1032E000556800E0231D1C46AB421CD0196800291C
:1032F000F8D005A800F08CFBBDF81430ADF80C3008
:10330000BDF80430ADF810309DF80C209DF8103059
:103310009A42E7D19DF80D209DF811309A42E1D1F3
:1033200020680BB030BD0020FBE700BF6C0100201F
:103330002DE9F04F83B006461546012300934368FC
:1033400002689A1A6FF06040B0EBA20F24D0971079
:10335000019727B301AA1268174432689B1AB7EB8A
:10336000A30F1ED3B7F1005F1ED2D6F800A0D6F887
:1033700004800C46A1EB0A0BDFB1B7F1005F16D257
:10338000B80000F094FB81462B6849F80B3000230D
:103390002B604D46534616E01A4800F09FFB6A46E4
:1033A000D9E76FF06047E0E76FF06047DDE700F0D6
:1033B00092FB4FF00009E7E71A6845F8042B00225A
:1033C0001A6043F8042B9C42F6D1043506E02368CA
:1033D00045F8043B0023236044F8043BA045F6D1A4
:1033E000B168A1EB0A01BAF1000F02D0504600F01B
:1033F0004DFBC6F80090756009EB8707B76003B016
:10340000BDE8F08F9453000810B504460A464168A1
:103410008368994209D013680B60002313604368E6
:10342000043343606068043810BDFFF781FFF9E79B
:103430002DE9F04F83B006461546012300934368FB
:1034400002689A1A6FF06040B0EBA20F24D0971078
:10345000019727B301AA1268174432689B1AB7EB89
:10346000A30F1ED3B7F1005F1ED2D6F800A0D6F886
:1034700004800C46A1EB0A0BDFB1B7F1005F16D256
:10348000B80000F014FB81462B6849F80B3000238C
:103490002B604D46534616E01A4800F01FFB6A4663
:1034A000D9E76FF06047E0E76FF06047DDE700F0D5
:1034B00012FB4FF00009E7E71A6845F8042B0022D9
:1034C0001A6043F8042B9C42F6D1043506E02368C9
:1034D00045F8043B0023236044F8043BA045F6D1A3
:1034E000B168A1EB0A01BAF1000F02D0504600F01A
:1034F000CDFAC6F80090756009EB8707B76003B096
:10350000BDE8F08F9453000810B504460A464168A0
:103510008368994209D013680B60002313604368E5
:10352000043343606068043810BDFFF781FFF9E79A
:103530002DE9F04F83B006461546012300934368FA
:1035400002689A1A6FF06040B0EBA20F24D0971077
:10355000019727B301AA1268174432689B1AB7EB88
:10356000A30F1ED3B7F1005F1ED2D6F800A0D6F885
:1035700004800C46A1EB0A0BDFB1B7F1005F16D255
:10358000B80000F094FA81462B6849F80B3000230C
:103590002B604D46534616E01A4800F09FFA6A46E3
:1035A000D9E76FF06047E0E76FF06047DDE700F0D4
:1035B00092FA4FF00009E7E71A6845F8042B002259
:1035C0001A6043F8042B9C42F6D1043506E02368C8
:1035D00045F8043B0023236044F8043BA045F6D1A2
:1035E000B168A1EB0A01BAF1000F02D0504600F019
:1035F0004DFAC6F80090756009EB8707B76003B015
:10360000BDE8F08F9453000810B504460A4641689F
:103610008368994209D013680B60002313604368E4
:10362000043343606068043810BDFFF781FFF9E799
:1036300070B58AB0744B1B78BFF35B8F13F0010F2A
:1036400001D0724D1EE0704800F022FA0028F8D038
:103650006F4A7049704800F014FA6B4800F024FA81
:10366000EFE7204600F0ABF91C21204600F00EFAEF
:1036700000230493039810B1182100F007FA0023E7
:1036800003931435654B9D4236D0182000F00FFA95
:103690000024046044608460C46004614461604B41
:1036A000036003465F4A43F8042B5C609C60DC6067
:1036B0001C6103940390039407901C2000F0F7F919
:1036C00006462B4607AA544900F065F9049404966F
:1036D000079810B1042100F0D9F90023079304984A
:1036E00000F078F904A95048FFF78EFE049C002CE6
:1036F000BED0002CB5D1BBE74C4C4D4B9C424DD0BD
:103700002378022B48D04B4E4FF4B87000F0CFF91D
:1037100005464FF000630193474A00921832314644
:10372000FFF704FC002603960395444B1D600396A7
:1037300008953C2000F0BBF90546234608AA364907
:1037400000F09FF804960495089810B103685B6830
:10375000984700230893049800F0BAF82278049957
:10376000374B43F8221004A93648FFF7CDFE049DDD
:103770003DB135B1284600F0A0F83C21284600F0C4
:1037800085F900230493039810B103685B68984798
:10379000002303933434B0E72B4EB5E7082000F044
:1037A00086F904462949FFF729FA0025059505946D
:1037B00005950994042000F07AF9044609A900F05F
:1037C00050F806950694099810B103685B6898470D
:1037D0000023099306A91E48FFF716FF069C3CB17B
:1037E00034B1204600F042F80421204600F04EF9A2
:1037F00000230693059810B103685B68984700237F
:1038000005930AB070BD00BF3C010020F8530008CA
:10381000000000206925000834000020345400080E
:10382000B8530008885300086C010020C4530008F6
:10383000F853000800100140886002408401002015
:10384000400100207801002000440040A0600240B8
:103850006001002008B54FF6FF710120FFF7A0FCC2
:1038600008BD0B68036000230B60704710B5044669
:10387000006810B103685B68984700232360204606
:1038800010BD10B50446016011684160002111604F
:1038900000F1080E9C46BCE80F00AEE80F00BCE843
:1038A0000F00AEE80F00BCE80F00AEE80F00DCF838
:1038B0000030CEF80030204610BD10B504464068F8
:1038C00010B103685B68984700236360204610BD11
:1038D00010B584B00446006803685B69217A984794
:1038E00000B9FEE720680368DB69217A984794F8FD
:1038F0003A3023B1206803681B6A217A984794F80C
:103900003B3023B1206803685B6A217A9847114BEA
:1039100093E8070004AB03E90700636B019394F895
:103920003B3023B994F83A2092B1012200E0022200
:10393000029294F83A208DF80C208DF80E308DF814
:103940000F30606803689B6801A9984704B010BDF8
:103950000022EDE70450000808B540680368DB6802
:10396000984708BD08B5406803689B69984708BD3B
:1039700030B585B0446823685D6A6846FEF784FF09
:1039800069462046A847029B1BB103226946684648
:10399000984705B030BD10B504460160116841601C
:1039A0000021116000F1080E9C46BCE80F00AEE853
:1039B0000F00DCF80030CEF80030204610BD10B506
:1039C0000446406810B1042100F060F800236360F1
:1039D000204610BD10B50446C368022B0BD02068EA
:1039E00003689B68217A9847606803681B6804F144
:1039F0000801984710BD00680368DB68227EA16853
:103A00009847ECE708B5406803685B68984708BDCD
:103A100010B50446864601F1080CBCE80F00AEE87C
:103A20000F00DCF80030CEF80030204610BD00005A
:103A3000DFF834D00D480E490E4A002302E0D45876
:103A4000C4500433C4188C42F9D30B4A0B4C0023E6
:103A500001E013600432A242FBD3FCF72DFE00F01C
:103A60007BF8FEF72FFF70470000022000000020C7
:103A7000A0000020E4540008A00000209C010020C9
:103A8000FEE70B460146184600F052B800F02CB88D
:103A90000268D207034605D4427802B1FFDE012056
:103AA0005870704700207047012303607047012859
:103AB00038BF012010B50446204600F071F830B937
:103AC00000F026F808B900F02BF88047F4E710BDA5
:103AD00008B500F017F808B500F022F808B500F0B6
:103AE0001FF808B500F01CF800F062B808B5804770
:103AF00000F016F8024B1868BFF35B8F704700BFE9
:103B00003800002008B5FFF7F5FFFFF7EFFF0000D2
:103B1000024B1868BFF35B8F704700BF880100201D
:103B200008B5062000F090F90120FCF795FD000093
:103B300010B504460448134620B10A460220214627
:103B4000AFF3008010BD00BF00000000014B1868FB
:103B5000704700BF3C00002070B50D4D0D4C641B3C
:103B6000A4100026A64209D10B4D0C4C01F024FAFA
:103B7000641BA4100026A64205D170BD55F8043B75
:103B800098470136EEE755F8043B98470136F2E7CF
:103B9000D4540008D4540008D4540008E054000859
:103BA000024B0146186800F08BB800BF3C000020B3
:103BB000024B0146186800F019B800BF3C00002015
:103BC0000A44914200F1FF3300D1704710B511F85B
:103BD000014B03F8014F9142F9D110BD0244034655
:103BE000934200D1704703F8011BF9E738B5054649
:103BF000002941D051F8043C0C1F002BB8BFE41839
:103C000000F0A4FA1D4A136833B9636014602846B3
:103C1000BDE8384000F0A0BAA34208D920682118B6
:103C20008B4201BF19685B6809182160EDE71A46ED
:103C30005B680BB1A342FAD911685018A0420BD1AE
:103C400020680144501883421160E0D118685B6815
:103C5000536001441160DAE702D90C232B60D6E7E8
:103C6000206821188B4204BF19685B68636004BF39
:103C7000091821605460CAE738BD00BF8C010020DC
:103C800070B50E4E0C463168054611B900F0A4F827
:103C900030602146284600F09FF8431C0AD0C41C1F
:103CA00024F00304A04207D0211A284600F094F81B
:103CB000013001D14FF0FF34204670BD900100204B
:103CC0002DE9F041CD1C25F0030508350C2D38BF3A
:103CD0000C25002D074601DBA94205D90C233B60CA
:103CE00000263046BDE8F0812E4E00F02FFA3368F2
:103CF0001C4634BB29463846FFF7C2FF431C044626
:103D00004DD134682646002E40D1236831463846CE
:103D100004EB030800F060F880453AD121680335D0
:103D20006D1A25F0030508350C2D38BF0C252946E2
:103D30003846FFF7A5FF01302BD023682B442360C2
:103D40000EE02268521B1ED40B2A16D96119A34219
:103D5000256018BF5960636808BF316062514B60CD
:103D6000384604F10B0600F0F7F926F00706231D8C
:103D7000F21AB6D09B1BA350B3E76268A3420CBFF4
:103D800032605A60ECE723466468B2E734467668EE
:103D9000B9E70C233B60384600F0DEF9A1E7256067
:103DA000DEE700BF8C0100200FB40A4B13B51C687E
:103DB00024B1A36913B9204600F028F905AB049A91
:103DC000A1680193204600F051FB02B0BDE810400D
:103DD00004B070473C00002038B5064D002304466F
:103DE00008462B60FCF70AFC431C02D12B6803B188
:103DF000236038BD980100201F2938B504460D46C0
:103E000004D9162303604FF0FF3038BD426C12B165
:103E100052F821304BB9204600F030F82A460146CE
:103E20002046BDE8384000F017B8012B0AD0591CD5
:103E300003D1162303600120E7E7002442F8254060
:103E4000284698470020E0E7024B01461868FFF734
:103E5000D3BF00BF3C00002038B5074D0023044607
:103E6000084611462B60FCF7EFFB431C02D12B6880
:103E700003B1236038BD00BF98010020FCF7E2BB0E
:103E80000CB430B5174B0C1E1D689DB008DA8B239F
:103E90002B604FF0FF301DB0BDE8304002B07047DE
:103EA0004FF40273ADF8143014BF04F1FF3323460E
:103EB000049307934FF6FF7302900690ADF8163007
:103EC000209A21AB02A92846019300F0A7F9431CD0
:103ED000BCBF8B232B60002CDDD0029B00221A700C
:103EE000D9E700BF3C00002030B51446002C9BB041
:103EF00005461A4605DA8B2303604FF0FF301BB0EE
:103F000030BD4FF40273ADF80C3014BF04F1FF3331
:103F10002346029305934FF6FF7300910491ADF889
:103F20000E3069461E9B00F079F9431CBCBF8B2301
:103F30002B60002CE3D0009B00221A70DFE700000A
:103F400007B5009313460A46014603480068FFF789
:103F5000CBFF03B05DF804FB3C000020002310B54C
:103F60000446C0E90033C0E90433836081814366BD
:103F7000C2818361194608225C30FFF72FFE054B92
:103F80006362054BA362054BE362054B2462236326
:103F900010BD00BFF5490008174A00084F4A000845
:103FA000734A0008014900F0AFB800BF454D000852
:103FB00070B568224D1E55430E4605F17401FFF79A
:103FC0007FFE044640B10021C0E900160C30A0601D
:103FD00005F16802FFF702FE204670BD014800F0BF
:103FE000B3B800BF95010020014800F0AEB800BF93
:103FF00095010020014800F0A7B800BF96010020FD
:10400000014800F0A2B800BF9601002010B5044698
:10401000FFF7F0FFA3691BB1BDE81040FFF7F0BF49
:10402000C4E912332365134B134A1B68A262A342EF
:1040300004BF0123A361204600F020F86060204601
:1040400000F01CF8A060204600F018F80022E060A4
:1040500004216068FFF782FFA06801220921FFF7B1
:104060007DFFE06802221221FFF778FF0123A361A0
:10407000D2E700BF34540008A53F0008F8B5074652
:10408000FFF7ACFF1E4B1E68B36913B93046FFF74C
:10409000BDFF4836D6E90134013B03D533680BB385
:1040A0003668F7E7B4F90C50D5B9164BE36004F164
:1040B0005800656600F047F8FFF796FFC4E9015520
:1040C000C4E904552560A5610822294604F15C0075
:1040D000FFF784FDC4E90D55C4E912552046F8BD2B
:1040E0006834D9E704213846FFF762FF04463060A0
:1040F0000028D5D1FFF778FF0C233B60EEE700BF27
:10410000345400080100FFFF2DE9F84306468846B5
:1041100000F148040027D4E90195B9F1010905D55A
:104120002468002CF7D13846BDE8F883AB89012B11
:1041300007D9B5F90E30013303D029463046C047C0
:1041400007436835E9E77047704770470148FFF754
:10415000FBBF00BF940100200148FFF7F6BF00BF7E
:10416000940100202DE9F0478E689E4282460C465D
:1041700090461F4638D88A8912F4906F32D025684D
:104180000969A5EB0109656905EB450505EBD575E1
:1041900001334B446D109D4238BF1D46530531D548
:1041A0002946FFF78DFD064650B90C23CAF80030AA
:1041B000A38943F04003A3814FF0FF30BDE8F087AF
:1041C00021694A46FFF7FCFCA38923F4906343F07E
:1041D0008003A381266165614E44A5EB0905266035
:1041E000A5603E46BE4200D93E4620683246414662
:1041F00000F05CFEA3689B1BA3602368334423602C
:104200000020DBE72A4600F06BFE06460028E1D1DD
:1042100021695046FFF7EAFCC7E700002DE9F04F9F
:1042200098468B891B069DB007460D4614460ED551
:104230000B6963B94021FFF743FD2860286120B96D
:104240000C233B604FF0FF30D1E040236B61002333
:10425000099320238DF82930CDF80C803023DFF826
:10426000A8818DF82A304FF0010923469A4613F8A9
:10427000012B0AB1252AF9D1BAEB040B0BD05B460E
:10428000224629463846FFF76DFF013000F0AA802C
:10429000099A5A4409929AF80030002B00F0A28043
:1042A00000234FF0FF32CDE905230AF1010A049300
:1042B00007938DF853301A935446052214F8011BC6
:1042C0005148FBF7ADFF049AD8B9D00644BF20236C
:1042D0008DF85330110744BF2B238DF853309AF8D3
:1042E00000302A2B15D0079A544600204FF00A0CB4
:1042F000214611F8013B303B092B4ED9B0B1079252
:1043000014E0A0EB080309FA03F313430493A24655
:10431000D2E7039B191D1B680391002BBBBF5B42B7
:1043200042F0020207930793B8BF049223782E2B22
:104330000CD163782A2B35D1039B1A1D1B6803927D
:10434000002BB8BF4FF0FF3302340593DFF8BCA059
:10435000217803225046FBF763FF40B14023A0EBD6
:104360000A0003FA00F0049B03430134049314F899
:10437000011B27488DF828100622FBF751FF002863
:1043800038D0244B1BBB039B073323F007030833B0
:104390000393099B3344099367E70CFB02320C46F5
:1043A0000120A5E700230134059319464FF00A0CBC
:1043B000204610F8012B303A092A03D9002BC5D02A
:1043C0000591C3E70CFB012104460123F0E703AB91
:1043D00000932A46104B04A93846AFF30080421CD4
:1043E0000646D6D1AB895B063FF52CAF09981DB0C8
:1043F000BDE8F08F03AB00932A46074B04A938466B
:1044000000F0D2F9EBE700BF985400089E54000872
:10441000A254000800000000654100089368013BB9
:10442000002B10B4936007DA9469A34201DB0A29D8
:1044300002D110BC00F022BB1368581C1060197028
:10444000084610BC7047F8B506460F461446D51806
:10445000AC4201D1002007E014F8011B3A46304677
:10446000FFF7DCFF431CF3D1F8BD00002DE9F04F4E
:104470000D469DB014469846064618B183690BB99F
:10448000FFF7C4FD894B9D421BD175686B6ED90740
:1044900005D4AB899A0502D4A86DFFF755FEAB8908
:1044A0001B0701D52B69EBB92946304600F04AFBC2
:1044B000C0B16B6EDC070ED54FF0FF301DB0BDE80C
:1044C000F08F7B4B9D4201D1B568DFE7794B9D4270
:1044D00008BFF568DAE7AB899805EDD4A86DFFF75A
:1044E00034FEE9E70023099320238DF82930CDF825
:1044F0000C803023DFF8C0818DF82A304FF001099D
:1045000023469A4613F8012B0AB1252AF9D1BAEBB2
:10451000040B0BD05B46224629463046FFF793FF3B
:10452000013000F0AA80099A5A4409929AF80030A2
:10453000002B00F0A28000234FF0FF32CDE90523CD
:104540000AF1010A049307938DF853301A935446E5
:10455000052214F8011B5848FBF762FE049AD8B9EB
:10456000D10644BF20238DF85330130744BF2B23BB
:104570008DF853309AF800302A2B15D0079A5446FC
:1045800000204FF00A0C214611F8013B303B092B6B
:104590004ED9B0B1079214E0A0EB080309FA03F377
:1045A00013430493A246D2E7039B191D1B68039192
:1045B000002BBBBF5B4242F0020207930793B8BFD8
:1045C000049223782E2B0CD163782A2B35D1039BB0
:1045D0001A1D1B680392002BB8BF4FF0FF33023443
:1045E0000593DFF8D8A0217803225046FBF718FE88
:1045F00040B14023A0EB0A0003FA00F0049B034300
:104600000134049314F8011B2D488DF8281006225C
:10461000FBF706FE00283FD02A4B1BBB039B07334A
:1046200023F0070308330393099B3B44099367E78F
:104630000CFB02320C460120A5E700230134059350
:1046400019464FF00A0C204610F8012B303A092A7F
:1046500003D9002BC5D00591C3E70CFB012104460B
:104660000123F0E703AB00932A46174B04A9304619
:10467000AFF300800746781CD6D16B6ED90705D4FE
:10468000AB899A0502D4A86DFFF75FFDAB895B0685
:104690003FF512AF099811E703AB00932A460A4B86
:1046A00004A9304600F080F8E4E700BF5854000841
:1046B0007854000838540008985400089E540008A4
:1046C000A254000800000000474400082DE9F0470C
:1046D000164699468A680B69DDF820809342B8BF78
:1046E0001346336091F8432007460C460AB1013364
:1046F00033602368990642BF33680233336025680C
:1047000015F0060506D104F1190AE36832689B1A10
:10471000AB4226DC94F84320131E226818BF012305
:1047200092062BD404F1430249463846C047013073
:104730001ED02368E568326803F00603042B08BF27
:10474000AD1AA36822690CBF25EAE57500259342DE
:10475000C4BF9B1AED1800261A34B5421AD10020A6
:1047600008E00123524649463846C047013003D18C
:104770004FF0FF30BDE8F0870135C6E7E1185A1C5D
:10478000302081F84300224494F8451082F8431009
:104790000233C7E70123224649463846C047013065
:1047A000E6D00136D9E700002DE9FF470F7E0C9DCA
:1047B000782F914680460C469A4601F1430207D86D
:1047C000622F0AD8002F00F0D880582F00F0A38065
:1047D00004F1420584F842703AE0A7F16303152B17
:1047E000F6D801A151F823F04148000855480008C7
:1047F000D1470008D1470008D1470008D147000839
:1048000055480008D1470008D1470008D1470008A3
:10481000D14700086149000885480008434900085D
:10482000D1470008D147000883490008D147000854
:1048300085480008D1470008D14700084B490008C7
:104840002B681A1D1B682A6004F1420584F8423067
:104850000123A3E020682968060601F104030AD5B4
:104860000E682B60002E03DA2D23764284F8433045
:104870005E480A2319E00E682B6010F0400F18BF45
:1048800036B2EFE72B682068191D2960010601D5B3
:104890001E6802E04606FBD51E8854486F2F0CBFE9
:1048A00008230A23002184F843106568A560002DC1
:1048B000A2BF216821F0040121600EB9002D4DD066
:1048C0001546B6FBF3F103FB1167C75D05F8017DE3
:1048D0003746BB420E46F4D9082B0BD12368DE07BE
:1048E00008D5236961689942DEBF302305F8013C91
:1048F00005F1FF35521B2261CDF800A04B4603AAFB
:1049000021464046FFF7E2FE01304CD14FF0FF3028
:1049100004B0BDE8F087354881F845702968236800
:1049200051F8046B29601D0614D5DF0744BF43F01E
:10493000200323601EB9236823F020032360102383
:10494000B0E7236843F0200323607823284884F8E5
:104950004530E3E7590648BFB6B2E6E71546BBE780
:104960002B6826686169181D286035061B6801D50B
:10497000196002E07006FBD51980002323611546FB
:10498000BAE72B681A1D2A601D6862680021284654
:10499000FBF746FC08B1401B60606368236100239D
:1049A00084F84330A8E723692A4649464046D04761
:1049B0000130ABD023689B0713D4E068039B984277
:1049C000B8BF1846A4E70123324649464046D047BF
:1049D00001309BD00135E36803995B1AAB42F2DCEE
:1049E000EBE7002504F11906F5E700BFA95400081C
:1049F000BA54000810B50C46B1F90E1000F0A0FA38
:104A00000028ABBF636DA3891B1823F48053ACBF90
:104A10006365A38110BD2DE9F0411F468B89DB053D
:104A200005460C46164605D5B1F90E1002230022A4
:104A300000F0C4F9A389B4F90E1023F48053A381C4
:104A400032463B462846BDE8F04100F069B810B553
:104A50000C46B1F90E1000F0B1F9431CA38915BF43
:104A6000606523F4805343F48053A38118BFA3816E
:104A700010BDB1F90E1000F0D3B80000F8B50E4625
:104A80001446054618B183690BB9FFF7BFFA214BED
:104A90009C422BD16C68A369A360A3891A072FD508
:104AA00023696BB323692068C01A6369F6B2834235
:104AB000374604DC2146284600F044F930BBA368A1
:104AC000013BA36023685A1C22601E706369013099
:104AD000834204D0A389DB0706D50A2E04D12146E0
:104AE000284600F02FF988B93846F8BD0A4B9C4299
:104AF00001D1AC68CFE7094B9C4208BFEC68CAE71C
:104B00002146284600F01EF80028CBD04FF0FF3792
:104B1000EAE700BF585400087854000838540008E9
:104B200038B5074D04460846114600222A601A4649
:104B3000FBF7A8FD431C02D12B6803B1236038BDED
:104B400098010020324B70B51D6806460C4625B111
:104B5000AB6913B92846FFF759FA2E4B9C420FD187
:104B60006C68A389B4F90C2019072CD4DD0611D484
:104B70000923336042F04003A3814FF0FF303EE051
:104B8000254B9C4201D1AC68EBE7244B9C4208BF0B
:104B9000EC68E6E7580712D5616B41B104F14403B4
:104BA000994202D03046FFF721F800236363A389BE
:104BB00023F02403A3810023636023692360A38976
:104BC00043F00803A38123694BB9A38903F420733D
:104BD000B3F5007F03D02146304600F027F9A089C5
:104BE000B4F90C2010F001030AD00023A36063691C
:104BF0005B42A361236943B910F08000BAD170BD54
:104C0000810758BF6369A360F4E70020F7E700BF9E
:104C10003C0000205854000878540008385400081C
:104C200038B5064D0023044608462B60FBF738FDD7
:104C3000431C02D12B6803B1236038BD98010020CA
:104C40008A89F8B5054610070C4657D44B68002BE7
:104C500004DC0B6C002B01DC0020F8BDE66A002EA2
:104C6000FAD0002312F480522F682B6032D0606D8E
:104C7000A3895A0705D56368C01A636B0BB1236C0F
:104C8000C01A00230246E66A216A2846B047431C40
:104C9000A38906D129681D292CD8294ACA40D607DC
:104CA00028D500226260D9042269226004D5421C02
:104CB00001D12B6803B96065616B2F600029CBD0EF
:104CC00004F14403994202D02846FEF78FFF0020EA
:104CD0006063C2E7216A01232846B047411CC7D15F
:104CE0002B68002BC4D01D2B01D0162B01D12F60B7
:104CF000B2E7A38943F04003A381AEE70F69002F19
:104D0000AAD093070E6808BF4B690F6018BF002335
:104D1000F61B8B60002E9FDD216AD4F828C0334635
:104D20003A462846E047002806DCA38943F04003C2
:104D3000A3814FF0FF3090E70744361AEAE700BF3F
:104D40000100402038B50B6905460C4613B9002513
:104D5000284638BD18B183690BB9FFF757F9144BD2
:104D60009C421BD16C68B4F90C30002BEFD0626E02
:104D7000D00704D4990502D4A06DFFF7E5F92846C1
:104D80002146FFF75DFF636EDA070546E0D4A3898D
:104D90009B05DDD4A06DFFF7D8F9D9E7054B9C4200
:104DA00001D1AC68DFE7044B9C4208BFEC68DAE74E
:104DB00058540008785400083854000838B5074D96
:104DC00004460846114600222A601A46FBF772FC88
:104DD000431C02D12B6803B1236038BD9801002029
:104DE00070B50E46B1F90E10002996B014461D4656
:104DF00008DAB6F90C3000222A601A0610D44FF4F3
:104E000080630EE06A4600F0ADF80028F1DB019AFD
:104E100002F47042A2F500535A425A412A60EEE76A
:104E200040230020236016B070BD00008B8973B54D
:104E30009D0706460C4607D504F14703236023610E
:104E40000123636102B070BD01AB6A46FFF7C8FF82
:104E5000009905463046FEF733FF48B9B4F90C30E7
:104E60009A05EFD423F0030343F00203A381E3E7A1
:104E70000D4BB362A389206043F08003A381009BA4
:104E80006361019B20615BB1B4F90E10304600F004
:104E90007BF828B1A38923F0030343F00103A38126
:104EA000A0890543A581CDE7A53F0008884210B53C
:104EB00001EB020402D98442234607D8431EA142D3
:104EC00008D011F8012B03F8012FF8E7024401463E
:104ED0008A4200D110BD13F8014D02F8014DF7E7E9
:104EE0002DE9F041804614460E4621B9BDE8F04157
:104EF0001146FEF7E5BE2AB9FEF778FE254628469C
:104F0000BDE8F08100F050F88442074602D8B4EBC7
:104F1000500F12D821464046FEF7D2FE0546002823
:104F2000EDD0BC422246314628BF3A46FEF748FE45
:104F300031464046FEF75AFEE1E73546DFE700001E
:104F400038B5074D04460846114600222A601A4625
:104F5000FBF788FB431C02D12B6803B1236038BDEB
:104F60009801002038B5074D002304460846114635
:104F70002B60FBF798FB431C02D12B6803B1236025
:104F800038BD00BF9801002038B5064D0023044607
:104F900008462B60FBF78CFB431C02D12B6803B146
:104FA000236038BD9801002051F8043C181F002BE5
:104FB000BCBF0B58C0187047F8B500BFF8BC08BCA0
:104FC0009E467047F8B500BFF8BC08BC9E467047C7
:104FD00000000000000000000000000000000000D1
:104FE00000000000000000000000000000000000C1
:104FF0000100010100000000802500000100000008
:1050000000000000802500000100000000000000FA
:105010000000000000000000010203040607080968
:10502000000000000102030448414C2F53542F7329
:10503000746D333266342F53544D3332463478789E
:105040005F48414C5F4472697665722F5372632FDB
:1050500073746D3332663478785F68616C5F726345
:10506000632E630048414C2F53542F73746D3332B9
:1050700066342F53544D3332463478785F48414C70
:105080005F4472697665722F5372632F73746D3348
:1050900032663478785F68616C5F7263635F6578ED
:1050A0002E63000048414C2F53542F73746D3332DC
:1050B00066342F53544D3332463478785F48414C30
:1050C0005F4472697665722F5372632F73746D3308
:1050D00032663478785F68616C5F6770696F2E63E1
:1050E0000000000048414C2F53542F73746D33322D
:1050F00066342F53544D3332463478785F48414CF0
:105100005F4472697665722F5372632F73746D33C7
:1051100032663478785F68616C5F646D612E63001D
:1051200048414C2F53542F73746D333266342F53D0
:10513000544D3332463478785F48414C5F4472694D
:105140007665722F5372632F73746D3332663478C1
:10515000785F68616C5F636F727465782E630000BE
:1051600048414C2F53542F73746D333266342F5390
:10517000544D3332463478785F48414C5F4472690D
:105180007665722F5372632F73746D333266347881
:10519000785F68616C5F756172742E630000000057
:1051A000535953434C4B3A20256C7520487A0A00DA
:1051B00048434C4B3A202020256C7520487A0A0041
:1051C000415042313A202020256C7520487A0A004F
:1051D000415042323A202020256C7520487A0A003E
:1051E00052656365697665643A2025730D0A00008F
:1051F0004350553D256C752C2048434C4B3D256C48
:10520000752C20415042313D256C752C2041504277
:10521000323D256C750D0A0053797374656D2069F4
:105220006E697469616C697A65642E0D0A0000000C
:105230004672657175656E636965733A20435055B2
:105240003D256C752C2048434C4B3D256C752C201E
:10525000415042313D256C752C20415042323D2554
:105260006C750D0A00000000000000000000000046
:105270000000000000000000D13A0008D13A000808
:10528000D13A0008D13A0008D13A0008D13A0008D2
:10529000D13A0008D13A00080000000000000000E8
:1052A0006925000899260008992300086924000848
:1052B000DD25000875240008B1240008BD2400087D
:1052C000C12500087D250008000000000000000046
:1052D0000000000000000000D13A0008D13A0008A8
:1052E000D13A0008D13A0008000000000000000098
:1052F000C92B0008E92B0008DD2B0008DF2B000874
:10530000E12B0008E52B0008000000000000000071
:105310000000000000000000D13A0008D13A000867
:10532000D13A0008D13A0008D13A0008D13A000831
:10533000D13A0008D13A0008D13A0008D13A000821
:10534000D13A00080000000000000000A52E00086F
:10535000492E0008112C00083F2C00084F2C000893
:105360005F2C00086B2C0008772C0008832C0008A9
:10537000FD2C00086B2D00088F2C0008D92D00088B
:1053800000000000000000000D3000083D31000862
:10539000D9300008766563746F723A3A5F4D5F7278
:1053A00065616C6C6F635F696E7365727400000099
:1053B0000000000000000000D13A0008D13A0008C7
:1053C000D13A0008020000000002000002000000C4
:1053D00001000000010000000700000000030000C1
:1053E00002000000010000000100000007000000B2
:1053F00000C20100000001000005000001000000E3
:10540000000000000000000000000000000200009A
:105410000200000001000000010000000700000081
:105420000003000002000000010000000100000075
:105430000700000040000020000000000000000005
:10544000000000000000000000000000000000005C
:10545000000000000000000000000000000000004C
:10546000000000000000000000000000000000003C
:10547000000000000000000000000000000000002C
:10548000000000000000000000000000000000001C
:105490000000000000000000232D302B2000686C6D
:1054A0004C00656667454647003031323334353647
:1054B0003738394142434445460030313233343580
:0C54C000363738396162636465660000AD
:0854CC0024AEFF7F0100000087
:0C54D400F5010008C9290008553800083F
:0454E000D1010008EE
:1054E400000000000024F40001000000100000008F
:1054F400A0520008001001400000000000440040D9
:1055040000000000004800400000000000140140BA
:1055140000000000A0520008213B000840000020C9
:10552400000000005854000878540008385400085B
:105534000000000000000000000000000000000067
:105544000000000000000000000000000000000057
:105554000000000000000000000000000000000047
:105564000000000000000000000000000000000037
:105574000000000000000000000000000000000027
:0400000508003A3184
:00000001FF
