:020000040800F2
:10000000000002204D360008090500080B05000815
:100010000D0500080F05000811050008000000008C
:1000200000000000000000000000000013050008B0
:100030001505000800000000170500081905000854
:100040009D3600089D3600089D3600089D36000844
:100050009D3600089D3600089D3600089D36000834
:100060009D3600089D3600089D3600089D36000824
:100070009D3600089D3600089D3600089D36000814
:100080009D3600089D3600089D3600089D36000804
:100090009D3600089D3600089D3600089D360008F4
:1000A0009D3600089D3600089D3600089D360008E4
:1000B0009D3600089D3600089D3600089D360008D4
:1000C0009D3600089D3600089D3600089D360008C4
:1000D0009D3600089D3600089D3600089D360008B4
:1000E0009D3600089D3600089D3600089D360008A4
:1000F0009D3600089D3600089D3600089D36000894
:100100009D3600089D3600089D3600089D36000883
:100110009D3600089D3600089D3600089D36000873
:100120009D3600089D3600089D3600089D36000863
:100130009D36000800000000000000009D36000809
:100140009D3600089D3600089D3600089D36000843
:100150009D3600089D3600089D3600089D36000833
:100160009D3600089D3600089D3600089D36000823
:100170009D3600089D3600089D36000800000000EE
:10018000000000009D360008000000000000000094
:100190009D36000800000000000000009D360008A9
:1001A0000000000000000000000000009D36000874
:1001B0009D3600089D3600089D3600089D360008D3
:0401C0009D36000860
:1001C40010B5054C237833B9044B13B10448AFF38D
:1001D40000800123237010BD9C000020000000005B
:1001E400683A000808B5034B1BB103490348AFF351
:1001F400008008BD00000000A0000020683A00084C
:1002040053B94AB9002908BF00281CBF4FF0FF3179
:100214004FF0FF3000F074B9ADF1080C6DE904CE75
:1002240000F006F8DDF804E0DDE9022304B07047CD
:100234002DE9F047089E0D4604468846002B4DD113
:100244008A42944668D9B2FA82F252B101FA02F3B0
:10025400C2F1200120FA01F10CFA02FC41EA030880
:1002640094404FEA1C45210CB8FBF5FE1FFA8CF7AD
:1002740005FB1E8341EA03430EFB07F199420BD9A8
:100284001CEB03030EF1FF3080F01E81994240F213
:100294001B81AEF1020E63445B1AA4B2B3FBF5F00A
:1002A40005FB103344EA034400FB07F7A7420AD9CD
:1002B4001CEB040400F1FF3380F00881A74240F2F4
:1002C400058164440238E41B40EA0E4000211EB15B
:1002D400D4400023C6E90043BDE8F0878B4208D927
:1002E400002E00F0EE800021C6E900050846BDE8B6
:1002F400F087B3FA83F100294AD1AB4202D3824298
:1003040000F2F980841A65EB030301209846002E5D
:10031400E2D0C6E90048DFE702B9FFDEB2FA82F2B2
:10032400002A40F09180A1EB0C054FEA1C471FFA0C
:100334008CFE0121B5FBF7F307FB1350250C45EAAE
:1003440000450EFB03F0A84208D91CEB050503F198
:10035400FF3802D2A84200F2CB8043462D1AA4B241
:10036400B5FBF7F007FB105544EA05440EFB00FE0D
:10037400A64508D91CEB040400F1FF3502D2A645BA
:1003840000F2BB802846A4EB0E0440EA03409EE73B
:10039400C1F120078B4022FA07FC4CEA030C20FA37
:1003A40007F405FA01F31C43FD404FEA1C4900FA27
:1003B40001F3B5FBF9F8200C1FFA8CFE09FB185564
:1003C40040EA054508FB0EF0A84202FA01F20BD9F7
:1003D4001CEB050508F1FF3A80F08880A84240F242
:1003E4008580A8F1020865442D1AA4B2B5FBF9F082
:1003F40009FB105544EA054500FB0EFEAE4508D93D
:100404001CEB050500F1FF346CD2AE456AD9023805
:10041400654440EA0840A0FB0294A5EB0E05A54202
:10042400C846A64656D353D05EB1B3EB080265EB7B
:100434000E0505FA07F722FA01F3CD401F43C6E97A
:1004440000750021BDE8F087C2F1200320FA03F112
:100454000CFA02FC25FA03F395400D434FEA1C47BE
:100464001FFA8CFEB3FBF7F107FB11302B0C43EAA8
:10047400004301FB0EF0984204FA02F408D91CEB85
:10048400030301F1FF382FD298422DD90239634476
:100494001B1AADB2B3FBF7F007FB103345EA034573
:1004A40000FB0EF3AB4208D91CEB050500F1FF3845
:1004B40016D2AB4214D902386544ED1A40EA014120
:1004C40038E73146304607E78646E5E61846FAE659
:1004D4004B45A9D2B9EB020864EB0C0E0138A3E733
:1004E4004046EAE7204694E74146D1E7D0467BE719
:1004F400023B654432E7084609E76444023842E7B0
:10050400704700BFFEE7FEE7FEE7FEE7FEE7704741
:100514007047704708B501F0BBF908BD82B00021EF
:1005240000910B4B5A6C42F480425A645A6C02F4A8
:1005340080420092009A01911A6C42F080521A642F
:100544001B6C03F080530193019B02B0704700BF02
:100554000038024010B503460C4A0D490D480068A6
:1005640040B10C4800680344521A934206D8094A21
:10057400136010BD0748084C0460F2E703F0F0F87C
:100584000C2303604FF0FF30F3E700BF00000220AC
:1005940000040000B8000020200100200120704762
:1005A40008B503F0DDF8162303604FF0FF3008BDF3
:1005B40008B54FF0FF31FFF7F3FFFEE77047000087
:1005C400002800F0F78070B50D4604460368013B2F
:1005D4000E2B6BD80F2D6FD87A4B1B6803F00F03CB
:1005E400AB4208D2EBB2774A1370136803F00F03DF
:1005F400AB4240F0E180236813F0020F29D013F0DE
:10060400040F04D0704A936843F4E0539360236862
:1006140013F0080F04D06C4A936843F4604393606A
:10062400A3687BB1802B0DD0902B0BD0A02B09D0CD
:10063400B02B07D0C02B05D0D02B03D0E02B01D09A
:10064400F02B3FD1604A936823F0F003A1680B4379
:100654009360236813F0010F4ED06368032B37D8DF
:100664006368012B3AD09A1E012A3ED9564A126871
:1006740012F0020F00F0A28053498A6822F00302AC
:1006840013438B6001F010F906464F4B9B6803F04F
:100694000C036268B3EB820F2ED001F005F9801BC6
:1006A40041F288339842F0D9032076E04FF4177171
:1006B400464801F0F3FE8DE740F25D21434801F026
:1006C400EDFE89E74FF42071404801F0E7FEB9E7F9
:1006D40040F287213D4801F0E1FEC1E73A4A126841
:1006E40012F4003FC8D1012057E0374A126812F0D3
:1006F400007FC1D1012050E0324B1B6803F00F038F
:10070400AB4207D9EAB22F4B1A701B6803F00F03F0
:10071400AB4255D1236813F0040F14D0E3685BB1E6
:10072400B3F5805F08D0B3F5A05F05D0B3F5C05F23
:1007340002D0B3F5E05F31D1234A936823F4E05348
:10074400E1680B439360236813F0080F15D0236905
:100754005BB1B3F5805F08D0B3F5A05F05D0B3F506
:10076400C05F02D0B3F5E05F1ED1174A936823F44B
:100774006043216943EAC103936000F055F8124BCA
:100784009B68C3F30313124AD35CD840114B18601F
:10079400114B186801F03CF8002070BD40F2C521EF
:1007A4000A4801F07BFEC7E74FF43371074801F0B4
:1007B40075FEDAE7012070470120EEE70120ECE73F
:1007C4000120EAE7003C024000380240C03A000839
:1007D400A83A0008040000200C000020014B18680F
:1007E400704700BF0400002008B5FFF7F7FF044B73
:1007F4009B68C3F38223034AD35CD84008BD00BF7F
:1008040000380240B83A000808B5FFF7E7FF044B88
:100814009B68C3F34233034AD35CD84008BD00BF8E
:1008240000380240B83A000808B5444B9B6803F00E
:100834000C03082B07D00C2B43D0042B01D04048C9
:1008440008BD4048FCE73D4B5A6802F03F025B6834
:1008540013F4800F12D0394B5968C1F38811394809
:100864000023A1FB0001FFF7CBFC344B5B68C3F30F
:10087400014301335B00B0FBF3F0E1E72F4B596810
:10088400C1F3881C4FEA4C11B1EB0C006EEB0E0E59
:100894004FEA8E1343EA90638101091A63EB0E0356
:1008A400DB0043EA5173C90011EB0C0C43F1000364
:1008B400990200234FEA8C2041EA9C51FFF7A0FCE7
:1008C400D3E71E4B5A6802F03F025B6813F4800FB3
:1008D40010D01A4B5968C1F388111A480023A1FBA0
:1008E4000001FFF78DFC154B5B68C3F30273B0FB8B
:1008F400F3F0A5E7114B5968C1F3881C4FEA4C117A
:10090400B1EB0C006EEB0E0E4FEA8E1343EA9063CC
:100914008101091A63EB0E03DB0043EA5173C9003A
:1009240011EB0C0C43F10003990200234FEA8C20D5
:1009340041EA9C51FFF764FCD5E700BF0038024050
:100944000024F40040787D01002800F0968270B500
:1009540082B0044603680F2B3FD8236813F0010FBD
:1009640055D063682BB1B3F5803F02D0B3F5A02F07
:1009740039D18E4B9B6803F00C03042B3ED08B4B78
:100984009B6803F00C03082B33D0884B9B6803F05F
:100994000C030C2B6CD06368B3F5803F6ED0B3F5B9
:1009A400A02F71D0814B1A6822F480321A601A6821
:1009B40022F480221A606368002B6FD000F074FF69
:1009C40005467A4B1B6813F4003F20D100F06CFFFE
:1009D400401B6428F5D9032056E240F612517448AE
:1009E40001F05CFDB9E740F61751714801F056FD7E
:1009F400BFE76E4B5B6813F4800FC6D06B4B1B686C
:100A040013F4003F03D06368002B00F0388223689E
:100A140013F0020F73D0E368012B4ED823691F2B08
:100A240051D8624B9B6813F00C0F57D05F4B9B68F7
:100A340003F00C03082B4CD05C4B9B6803F00C03B5
:100A44000C2B79D0E368002B00F08580594B0122F0
:100A54001A6000F029FF0546544B1B6813F0020F7F
:100A640070D100F021FF401B0228F5D903200BE2CE
:100A74004E4B5B6813F4800F8DD0BFE74B4A13686D
:100A840043F48033136096E7484B1A6842F480229B
:100A94001A601A6842F480321A608CE700F004FF8E
:100AA4000546424B1B6813F4003FB0D000F0FCFE37
:100AB400401B6428F5D90320E6E140F64F513C4839
:100AC40001F0ECFCAAE74FF45561394801F0E6FC6B
:100AD400A7E7364B5B6813F4800FADD1334B1B682B
:100AE40013F0020F03D0E368012B40F0CA812F4AB0
:100AF400136823F0F803216943EAC10313602368F0
:100B040013F0080F58D06369012B36D86369002BA2
:100B140039D0284B0122C3F8802E00F0C5FE0546CB
:100B2400224B5B6F13F0020F46D100F0BDFE401B59
:100B34000228F5D90320A7E11C4B5B6813F4800F4E
:100B440080D1CBE7194A136823F0F803216943EAFB
:100B5400C1031360D3E7174B00221A6000F0A4FE10
:100B64000546124B1B6813F0020FC8D000F09CFE20
:100B7400401B0228F5D9032086E140F696510C4823
:100B840001F08CFCC2E70B4B0022C3F8802E00F06E
:100B94008BFE0546054B5B6F13F0020F0CD000F083
:100BA40083FE401B0228F5D903206DE10038024082
:100BB400FC3A000800004742236813F0040F7CD07D
:100BC400A368012B01D9052B38D1924B1B6C13F070
:100BD400805F39D1002301938E4B1A6C42F080520E
:100BE4001A641B6C03F080530193019B01258A4B0B
:100BF4001B6813F4807F29D0A368012B3AD0052BFE
:100C04003ED0844B1A6F22F001021A671A6F22F049
:100C140004021A67A368002B3CD000F045FE064688
:100C24007C4B1B6F13F0020F45D100F03DFE801B7F
:100C340041F288339842F3D9032025E140F6C251AA
:100C4400764801F02BFCC0E70025D0E7724A136810
:100C540043F48073136000F027FE06466E4B1B6856
:100C640013F4807FC8D100F01FFE801B0228F5D941
:100C7400032009E1674A136F43F001031367C9E7CF
:100C8400644B1A6F42F004021A671A6F42F00102B1
:100C94001A67BFE700F008FE06465E4B1B6F13F0B1
:100CA400020F08D000F000FE801B41F28833984206
:100CB400F3D90320E8E0002D40D1A369022B43D8E7
:100CC400A369002B00F0DF80524A926802F00C0204
:100CD400082A00F0A780022B40F08780E36913B153
:100CE400B3F5800F36D1236A3F2B39D8636A323B80
:100CF400B3F5BF7F3AD8A36A022B05D0042B03D0E7
:100D0400062B01D0082B37D1E36A023B0D2B39D8CF
:100D1400236B023B052B3BD8414B00221A6600F0A3
:100D2400C3FD05463B4B1B6813F0007F36D000F033
:100D3400BBFD401B0228F5D90320A5E0354A136CFE
:100D440023F080531364B8E740F60561334801F09B
:100D5400A5FBB5E740F60E61304801F09FFBC2E702
:100D640040F60F612D4801F099FBBFE74FF4616134
:100D74002A4801F093FBBEE740F61161274801F0D1
:100D84008DFBC1E740F61261244801F087FBBFE701
:100D940040F61361214801F081FBBDE7E369226A53
:100DA4001343626A43EA8213A26A5208013A43EA8D
:100DB4000243E26A43EA0263226B43EA0273154A7E
:100DC4005360174B01221A6600F06EFD0446114B66
:100DD4001B6813F0007F06D100F066FD001B02289B
:100DE400F5D9032050E000204EE00D4B00221A6696
:100DF40000F05AFD0446074B1B6813F0007F06D031
:100E040000F052FD001B0228F5D903203CE000202D
:100E14003AE000BF0038024000700040FC3A00088D
:100E240000004742012B31D01F4B5B6803F4800163
:100E3400E26991422CD103F03F02216A8A4229D10E
:100E4400616A47F6C0721A40B2EB811F24D103F4E1
:100E54004031A26A5208013AB1EB024F1ED103F0AD
:100E64007062E16AB2EB016F1AD103F0E043226BC6
:100E7400B3EB027F16D1002006E001207047012069
:100E840002E0012000E0002002B070BD0120FBE779
:100E94000120F9E70120F7E70120F5E70120F3E756
:100EA4000120F1E70120EFE7003802402DE9F0418D
:100EB40082B007460E46544B98421FD003F5806318
:100EC40098421BD003F58063984217D003F58063E2
:100ED400984213D003F5806398420FD003F58063E2
:100EE40098420BD003F58063984207D003F58063E2
:100EF400984203D0AC21454801F0D0FA33689AB245
:100F040012B11B0C1B041BB1AD21404801F0C6FA01
:100F14007368012B19D9112B17D0022B15D0122B62
:100F240013D0B3F5881F10D0B3F5041F0DD0B3F55B
:100F3400441F0AD0B3F5901F07D0B3F5081F04D09F
:100F4400B3F5481F01D0032B01D1002496E0AE2154
:100F54002E4801F0A3FAF8E7F368032B13D8BA6814
:100F6400610003238B4022EA0302F3688B4013439E
:100F7400BB607A6822EA05027368C3F30015A540D2
:100F840015437D608BE0C021204801F087FAE6E735
:100F9400D1211E4801F082FA8AE03369DBB1092BC2
:100FA40019D0012B17D0022B15D0032B13D0042BEF
:100FB40011D0052B0FD0062B0DD0072B0BD0082BEF
:100FC40009D00A2B07D00B2B05D00C2B03D00D2BEB
:100FD40001D00F2B10D1E208083257F8220004F098
:100FE400070399000F238B4020EA030033698B40E9
:100FF400034347F822306BE0DE21044801F04EFA47
:10100400E9E7062305E000BF000002403C3B00087E
:1010140000238B4003430232574941F82230574B97
:101024001A686FEA080322EA0801706810F4803F26
:1010340001D048EA0201514A1160526803EA0201F0
:10104400706810F4003F01D048EA02014B4A516035
:10105400926803EA0201706810F4801F01D048EA24
:101064000201464A9160D2681340716811F4001F6E
:1010740001D048EA0203414AD36001340F2C78D8E6
:101084000125A540336803EA050835EA0303F4D1D2
:10109400736803F00303013B012B7FF65DAF7368B4
:1010A40003F00303032B0DD0B368022B3FF670AF9C
:1010B400FA68610003238B4022EA0302B3688B4081
:1010C4001343FB60736803F00303022B3FF465AF23
:1010D4003A68610003238B4022EA0302736803F039
:1010E40003038B4013433B60736813F4403FC4D045
:1010F40000230193224B5A6C42F480425A645B6C85
:1011040003F480430193019BA208911C1A4B53F8EA
:10111400210004F0030399000F238B4020EA03000D
:10112400184B9F423FF474AF03F580639F4216D07F
:1011340003F580639F4214D003F580639F4212D06D
:1011440003F580639F4210D003F580639F420ED065
:1011540003F580639F423FF454AF072359E701230B
:1011640057E7022355E7032353E7042351E70523F5
:101174004FE702B0BDE8F08100380140003C014077
:10118400003802400000024038B504460D4621B143
:1011940023691D4207D0012038BD4FF4BE710348B6
:1011A40001F07CF9F4E70020F6E700BF3C3B0008BF
:1011B40070B5054614460E4621B1012C08D86CB111
:1011C400AE6170BD40F29D11064801F067F9F4E785
:1011D4004FF4CF71034801F061F9F0E73604AE61D2
:1011E400EFE700BF3C3B000830B405682C6824F4EA
:1011F40080242C60046863608368402B05D00368F6
:1012040099600368DA6030BC704703689A600368C9
:10121400D960F8E710B40368D9B210390B4AA2FBBD
:10122400014212090A4CA25CC2655F2908D923F461
:101234007F7323F0030304338365806D10BC704710
:1012440023F47F7323F003038365F6E7ABAAAAAA0A
:10125400B83B0008836A826992B9012B0AD0022B39
:1012640002D00BB100207047C36A13F0807F28D1ED
:1012740000207047C36AB3F1C07F24D000207047B8
:10128400B2F5005F09D0022B25D9032B25D1C36AFF
:1012940013F0807F23D100207047032B03D8DFE8AD
:1012A40003F01404140A00207047C36A13F0807F0B
:1012B4000DD100207047C36AB3F1C07F09D000206C
:1012C40070470120704701207047012070470120BA
:1012D40070470120704701207047002070470120AB
:1012E4007047000070B5044600F0DEFA002C00F0F0
:1012F4003E8105462368954A934231D01832934281
:101304002ED0183293422BD01832934228D0183260
:10131400934225D01832934222D0183293421FD0E0
:10132400183293421CD002F55672934218D01832E8
:10133400934215D01832934212D0183293420FD0F0
:10134400183293420CD01832934209D01832934287
:1013540006D01832934203D0B8217D4801F09EF89C
:101364006368A3B1B3F1007F11D0B3F1806F0ED0E5
:10137400B3F1C06F0BD0B3F1006F08D0B3F1206F9D
:1013840005D0B3F1406F02D0B3F1606F6DD1A368A3
:101394001BB1402B01D0802B6CD1E368B3F5007FE7
:1013A40001D0002B6BD12369B3F5806F01D0002BE2
:1013B4006AD163692BB1B3F5006F02D0B3F5805FD6
:1013C40067D1A3692BB1B3F5005F02D0B3F5804FA9
:1013D40064D1E36923B1B3F5807F01D0202B62D1BE
:1013E400236A43B1B3F5803F05D0B3F5003F02D083
:1013F400B3F5403F5CD1636A0BB1042B5DD1636AE2
:10140400C3B1A36A032B5DD8E36A43B1B3F5000FFC
:1014140005D0B3F1807F02D0B3F1C07F57D1236BE5
:1014240043B1B3F5001F05D0B3F5800F02D0B3F577
:10143400C00F51D1022384F83530002384F83430AE
:101444002268136823F00103136023681A6812F0FA
:10145400010F46D000F028FA401B0528F5D92023B7
:101464006365032084F8350070BDB921384801F064
:1014740015F88CE7BA21364801F010F88DE7BB2146
:10148400334801F00BF88EE7BC21314801F006F82F
:101494008FE7BD212E4801F001F892E7BE212C48C8
:1014A40000F0FCFF95E7BF21294800F0F7FF97E71C
:1014B400C021274800F0F2FF9DE7C121244800F035
:1014C400EDFF9CE7C621224800F0E8FF9CE7C72116
:1014D4001F4800F0E3FFA2E7C8211D4800F0DEFF2B
:1014E400A8E71A681B4810406168A2680A43E168CB
:1014F4000A4321690A4361690A43A1690A43E1690C
:101504000A43216A0A430243616A042924D01A6007
:101514002668756925F00705636A1D43042B07D106
:10152400A36A1D43E36A1BB12046FFF793FEC0B9CB
:1015340075612046FFF76EFEE26D3F2393408360A2
:1015440000206065012384F835308DE71060024087
:101554007C3B00083F8010F0E16A206B01430A43A2
:10156400D5E740236365012084F835007CE701203A
:101574007AE700BF2DE9F04104460E4617461D46A2
:10158400D0F858805A1E4FF6FE739A4211D894F838
:101594003430012B36D0012384F8343094F83530BC
:1015A400DBB2012B0BD0002384F834300220BDE8D9
:1015B400F0814FF4E671144800F070FFE7E702236E
:1015C40084F83530002363652B463A46314620467D
:1015D400FFF70AFEE26D3F239340C8F80830226803
:1015E400136843F016031360236C23B12268136855
:1015F40043F0080313602268136843F00103136087
:101604000020D4E70220D2E77C3B000830B583B049
:101614000546B0F5404F05D0B0F5004F02D0B0F507
:10162400804F22D1002300932D4B1A6C42F080523C
:101634001A641A6C02F080520092009A9B6803F0BC
:101644000C03082B48D0274B00221A6600F02CF913
:101654000446234B1B6813F0007F0CD000F024F9E0
:10166400031B022BF5D9032037E04FF493711E4876
:1016740000F014FFD6E7002301931C4A136823F4F7
:1016840040431D431560136803F440430193019BD9
:10169400144B01221A6600F007F90446104B1B682C
:1016A40013F0007F06D100F0FFF8001B0228F5D9E3
:1016B400032012E000F0F8F804460C4B5B6813F4C6
:1016C400804F07D100F0F0F8001BB0F57A7FF4D911
:1016D400032002E0002000E0012003B030BD00BF81
:1016E4000038024000004742C03B00080070004040
:1016F40010B50446C31E042B0FD80A4AD36823F43A
:10170400E0631B041B0C240204F4E064234343F051
:10171400BF6343F40033D36010BD9221024800F04C
:10172400BDFEEAE700ED00E0003C000870B50546A8
:101734000C4616460F2A25D80F2C28D81B4BDB68DD
:10174400C3F30223C3F10701042928BF04211A1D8E
:10175400062A21D9033B4FF0FF3202FA01F124EAB1
:1017640001049C4002FA03F326EA03063443002DE5
:1017740014DB2401E4B205F1604505F5614585F803
:10178400004370BDAA210A4800F088FED4E7AB21CB
:10179400074800F083FED1E70023DCE705F00F05DE
:1017A4002401E4B2034B5C55EBE700BF00ED00E01D
:1017B400003C000814ED00E010B5041E0ADB002C08
:1017C40007DB04F01F02640901239340044A42F832
:1017D400243010BDBE21034800F060FEEFE700BFD7
:1017E40000E100E0003C00080138B0F1807F0BD23A
:1017F4004FF0E0235861054AF02182F823100020BD
:10180400986107221A6170470120704700ED00E0DB
:1018140010B504460E4B18784FF47A73B3FBF0F30B
:101824000C4A1068B0FBF3F0FFF7DEFF68B90F2C29
:1018340001D901200AE0002221464FF0FF30FFF7D2
:1018440075FF054B1C60002000E0012010BD00BFA7
:1018540008000020040000200C00002008B50B4BF9
:101864001A6842F400721A601A6842F480621A60BC
:101874001A6842F480721A600320FFF739FF0F20C0
:10188400FFF7C6FFFEF74AFE002008BD003C0240F9
:10189400034A1168034B1B780B441360704700BF65
:1018A400BC00002008000020014B1868704700BFEE
:1018B400BC00002038B50446FFF7F6FF0546B4F136
:1018C400FF3F02D0044B1B781C44FFF7EDFF401B85
:1018D400A042FAD338BD00BF08000020026802F11C
:1018E4000C0353E8003F23F0C0030C3242E80031FC
:1018F4000029F3D1202380F83D307047026802F1BB
:101904000C0353E8003F23F490730C3242E8003197
:101914000029F3D1026802F1140353E8003F23F0D5
:101924000103143242E800310029F3D1036B012B87
:1019340005D0202380F83E300023036370470268FB
:1019440002F10C0353E8003F23F010030C3242E889
:1019540000310029F3D1ECE738B504464268574B0F
:101964009A423FD8E36813B1B3F5005F40D12369CD
:101974002BB1B3F5806F02D0B3F5C06F3ED163696C
:101984004FF6F372134200D123B940F659614C4823
:1019940000F084FD2268136923F44053E1680B438B
:1019A4001361A3682269134362691343E2691A430A
:1019B4002168CB6823F4164323F00C031343CB6054
:1019C4002268536923F44073A1690B43536123686C
:1019D4003C4A934218D002F58062934214D0FEF739
:1019E40003FF13E040F65661354800F057FDB9E7B0
:1019F40040F65761324800F051FDB8E740F65861AF
:101A04002F4800F04BFDBAE7FEF7FEFEE369B3F59D
:101A1400004F29D00021031849411B1841F100014E
:101A2400C90041EA5371DB00181863684FEA830266
:101A34004FEA937341F10001FEF7E2FB224DA5FB4F
:101A440000325109642303FB11031B013233A5FB4C
:101A540003235B0903F0F00202EB011203F00F030E
:101A6400216813448B6038BD0023021843EB030143
:101A7400121841F10001C90041EA5271D200101854
:101A840041F10001626892185B41FEF7B9FB0E4D0B
:101A9400A5FB00325109642303FB1103DB0032333D
:101AA400A5FB03235B095A0002F4F87202EB01124E
:101AB40003F00703216813448B60D4E7A037A00028
:101AC400403C0008001001401F85EB512DE9F8430C
:101AD40005460F4616469946DDF820802C68246892
:101AE40037EA04030CBF4FF0010C4FF0000CB4456F
:101AF4002DD1B8F1FF3FF1D0B8F1000F05D0FFF7B9
:101B0400D3FEA0EB09004045E8D92A6802F10C0392
:101B140053E8003F23F4D0730C3242E8003100292B
:101B2400F3D12A6802F1140353E8003F23F00103C0
:101B3400143242E800310029F3D1202385F83D30E6
:101B440085F83E30002385F83C30032000E0002077
:101B5400BDE8F88370470000002800F0938010B5BA
:101B640004468369002B5DD00368474A934218D02A
:101B7400A2F54C42934214D002F58062934210D0F5
:101B840002F5806293420CD002F58062934208D041
:101B940002F54442934204D04FF4B9713B4800F03B
:101BA4007DFCA36943B1B3F5807F05D0B3F5007F15
:101BB40002D0B3F5407F2FD1A36813B1B3F5805F92
:101BC4004ED1E36913B1B3F5004F4FD194F83D30D2
:101BD400002B51D0242384F83D302268D36823F4A9
:101BE4000053D3602046FFF7B7FE2268136923F43D
:101BF400904313612268536923F02A0353612268D6
:101C0400D36843F40053D36000202064202384F875
:101C14003D3084F83E3010BD40F273111B4800F093
:101C24003DFCC9E70368184A9342C5D0A2F54C426B
:101C34009342C1D002F580629342BDD002F5806226
:101C44009342B9D002F580629342B5D002F5444282
:101C54009342B1D040F277110C4800F01FFCABE77F
:101C640040F27911094800F019FCAAE74FF4BD715C
:101C7400064800F013FCA9E784F83C302046FFF73F
:101C840069FFA7E70120704700100140403C0008AD
:101C94002DE9F04182B01E4690F83D30DBB2202B96
:101CA40054D104460D469046002953D0002A53D0FF
:101CB40090F83C30012B51D0012380F83C300023B4
:101CC4000364212380F83D30FFF7EEFD0746A4F8B6
:101CD4002480A4F82680A368B3F5805F05D04FF074
:101CE4000008002384F83C3012E0236913B14FF05C
:101CF4000008F6E7A8460025F3E738F8023B226817
:101D0400C3F308035360E28C92B2013A92B2E284C4
:101D1400E38C9BB273B100963B460022802120469F
:101D2400FFF7D4FEE0B9002DE7D015F8012B2368A6
:101D34005A60E8E700963B46002240212046FFF720
:101D4400C5FE78B9202384F83D3000E0022002B0BB
:101D5400BDE8F0810120FAE70120F8E70220F6E768
:101D64000320F4E70320F2E72DE9F04182B01E4698
:101D740090F83E30DBB2202B5CD104460D469046F1
:101D840000295BD0002A5BD090F83C30012B59D05D
:101D9400012380F83C3000230364222280F83E2093
:101DA4000363FFF781FD0746A4F82C80A4F82E8076
:101DB400A368B3F5805F05D04FF00008002384F8D2
:101DC4003C3017E0236913B14FF00008F6E7A8464A
:101DD4000025F3E723685B68C3F3080328F8023B94
:101DE40003E023685B682B700135E28D92B2013AFF
:101DF40092B2E285E38D9BB2BBB100963B460022D2
:101E040020212046FFF762FEF0B9002DE2D0A3683E
:101E1400B3F5805FE5D013B92369002BE1D02368C3
:101E24005B6803F07F032B70DEE7202384F83E30E9
:101E3400002000E0022002B0BDE8F0810120FAE7B2
:101E44000120F8E70220F6E70320F4E790F83D309C
:101E5400DBB2202B19D1D1B1DAB190F83C30012B8F
:101E640019D0012380F83C3001628284C2840023AB
:101E74000364212280F83D2080F83C300168CA6860
:101E840042F08002CA601846704702207047012061
:101E940070470120704702207047000038B590F861
:101EA4003D30DBB2202B38D10446002937D0002A3C
:101EB40037D090F83C30012B35D0012380F83C30EA
:101EC40001628284C28400250564212380F83D30A8
:101ED400436B1648D863636B15481864636B1548E5
:101EE400D864636B1D6520681346021D606BFFF7A1
:101EF40041FB23686FF040021A6084F83C5022686A
:101F040002F1140353E8003F43F08003143242E823
:101F140000310029F3D1002000E0022038BD012067
:101F2400FCE70120FAE70220F8E700BF3F1F0008A2
:101F34008D1F00089D1F0008704708B50346806B7D
:101F44001B681B6813F4807F1AD10023C3840268C2
:101F540002F1140353E8003F23F08003143242E8F3
:101F640000310029F3D1026802F10C0353E8003F69
:101F740043F040030C3242E800310029F3D108BD9C
:101F8400FFF7DAFFFBE7704708B5806BFFF7FBFF4D
:101F940008BD70477047704710B5846B23685A6951
:101FA40094F83D30DBB2212B10D023685A6902F03B
:101FB400400294F83E30DBB2222B11D0236C43F064
:101FC400100323642046FFF7E6FF10BD02F08002F1
:101FD400002AEAD00023E3842046FFF77FFCE4E7ED
:101FE400002AEBD00023E3852046FFF787FCE5E7D2
:101FF400704708B5806B036B012B02D0FFF7CAFF53
:1020040008BD818D4908FFF7F3FFF9E708B50346DA
:10201400806B1B681B6813F4807F2BD10023C3855E
:10202400026802F10C0353E8003F23F480730C327E
:1020340042E800310029F3D1026802F1140353E8A5
:10204400003F23F00103143242E800310029F3D1A8
:10205400026802F1140353E8003F23F040031432F2
:1020640042E800310029F3D1202380F83E30036B8D
:10207400012B05D0036B012B0FD0FFF78AFF08BD9E
:10208400026802F10C0353E8003F23F010030C3202
:1020940042E800310029F3D1ECE7818DFFF7A8FF76
:1020A400EDE7034681628285C285002018642222FE
:1020B40083F83E2083F83C001968CA6842F48072B1
:1020C400CA6019684A6942F001024A611A68D36811
:1020D40043F02003D360704708B590F83E30DBB27C
:1020E400202B0DD171B17AB190F83C30012B0DD079
:1020F400012380F83C3000230363FFF7D2FF00E0A4
:10210400022008BD0120FCE70120FAE70220F8E7DD
:1021140030B583B004461346816282850025056488
:10212400222280F83E20826B1F48D063A26B1F4896
:102134001064A26B1E48D064A26B156520680A4621
:10214400011DA06BFFF716FA019523681A68019226
:102154005B680193019B84F83C50226802F10C03F4
:1021640053E8003F43F480730C3242E80031002905
:10217400F3D1226802F1140353E8003F43F0010352
:10218400143242E800310029F3D1226802F1140329
:1021940053E8003F43F04003143242E80031002981
:1021A400F3D1002003B030BD11200008F71F000850
:1021B4009D1F000808B590F83E30DBB2202B0DD1EE
:1021C40071B17AB190F83C30012B0DD0012380F825
:1021D4003C3000230363FFF79BFF00E0022008BDAF
:1021E4000120FCE70120FAE70220F8E710B594B0DB
:1021F4000DF1280C0C4C0FCCACE80F000FCCACE864
:102204000F0094E803008CE8030001238DF82830C4
:102214000AA9684600F04FF8684600F0ADF800B926
:10222400FEE714B010BD00BF803A000810B582B0BC
:10223400ADF804000C46019800F060FE10B90020CF
:1022440002B010BD214601F0EAF90120F8E700B51B
:1022540083B000F01BF9FFF7C9FF00F0F7FF00217E
:102264008DF8041005238DF805300198FFF7DEFF83
:1022740007E0012101F0D3F90CE04FF4FA7000F00B
:1022840009F9BDF80430ADF80030009800F036FECE
:102294000028EED14FF4FA7000F0FCF8BDF80430D9
:1022A400ADF80030009800F029FE0028E5D00021A8
:1022B40001F0B5F9E1E710B5044686468C46BCE862
:1022C4000F00AEE80F00BCE80F00AEE80F009CE87A
:1022D40003008EE80300204610BD402825D012D804
:1022E400102824D8022824D302380E2809D8DFE87D
:1022F40000F0220816080808180808080808080842
:102304001A0000207047B0F5807F16D0B0F5007F2A
:1023140001D1F0207047802811D1D020704790203F
:102324007047A0207047B0207047C020704700203D
:1023340070470020704780207047E02070470020DD
:10234400704702380E2809D8DFE800F013080A089D
:1023540008080D080808080808081000002070473D
:102364004FF4A05070474FF4C05070474FF4E05002
:1023740070474FF48050704730B595B0044600253F
:102384000195414B1A6C42F080521A641B6C03F0A5
:1023940080530193019B4FF44040FFF737F93422F7
:1023A400294607A801F016FA0295039504950595A8
:1023B4000695072302930F2302932378012B26D03B
:1023C400022B31D0B3B1208CFFF787FF049094F82F
:1023D4002200FFF7B6FF059094F82300FFF7B1FF42
:1023E4000690616A02A8FEF7EBF800284AD10120A2
:1023F40015B030BD0223079301230A9310230B93D6
:1024040007A8FEF7A1FA002836D10395DBE70123DC
:1024140007934FF48033089307A8FEF795FA002832
:102424002CD101230393CEE72379E3B1012307934E
:102434004FF48033089302230D932379D3B14FF4DF
:1024440080030E93E3680F932369109363691193D8
:10245400A3691293E369139307A8FEF775FA78B991
:1024640002230393AFE70223079301230A93102364
:102474000B93E0E70023E4E70020B9E70020B7E787
:102484000020B5E70020B3E70038024008B5FFF7A5
:10249400E5F908BD08B5FFF70DFA08BDFEE7000031
:1024A400024A0260024A0260704700BFA83C00086A
:1024B400883C000870477047002070470020704730
:1024C40010B50446FFF7ECFF0821204601F0EAF8B6
:1024D400204610BD024A0260024A02604160704711
:1024E400883C0008A83C000870B504460B4600F57B
:1024F400907C07C98CE807001B68A3600023E36095
:10250400236163610C22A261E3612362251D2846D5
:10251400FFF722FBD4F80831B3B1D4F81031E364E7
:1025240040232365002363654FF48062A265E3655D
:1025340023666366A366E36604F148063046FEF745
:10254400D1FEA663C4F88050D4F80C3113B3D4F888
:102554001431C4F8AC300023C4F8B030C4F8B4303B
:102564004FF48062C4F8B820C4F8BC30C4F8C0305A
:102574004FF48072C4F8C4204FF40032C4F8C82069
:10258400C4F8CC3004F1A8063046FEF7ABFEE6638F
:10259400C4F8E05070BD08B54FF0FF3392B2043078
:1025A400FFF776FB08BD08B54FF0FF3392B2043055
:1025B400FFF7DAFB08BD08B592B20430FFF746FC1A
:1025C40008BD08B592B20430FFF786FD08BD08B512
:1025D40092B20430FFF762FC08BD08B592B2043031
:1025E400FFF7E8FD08BD30B587B00A4600F5A873CB
:1025F40000240494EC46D1E900018CE803000DF1B9
:10260400080E9EE8030082E803009CE803008EE8BD
:102614000300956894600495D4680599D160059485
:102624009EE803008CE8030093E803008EE80300AF
:102634009CE8030083E803009A6804929D60D968CB
:102644000591DC6022B11346032271467046984717
:1026540007B030BD30B587B00A4600F59873002442
:102664000494EC46D1E900018CE803000DF1080E56
:102674009EE8030082E803009CE803008EE8030060
:10268400956894600495D4680599D16005949EE892
:1026940003008CE8030093E803008EE803009CE841
:1026A400030083E803009A6804929D60D968059149
:1026B400DC6022B11346032271467046984707B086
:1026C40030BD30B587B00A4600F5A07300240494E9
:1026D400EC46D1E900018CE803000DF1080E9EE8F8
:1026E400030082E803009CE803008EE80300956879
:1026F40094600495D4680599D16005949EE803001C
:102704008CE8030093E803008EE803009CE80300D0
:1027140083E803009A6804929D60D9680591DC609F
:1027240022B11346032271467046984707B030BD64
:1027340030B587B00A4600F5B07300240494EC4623
:10274400D1E900018CE803000DF1080E9EE80300B6
:1027540082E803009CE803008EE803009568946017
:102764000495D4680599D16005949EE803008CE82B
:10277400030093E803008EE803009CE8030083E869
:1027840003009A6804929D60D9680591DC6022B1C7
:102794001346032271467046984707B030BD0000C7
:1027A40010B50446134B036000F5B070836813B191
:1027B40003220146984704F5A870836813B10322E5
:1027C4000146984704F5A070836813B103220146BB
:1027D400984704F59870836813B10322014698471B
:1027E400054B23604FF4B871204600F05BFF204690
:1027F40010BD00BF043D0008C83C000810B50446E5
:10280400104B036000F5B070836813B103220146D6
:10281400984704F5A870836813B1032201469847CA
:1028240004F5A070836813B103220146984704F5A8
:102834009870836813B1032201469847024B2360C2
:10284400204610BD043D0008C83C0008054B064A5C
:10285400934206D01A68824201D00833F7E75960E0
:102864007047704710000020300000202DE9F84325
:1028740004460D4616461F46DDF82080264B0360AD
:10288400264B40F8043B4422002100F0A3FF4FF004
:1028940060094A46002104F1480000F09BFF4A46C3
:1028A400002104F1A80000F095FFC4F80861C4F801
:1028B4000C81C4F81071099BC4F814310023C4F8C6
:1028C4001831C4F81C314FF4E132C4F82021C4F8A3
:1028D400243184F8283184F8293184F82A3184F8A1
:1028E4002B3184F82C3184F82D3184F82E3184F87E
:1028F4002F31C4F83831C4F84831C4F85831C4F819
:1029040068316560A664C4F8A88021462846FFF7AC
:102914009DFF2046BDE8F883C83C0008043D00083C
:10292400024A0260024A0260704700BF5C3D000830
:10293400403D000830B587B005460C46002301939E
:1029440002930393049305934A78012393409BB223
:1029540001934B68022B1FD0032B1FD0012B00D0F7
:1029640000230293A368012B1AD0022B1AD10393DC
:10297400E368022B18D0032B18D0012B00D00023BE
:102984000493237C05932378013B052B10D8DFE8BF
:1029940003F01B11131517190223E2E70323E0E7E1
:1029A4000123E4E70023E2E70223E9E70323E7E75F
:1029B4000C480AE00C4808E00C4806E00C4804E027
:1029C4000C4802E00C4800E00C4801A9FEF76EFA3E
:1029D40005F1040C0FCCACE80F002368CCF80030F0
:1029E40007B030BD0000024000080240000C024065
:1029F400001002400014024000180240000402408B
:102A040010B50446044B0360044B0360182100F026
:102A140049FE204610BD00BF5C3D0008403D000853
:102A240008B503460279013A052A04D8DFE802F022
:102A34000F0507090B0D0C480AE00C4808E00C4888
:102A440006E00C4804E00C4802E00C4800E00C48A6
:102A54005B790121994089B2FEF796FB012814BFE6
:102A64000020012008BD00BF000002400008024011
:102A7400000C024000100240001402400018024002
:102A84000004024010B503460C460279013A052AB7
:102A940004D8DFE802F00F0507090B0D0B480AE024
:102AA4000B4808E00B4806E00B4804E00B4802E042
:102AB4000B4800E00B48597901238B4099B21CB1B3
:102AC4000122FEF775FB10BD0022FAE70000024068
:102AD40000080240000C02400010024000140240B2
:102AE400001802400004024088B0062911D8DFE82B
:102AF40001F004121F2C39465300002301932D4B7F
:102B04001A6B42F001021A631B6B03F00103019379
:102B1400019B08B0704700230293264B1A6B42F0C6
:102B240002021A631B6B03F002030293029BF0E799
:102B3400002303931F4B1A6B42F004021A631B6BAE
:102B440003F004030393039BE3E700230493194B6B
:102B54001A6B42F008021A631B6B03F00803049318
:102B6400049BD6E700230593124B1A6B42F0100224
:102B74001A631B6B03F010030593059BC9E700233D
:102B840006930C4B1A6B42F020021A631B6B03F082
:102B940020030693069BBCE700230793054B1A6B9F
:102BA40042F040021A631B6B03F040030793079B38
:102BB400AFE700BF0038024082B0ADF80410012036
:102BC40002B07047013905290DD8DFE801F0030E82
:102BD400050C0C0A064800E00648003818BF01201E
:102BE40070470548F9E70020F7E70448F5E700BF18
:102BF400001001400048004000140140004400401F
:102C040082B0ADF80420012002B0704784B00139CD
:102C1400052910D8DFE801F003111E0F0F2B002344
:102C24000093194B5A6C42F010025A645B6C03F027
:102C340010030093009B04B0704700230193124BD0
:102C44001A6C42F400321A641B6C03F400330193CF
:102C5400019BF0E7002302930B4B1A6C42F4802291
:102C64001A641B6C03F480230293029BE3E70023A2
:102C74000393054B5A6C42F020025A645B6C03F0D8
:102C840020030393039BD6E700380240024A026004
:102C9400024A0260704700BFC43D0008943D00082A
:102CA400012800D0704738B54FF6FF73994200D021
:102CB40038BD0D4800240460446084600B4D2A46EE
:102CC4000B4900F0EAFC0B480460446084602A4627
:102CD400094900F0E2FC09480460446084602A4623
:102CE400074900F0DAFCE3E7F000002000000020D0
:102CF400452E0008FC000020832E0008E40000207C
:102D0400C12E000810B582B0002401940D4B1A6B3B
:102D140042F400121A631B6B03F400130193019B2A
:102D2400224606211020FEF701FD1020FEF744FD87
:102D3400224606211120FEF7F9FC1120FEF73CFD86
:102D440002B010BD00380240022900D0704708B517
:102D5400002205212620FEF7E9FC2620FEF72CFDA3
:102D640008BD000000B587B00023019302930393CC
:102D7400049305934A78012393409BB201934B68D3
:102D8400022B1FD0032B1FD0012B00D00023029352
:102D94008B68012B1AD0022B1AD10393CB68022B18
:102DA40018D0032B18D0012B00D0002304930B7CE4
:102DB40005930B78013B052B10D8DFE803F01B11BA
:102DC400131517190223E2E70323E0E70123E4E7DD
:102DD4000023E2E70223E9E70323E7E709480AE0DF
:102DE400094808E0094806E0094804E0094802E007
:102DF400094800E0094801A9FEF758F807B05DF852
:102E040004FB00BF0000024000080240000C024026
:102E14000010024000140240001802400004024066
:102E240010B50446044B0360044B0360042100F016
:102E340039FC204610BD00BFC43D0008943D000885
:102E4400F8B507460468466809E0284600F0BEFB6A
:102E54001C21284600F026FC002344F8043BA6422B
:102E640005D02568002DF7D0002DEED1F4E73868A1
:102E7400B968091A08B100F015FC3846F8BDF8B570
:102E840007460468466809E0284600F020FB3C2118
:102E9400284600F007FC002344F8043BA64205D072
:102EA4002568002DF7D0002DEED1F4E73868B96815
:102EB400091A08B100F0F6FB3846F8BDF8B5074624
:102EC4000468466809E0284600F0DAFA0421284636
:102ED40000F0E8FB002344F8043BA64205D0256833
:102EE400002DF7D0002DEED1F4E73868B968091A3F
:102EF40008B100F0D7FB3846F8BD000030B58BB000
:102F0400ADF80400134A1368556800E0231D1C46FD
:102F1400AB421CD019680029F8D005A800F085FB45
:102F2400BDF81430ADF80C30BDF80430ADF81030F5
:102F34009DF80C209DF810309A42E7D19DF80D20A1
:102F44009DF811309A42E1D120680BB030BD0020C9
:102F5400FBE700BFF00000202DE9F04F83B00646E8
:102F6400154601230093436802689A1A6FF0604083
:102F7400B0EBA20F24D09710019727B301AA1268CF
:102F8400174432689B1AB7EBA30F1ED3B7F1005F47
:102F94001ED2D6F800A0D6F804800C46A1EB0A0B8A
:102FA400DFB1B7F1005F16D2B80000F08CFB8146A8
:102FB4002B6849F80B3000232B604D46534616E02E
:102FC4001A4800F097FB6A46D9E76FF06047E0E7DC
:102FD4006FF06047DDE700F08AFB4FF00009E7E798
:102FE4001A6845F8042B00221A6043F8042B9C420B
:102FF400F6D1043506E0236845F8043B002323603A
:1030040044F8043BA045F6D1B168A1EB0A01BAF13A
:10301400000F02D0504600F045FBC6F800907560E2
:1030240009EB8707B76003B0BDE8F08F703D000877
:1030340008B50A4641688368994207D013680B6053
:103044000023136043680433436008BDFFF784FF23
:10305400FBE700002DE9F04F83B006461546012337
:103064000093436802689A1A6FF06040B0EBA20FB5
:1030740024D09710019727B301AA12681744326825
:103084009B1AB7EBA30F1ED3B7F1005F1ED2D6F87D
:1030940000A0D6F804800C46A1EB0A0BDFB1B7F10F
:1030A400005F16D2B80000F00EFB81462B6849F889
:1030B4000B3000232B604D46534616E01A4800F0AF
:1030C40019FB6A46D9E76FF06047E0E76FF06047A5
:1030D400DDE700F00CFB4FF00009E7E71A6845F85C
:1030E400042B00221A6043F8042B9C42F6D10435C9
:1030F40006E0236845F8043B0023236044F8043BBE
:10310400A045F6D1B168A1EB0A01BAF1000F02D0D3
:10311400504600F0C7FAC6F80090756009EB8707BF
:10312400B76003B0BDE8F08F703D000808B50A46EB
:1031340041688368994207D013680B6000231360C9
:1031440043680433436008BDFFF784FFFBE70000D6
:103154002DE9F04F83B006461546012300934368DA
:1031640002689A1A6FF06040B0EBA20F24D0971057
:10317400019727B301AA1268174432689B1AB7EB68
:10318400A30F1ED3B7F1005F1ED2D6F800A0D6F865
:1031940004800C46A1EB0A0BDFB1B7F1005F16D235
:1031A400B80000F090FA81462B6849F80B300023F0
:1031B4002B604D46534616E01A4800F09BFA6A46C7
:1031C400D9E76FF06047E0E76FF06047DDE700F0B4
:1031D4008EFA4FF00009E7E71A6845F8042B00223D
:1031E4001A6043F8042B9C42F6D1043506E02368A8
:1031F40045F8043B0023236044F8043BA045F6D182
:10320400B168A1EB0A01BAF1000F02D0504600F0F8
:1032140049FAC6F80090756009EB8707B76003B0F8
:10322400BDE8F08F703D000808B50A464168836820
:10323400994207D013680B6000231360436804337A
:10324400436008BDFFF784FFFBE7000070B58AB058
:10325400734B1B78BFF35B8F13F0010F01D0714DDB
:103264001EE06F4800F020FA0028F8D06E4A6F493B
:103274006F4800F012FA6A4800F022FAEFE720469D
:1032840000F0A4F91C21204600F00CFA002304935A
:10329400039810B103685B689847002303931435BF
:1032A400644B9D4236D0182000F00DFA00240460CF
:1032B40044608460C460046144615F4B03600346FE
:1032C4005E4A43F8042B5C609C60DC601C610394E0
:1032D4000390039407901C2000F0F5F906462B4652
:1032E40007AA534900F05EF904940496079810B1B4
:1032F40003685B68984700230793049800F071F90A
:1033040004A94F48FFF794FE049C002CBED0002C67
:10331400B5D1BBE74B4C4C4B9C424BD02378022B92
:1033240046D04A4E4FF4B87000F0CDF905464FF040
:1033340000630193464A009218323146FFF796FA29
:10334400002603960395039608953C2000F0BBF9EC
:103354000546234608AA364900F09DF804960495CC
:10336400089810B103685B68984700230893049891
:1033740000F0B8F822780499364B43F8221004A9D7
:103384003548FFF7D3FE049D3DB135B1284600F022
:103394009EF83C21284600F085F900230493039805
:1033A40010B103685B689847002303933434B2E791
:1033B4002A4EB7E7082000F086F904462849FFF7AB
:1033C40089F800250595059405950994042000F0D5
:1033D4007AF9044609A900F04EF80695069409986E
:1033E40010B103685B6898470023099306A91D4838
:1033F400FFF71AFF069C3CB134B1204600F040F8B8
:103404000421204600F04EF900230693059810B1DC
:1034140003685B689847002305930AB070BD00BF3A
:10342400C0000020203E000800000020912C00086D
:10343400300000205C3E0008403D00085C3D000870
:10344400F0000020EC3D0008203E00080010014080
:1034540088600240C4000020FC00002000440040BA
:10346400A0600240E400002008B54FF6FF7101207F
:10347400FFF716FC08BD0B68036000230B60704760
:1034840010B50446006810B103685B6898470023D0
:103494002360204610BD10B50446016011684160E8
:1034A4000021116000F1080E9C46BCE80F00AEE854
:1034B4000F00BCE80F00AEE80F00BCE80F00AEE858
:1034C4000F00DCF80030CEF80030204610BD10B5F7
:1034D4000446406810B103685B6898470023636042
:1034E400204610BD10B584B00446006803685B69CB
:1034F400217A984700B9FEE7206803689B68217B1E
:103504009847214651F80C0B03681B6998472068BB
:1035140003689B6894F820109847214651F8200BC3
:1035240003681B69984720680368DB69217A984718
:1035340094F83A3023B1206803681B6A217A9847CB
:1035440094F83B3023B1206803685B6A217A98477A
:103554004FF4E1330193002302938DF80C308DF87E
:103564000D308DF80E308DF80F30636B019394F8A5
:103574003B3023B994F83A2092B1012200E00222B0
:10358400029294F83A208DF80C208DF80E308DF8C4
:103594000F30606803689B6801A9984704B010BDA8
:1035A4000022EDE710B50446016011684160002176
:1035B400116000F1080E9C46BCE80F00AEE80F0055
:1035C400DCF80030CEF80030204610BD10B50446BB
:1035D400406810B103685B68984700236360204625
:1035E40010BD38B50446C368022B11D020680368A7
:1035F4009B68217A9847254655F8080B03681B6990
:1036040029469847606803689B682946984738BDEF
:1036140000680368DB68227EA1689847E6E708B57E
:1036240040680368DB68984708BD10B504468646C1
:1036340001F1080CBCE80F00AEE80F00DCF8003024
:10364400CEF80030204610BDDFF834D00D480E49C6
:103654000E4A002302E0D458C4500433C4188C42E8
:10366400F9D30B4A0B4C002301E013600432A2424D
:10367400FBD3FCF7A3FF00F079F8FEF7E8FD7047F1
:1036840000000220000000209C000020703E000882
:103694009C0000201C010020FEE70B460146184652
:1036A40000F050B800F029B80268D207034605D4E8
:1036B400427802B1FFDE0120587070470020704745
:1036C400012303607047012838BF012010B5044668
:1036D400204600F06FF830B900F024F808B900F083
:1036E40029F88047F4E710BD08B500F015F808B5CF
:1036F40000F020F808B500F01DF800F063B808B534
:10370400804700F017F80000024B1868BFF35B8F86
:10371400704700BF3400002008B5FFF7F5FFFFF73E
:10372400EEFF0000024B1868BFF35B8F704700BFC9
:103734000801002008B5062000F06AF90120FCF712
:1037440037FF000010B504460448134620B10A466A
:1037540002202146AFF3008010BD00BF000000002E
:10376400014B1868704700BF3800002070B50D4D3C
:103774000D4C641BA4100026A64209D10B4D0C4C21
:1037840000F070F9641BA4100026A64205D170BD98
:1037940055F8043B98470136EEE755F8043B984743
:1037A4000136F2E7643E0008643E0008643E000807
:1037B4006C3E0008024B0146186800F07DB800BF5B
:1037C40038000020024B0146186800F00BB800BF17
:1037D4003800002002440346934200D1704703F8A6
:1037E400011BF9E738B50546002941D051F8043CDE
:1037F4000C1F002BB8BFE41800F026F91D4A13680B
:1038040033B9636014602846BDE8384000F022B93B
:10381400A34208D9206821188B4201BF19685B684C
:1038240009182160EDE71A465B680BB1A342FAD987
:1038340011685018A0420BD12068014450188342EB
:103844001160E0D118685B68536001441160DAE7E5
:1038540002D90C232B60D6E7206821188B4204BFC1
:1038640019685B68636004BF091821605460CAE783
:1038740038BD00BF0C01002070B50E4E0C463168F7
:10388400054611B900F08CF830602146284600F056
:1038940087F8431C0AD0C41C24F00304A04207D0B8
:1038A400211A284600F07CF8013001D14FF0FF3492
:1038B400204670BD100100202DE9F041CD1C25F0FB
:1038C400030508350C2D38BF0C25002D074601DBF8
:1038D400A94205D90C233B6000263046BDE8F0819F
:1038E4002E4E00F0B1F833681C4634BB29463846E6
:1038F400FFF7C2FF431C04464DD134682646002E10
:1039040040D123683146384604EB030800F048F8F8
:1039140080453AD1216803356D1A25F00305083531
:103924000C2D38BF0C2529463846FFF7A5FF01307A
:103934002BD023682B4423600EE02268521B1ED434
:103944000B2A16D96119A342256018BF5960636810
:1039540008BF316062514B60384604F10B0600F039
:1039640079F826F00706231DF21AB6D09B1BA35044
:10397400B3E76268A3420CBF32605A60ECE72346A7
:103984006468B2E734467668B9E70C233B6038468E
:1039940000F060F8A1E72560DEE700BF0C0100201D
:1039A40038B5064D0023044608462B60FCF7D2FDCB
:1039B400431C02D12B6803B1236038BD14010020DD
:1039C4001F2938B504460D4604D9162303604FF069
:1039D400FF3038BD426C12B152F821304BB9204649
:1039E40000F030F82A4601462046BDE8384000F091
:1039F40017B8012B0AD0591C03D1162303600120E8
:103A0400E7E7002442F82540284698470020E0E7ED
:103A1400024B01461868FFF7D3BF00BF38000020EF
:103A240038B5074D00230446084611462B60FCF7C1
:103A3400B7FD431C02D12B6803B1236038BD00BF1E
:103A440014010020FCF7AABD014800F009B800BF2A
:103A540018010020014800F004B800BF180100203C
:103A640070477047F8B500BFF8BC08BC9E46704765
:0C3A7400F8B500BFF8BC08BC9E467047C7
:103A80000000000000000000000000000000000036
:103A90000000000000000000000000000000000026
:103AA0000100010100000000000000000000000013
:103AB00001020304060708090000000001020304D4
:103AC00048414C2F53542F73746D333266342F5347
:103AD000544D3332463478785F48414C5F447269C4
:103AE0007665722F5372632F73746D333266347838
:103AF000785F68616C5F7263632E630048414C2F8E
:103B000053542F73746D333266342F53544D333204
:103B1000463478785F48414C5F4472697665722F0D
:103B20005372632F73746D3332663478785F6861D3
:103B30006C5F7263635F65782E63000048414C2FB1
:103B400053542F73746D333266342F53544D3332C4
:103B5000463478785F48414C5F4472697665722FCD
:103B60005372632F73746D3332663478785F686193
:103B70006C5F6770696F2E630000000048414C2F36
:103B800053542F73746D333266342F53544D333284
:103B9000463478785F48414C5F4472697665722F8D
:103BA0005372632F73746D3332663478785F686153
:103BB0006C5F646D612E630000061016000610161F
:103BC00048414C2F53542F73746D333266342F5346
:103BD000544D3332463478785F48414C5F447269C3
:103BE0007665722F5372632F73746D333266347837
:103BF000785F68616C5F7077725F65782E63000034
:103C000048414C2F53542F73746D333266342F5305
:103C1000544D3332463478785F48414C5F44726982
:103C20007665722F5372632F73746D3332663478F6
:103C3000785F68616C5F636F727465782E630000F3
:103C400048414C2F53542F73746D333266342F53C5
:103C5000544D3332463478785F48414C5F44726942
:103C60007665722F5372632F73746D3332663478B6
:103C7000785F68616C5F756172742E63000000008C
:103C80000000000000000000000000000000000034
:103C9000ED360008ED360008ED360008ED36000878
:103CA0000000000000000000A5240008C524000852
:103CB000B9240008BB240008BD240008C124000862
:103CC00000000000000000000000000000000000F4
:103CD000ED360008ED360008ED360008ED36000838
:103CE000ED360008ED360008ED360008ED36000828
:103CF000ED360008ED360008ED3600080000000043
:103D00000000000001280008A5270008ED24000895
:103D10009B250008AB250008BB250008C725000827
:103D2000D3250008DF25000859260008C72600080B
:103D3000EB25000835270008000000000000000007
:103D40000000000000000000ED360008ED3600081D
:103D5000ED360008000000000000000025290008E2
:103D6000052A000839290008892A0008252A0008A0
:103D7000766563746F723A3A5F4D5F7265616C6C21
:103D80006F635F696E73657274000000000000006D
:103D9000000000000000000000000000ED360008F8
:103DA000ED360008ED360008ED360008ED36000867
:103DB000ED360008ED360008ED3600080000000082
:103DC00000000000912C0008252E0008ED2A0008B4
:103DD000BD2B0008692D0008C92B0008052C000820
:103DE000112C00084D2D0008092D000802000000CC
:103DF00000020000020000000100000002000000BC
:103E000007000000000300000200000001000000A5
:103E1000020000000700000000C2010000000101D4
:103E2000000500000100000000000000000000008C
:103E3000000000000002000002000000010000007D
:103E40000200000007000000000300000200000064
:0C3E50000100000002000000070000005C
:083E5C00D8C3FF7F0100000044
:083E6400E90100086D340008BB
:043E6C00C501000884
:103E7000000000000024F400010000001000000019
:103E8000001001400000000000440040000000005D
:103E90000048004000000000001401400000000045
:103EA000C43D0008393700083C0000200000000035
:103EB0000000000000000000000000000000000002
:103EC00000000000000000000000000000000000F2
:103ED00000000000000000000000000000000000E2
:103EE00000000000000000000000000000000000D2
:103EF00000000000000000000000000000000000C2
:0C3F0000000000000000000000000000B5
:040000050800364D6C
:00000001FF
