:020000040800F2
:1000000000000220C9170008090500080B050008B8
:100010000D0500080F05000811050008000000008C
:1000200000000000000000000000000013050008B0
:100030001505000800000000170500081905000854
:1000400019180008191800081918000819180008CC
:1000500019180008191800081918000819180008BC
:1000600019180008191800081918000819180008AC
:10007000191800081918000819180008191800089C
:10008000191800081918000819180008191800088C
:10009000191800081918000819180008191800087C
:1000A000191800081918000819180008191800086C
:1000B000191800081918000819180008191800085C
:1000C000191800081918000819180008191800084C
:1000D000191800081918000819180008191800083C
:1000E000191800081918000819180008191800082C
:1000F000191800081918000819180008191800081C
:10010000191800081918000819180008191800080B
:1001100019180008191800081918000819180008FB
:1001200019180008191800081918000819180008EB
:10013000191800080000000000000000191800084D
:1001400019180008191800081918000819180008CB
:1001500019180008191800081918000819180008BB
:1001600019180008191800081918000819180008AB
:1001700019180008191800081918000800000000D4
:100180000000000019180008000000000000000036
:1001900019180008000000000000000019180008ED
:1001A0000000000000000000000000001918000816
:1001B000191800081918000819180008191800085B
:0401C0001918000802
:1001C40010B5054C237833B9044B13B10448AFF38D
:1001D40000800123237010BD0C00002000000000EB
:1001E4007418000808B5034B1BB103490348AFF367
:1001F400008008BD000000001000002074180008F2
:1002040053B94AB9002908BF00281CBF4FF0FF3179
:100214004FF0FF3000F074B9ADF1080C6DE904CE75
:1002240000F006F8DDF804E0DDE9022304B07047CD
:100234002DE9F047089D04468E46002B4DD18A4295
:10024400944669D9B2FA82F252B101FA02F3C2F1C8
:10025400200120FA01F10CFA02FC41EA030E944059
:100264004FEA1C48210CBEFBF8F61FFA8CF708FB7A
:1002740016E341EA034306FB07F199420AD91CEB52
:10028400030306F1FF3080F01F81994240F21C8184
:10029400023E63445B1AA4B2B3FBF8F008FB1033CC
:1002A40044EA034400FB07F7A7420AD91CEB040401
:1002B40000F1FF3380F00A81A74240F207816444D1
:1002C400023840EA0640E41B00261DB1D440002356
:1002D400C5E900433146BDE8F0878B4209D9002DBA
:1002E40000F0EF800026C5E9000130463146BDE844
:1002F400F087B3FA83F6002E4AD18B4202D38242AE
:1003040000F2F980841A61EB030301209E46002D5C
:10031400E0D0C5E9004EDDE702B9FFDEB2FA82F2B1
:10032400002A40F09280A1EB0C014FEA1C471FFA0F
:100334008CFE0126200CB1FBF7F307FB131140EAF6
:1003440001410EFB03F0884208D91CEB010103F1C3
:10035400FF3802D2884200F2CB804346091AA4B285
:10036400B1FBF7F007FB101144EA01440EFB00FE59
:10037400A64508D91CEB040400F1FF3102D2A645BE
:1003840000F2BB800846A4EB0E0440EA03409CE75D
:10039400C6F12007B34022FA07FC4CEA030C20FA0A
:1003A40007F401FA06F31C43F9404FEA1C4900FA2A
:1003B40006F3B1FBF9F8200C1FFA8CFE09FB1811A7
:1003C40040EA014108FB0EF0884202FA06F20BD91A
:1003D4001CEB010108F1FF3A80F08880884240F26A
:1003E4008580A8F102086144091AA4B2B1FBF9F0AE
:1003F40009FB101144EA014100FB0EFE8E4508D9A9
:100404001CEB010100F1FF346CD28E456AD902382D
:10041400614440EA0840A0FB0294A1EB0E01A14212
:10042400C846A64656D353D05DB1B3EB080261EB80
:100434000E0101FA07F722FA06F3F1401F43C5E95A
:10044400007100263146BDE8F087C2F12003D84090
:100454000CFA02FC21FA03F3914001434FEA1C47D2
:100464001FFA8CFEB3FBF7F007FB10360B0C43EAC4
:10047400064300FB0EF69E4204FA02F408D91CEB74
:10048400030300F1FF382FD29E422DD90238634472
:100494009B1B89B2B3FBF7F607FB163341EA034112
:1004A40006FB0EF38B4208D91CEB010106F1FF3861
:1004B40016D28B4214D9023E6144C91A46EA004658
:1004C40038E72E46284605E70646E3E61846F8E6EA
:1004D4004B45A9D2B9EB020864EB0C0E0138A3E733
:1004E4004646EAE7204694E74046D1E7D0467BE714
:1004F400023B614432E7304609E76444023842E78C
:10050400704700BFFEE7FEE7FEE7FEE7FEE7704741
:100514007047704708B500F005FF08BD002800F0DB
:10052400F78070B50D4604460368013B0E2B6BD86B
:100534000F2D6FD87A4B1B6803F00F03AB4208D220
:10054400EBB2774A1370136803F00F03AB4240F029
:10055400E180236813F0020F29D013F0040F04D0B4
:10056400704A936843F4E0539360236813F0080FD0
:1005740004D06C4A936843F460439360A3687BB1EE
:10058400802B0DD0902B0BD0A02B09D0B02B07D0F3
:10059400C02B05D0D02B03D0E02B01D0F02B3FD1C2
:1005A400604A936823F0F003A1680B4393602368C7
:1005B40013F0010F4ED06368032B37D86368012B07
:1005C4003AD09A1E012A3ED9564A126812F0020FF6
:1005D40000F0A28053498A6822F0030213438B601F
:1005E40000F0ACFE06464F4B9B6803F00C036268B8
:1005F400B3EB820F2ED000F0A1FE801B41F28833B2
:100604009842F0D9032076E04FF41771464800F081
:10061400DFFE8DE740F25D21434800F0D9FE89E713
:100624004FF42071404800F0D3FEB9E740F287212F
:100634003D4800F0CDFEC1E73A4A126812F4003F8B
:10064400C8D1012057E0374A126812F0007FC1D1A7
:10065400012050E0324B1B6803F00F03AB4207D973
:10066400EAB22F4B1A701B6803F00F03AB4255D14B
:10067400236813F0040F14D0E3685BB1B3F5805F13
:1006840008D0B3F5A05F05D0B3F5C05F02D0B3F5D1
:10069400E05F31D1234A936823F4E053E1680B43CC
:1006A4009360236813F0080F15D023695BB1B3F589
:1006B400805F08D0B3F5A05F05D0B3F5C05F02D06A
:1006C400B3F5E05F1ED1174A936823F460432169B0
:1006D40043EAC103936000F02FF8124B9B68C3F305
:1006E4000313124AD35CD840114B1860114B18689D
:1006F40000F0D8FD002070BD40F2C5210A4800F08A
:1007040067FEC7E74FF43371074800F061FEDAE78C
:10071400012070470120EEE70120ECE70120EAE721
:10072400003C0240003802408C180008C41900083C
:10073400080000200400002008B5444B9B6803F027
:100744000C03082B07D00C2B43D0042B01D04048BA
:1007540008BD4048FCE73D4B5A6802F03F025B6825
:1007640013F4800F12D0394B5968C1F388113948FA
:100774000023A1FB0001FFF743FD344B5B68C3F387
:10078400014301335B00B0FBF3F0E1E72F4B596801
:10079400C1F3881C4FEA4C11B1EB0C006EEB0E0E4A
:1007A4004FEA8E1343EA90638101091A63EB0E0347
:1007B400DB0043EA5173C90011EB0C0C43F1000355
:1007C400990200234FEA8C2041EA9C51FFF718FD5F
:1007D400D3E71E4B5A6802F03F025B6813F4800FA4
:1007E40010D01A4B5968C1F388111A480023A1FB91
:1007F4000001FFF705FD154B5B68C3F30273B0FB03
:10080400F3F0A5E7114B5968C1F3881C4FEA4C116A
:10081400B1EB0C006EEB0E0E4FEA8E1343EA9063BD
:100824008101091A63EB0E03DB0043EA5173C9002B
:1008340011EB0C0C43F10003990200234FEA8C20C6
:1008440041EA9C51FFF7DCFCD5E700BF00380240C9
:100854000024F40040787D01002800F0968270B5F1
:1008640082B0044603680F2B3FD8236813F0010FAE
:1008740055D063682BB1B3F5803F02D0B3F5A02FF8
:1008840039D18E4B9B6803F00C03042B3ED08B4B69
:100894009B6803F00C03082B33D0884B9B6803F050
:1008A4000C030C2B6CD06368B3F5803F6ED0B3F5AA
:1008B400A02F71D0814B1A6822F480321A601A6812
:1008C40022F480221A606368002B6FD000F036FD9A
:1008D40005467A4B1B6813F4003F20D100F02EFD2F
:1008E400401B6428F5D9032056E240F6125174489F
:1008F40000F06EFDB9E740F61751714800F068FD4D
:10090400BFE76E4B5B6813F4800FC6D06B4B1B685C
:1009140013F4003F03D06368002B00F0388223688F
:1009240013F0020F73D0E368012B4ED823691F2BF9
:1009340051D8624B9B6813F00C0F57D05F4B9B68E8
:1009440003F00C03082B4CD05C4B9B6803F00C03A6
:100954000C2B79D0E368002B00F08580594B0122E1
:100964001A6000F0EBFC0546544B1B6813F0020FB1
:1009740070D100F0E3FC401B0228F5D903200BE200
:100984004E4B5B6813F4800F8DD0BFE74B4A13685E
:1009940043F48033136096E7484B1A6842F480228C
:1009A4001A601A6842F480321A608CE700F0C6FCC0
:1009B4000546424B1B6813F4003FB0D000F0BEFC68
:1009C400401B6428F5D90320E6E140F64F513C482A
:1009D40000F0FEFCAAE74FF45561394800F0F8FC3A
:1009E400A7E7364B5B6813F4800FADD1334B1B681C
:1009F40013F0020F03D0E368012B40F0CA812F4AA1
:100A0400136823F0F803216943EAC10313602368E0
:100A140013F0080F58D06369012B36D86369002B93
:100A240039D0284B0122C3F8802E00F087FC0546FC
:100A3400224B5B6F13F0020F46D100F07FFC401B8A
:100A44000228F5D90320A7E11C4B5B6813F4800F3F
:100A540080D1CBE7194A136823F0F803216943EAEC
:100A6400C1031360D3E7174B00221A6000F066FC41
:100A74000546124B1B6813F0020FC8D000F05EFC51
:100A8400401B0228F5D9032086E140F696510C4814
:100A940000F09EFCC2E70B4B0022C3F8802E00F04E
:100AA4004DFC0546054B5B6F13F0020F0CD000F0B4
:100AB40045FC401B0228F5D903206DE100380240B3
:100AC400C818000800004742236813F0040F7CD0C4
:100AD400A368012B01D9052B38D1924B1B6C13F061
:100AE400805F39D1002301938E4B1A6C42F08052FF
:100AF4001A641B6C03F080530193019B01258A4BFC
:100B04001B6813F4807F29D0A368012B3AD0052BEE
:100B14003ED0844B1A6F22F001021A671A6F22F03A
:100B240004021A67A368002B3CD000F007FC0646B9
:100B34007C4B1B6F13F0020F45D100F0FFFB801BB1
:100B440041F288339842F3D9032025E140F6C2519B
:100B5400764800F03DFCC0E70025D0E7724A1368F0
:100B640043F48073136000F0E9FB06466E4B1B6888
:100B740013F4807FC8D100F0E1FB801B0228F5D973
:100B8400032009E1674A136F43F001031367C9E7C0
:100B9400644B1A6F42F004021A671A6F42F00102A2
:100BA4001A67BFE700F0CAFB06465E4B1B6F13F0E3
:100BB400020F08D000F0C2FB801B41F28833984238
:100BC400F3D90320E8E0002D40D1A369022B43D8D8
:100BD400A369002B00F0DF80524A926802F00C02F5
:100BE400082A00F0A780022B40F08780E36913B144
:100BF400B3F5800F36D1236A3F2B39D8636A323B71
:100C0400B3F5BF7F3AD8A36A022B05D0042B03D0D7
:100C1400062B01D0082B37D1E36A023B0D2B39D8C0
:100C2400236B023B052B3BD8414B00221A6600F094
:100C340085FB05463B4B1B6813F0007F36D000F064
:100C44007DFB401B0228F5D90320A5E0354A136C2F
:100C540023F080531364B8E740F60561334800F08D
:100C6400B7FBB5E740F60E61304800F0B1FBC2E7D0
:100C740040F60F612D4800F0ABFBBFE74FF4616114
:100C84002A4800F0A5FBBEE740F61161274800F0B2
:100C94009FFBC1E740F61261244800F099FBBFE7CF
:100CA40040F61361214800F093FBBDE7E369226A33
:100CB4001343626A43EA8213A26A5208013A43EA7E
:100CC4000243E26A43EA0263226B43EA0273154A6F
:100CD4005360174B01221A6600F030FB0446114B97
:100CE4001B6813F0007F06D100F028FB001B0228CC
:100CF400F5D9032050E000204EE00D4B00221A6687
:100D040000F01CFB0446074B1B6813F0007F06D061
:100D140000F014FB001B0228F5D903203CE000205E
:100D24003AE000BF0038024000700040C8180008D4
:100D340000004742012B31D01F4B5B6803F4800154
:100D4400E26991422CD103F03F02216A8A4229D1FF
:100D5400616A47F6C0721A40B2EB811F24D103F4D2
:100D64004031A26A5208013AB1EB024F1ED103F09E
:100D74007062E16AB2EB016F1AD103F0E043226BB7
:100D8400B3EB027F16D1002006E00120704701205A
:100D940002E0012000E0002002B070BD0120FBE76A
:100DA4000120F9E70120F7E70120F5E70120F3E747
:100DB4000120F1E70120EFE7003802402DE9F0417E
:100DC40082B007460E46544B98421FD003F5806309
:100DD40098421BD003F58063984217D003F58063D3
:100DE400984213D003F5806398420FD003F58063D3
:100DF40098420BD003F58063984207D003F58063D3
:100E0400984203D0AC21454800F0E2FA33689AB224
:100E140012B11B0C1B041BB1AD21404800F0D8FAE1
:100E24007368012B19D9112B17D0022B15D0122B53
:100E340013D0B3F5881F10D0B3F5041F0DD0B3F54C
:100E4400441F0AD0B3F5901F07D0B3F5081F04D090
:100E5400B3F5481F01D0032B01D1002496E0AE2145
:100E64002E4800F0B5FAF8E7F368032B13D8BA68F4
:100E7400610003238B4022EA0302F3688B4013438F
:100E8400BB607A6822EA05027368C3F30015A540C3
:100E940015437D608BE0C021204800F099FAE6E715
:100EA400D1211E4800F094FA8AE03369DBB1092BA2
:100EB40019D0012B17D0022B15D0032B13D0042BE0
:100EC40011D0052B0FD0062B0DD0072B0BD0082BE0
:100ED40009D00A2B07D00B2B05D00C2B03D00D2BDC
:100EE40001D00F2B10D1E208083257F8220004F089
:100EF400070399000F238B4020EA030033698B40DA
:100F0400034347F822306BE0DE21044800F060FA26
:100F1400E9E7062305E000BF0000024008190008C5
:100F240000238B4003430232574941F82230574B88
:100F34001A686FEA080322EA0801706810F4803F17
:100F440001D048EA0201514A1160526803EA0201E1
:100F5400706810F4003F01D048EA02014B4A516026
:100F6400926803EA0201706810F4801F01D048EA15
:100F74000201464A9160D2681340716811F4001F5F
:100F840001D048EA0203414AD36001340F2C78D8D7
:100F94000125A540336803EA050835EA0303F4D1C3
:100FA400736803F00303013B012B7FF65DAF7368A5
:100FB40003F00303032B0DD0B368022B3FF670AF8D
:100FC400FA68610003238B4022EA0302B3688B4072
:100FD4001343FB60736803F00303022B3FF465AF14
:100FE4003A68610003238B4022EA0302736803F02A
:100FF40003038B4013433B60736813F4403FC4D036
:1010040000230193224B5A6C42F480425A645B6C75
:1010140003F480430193019BA208911C1A4B53F8DB
:10102400210004F0030399000F238B4020EA0300FE
:10103400184B9F423FF474AF03F580639F4216D070
:1010440003F580639F4214D003F580639F4212D05E
:1010540003F580639F4210D003F580639F420ED056
:1010640003F580639F423FF454AF072359E70123FC
:1010740057E7022355E7032353E7042351E70523E6
:101084004FE702B0BDE8F08100380140003C014068
:10109400003802400000024070B5054614460E4672
:1010A40021B1012C08D86CB1AE6170BD40F29D1124
:1010B400064800F08DF9F4E74FF4CF71034800F0CF
:1010C40087F9F0E73604AE61EFE700BF08190008BE
:1010D40030B583B00546B0F5404F05D0B0F5004FAC
:1010E40002D0B0F5804F22D1002300932D4B1A6C0F
:1010F40042F080521A641A6C02F080520092009AF4
:101104009B6803F00C03082B48D0274B00221A6677
:1011140000F014F90446234B1B6813F0007F0CD035
:1011240000F00CF9031B022BF5D9032037E04FF430
:1011340093711E4800F04CF9D6E7002301931C4A32
:10114400136823F440431D431560136803F44043BC
:101154000193019B144B01221A6600F0EFF8044638
:10116400104B1B6813F0007F06D100F0E7F8001B5A
:101174000228F5D9032012E000F0E0F804460C4BF5
:101184005B6813F4804F07D100F0D8F8001BB0F56A
:101194007A7FF4D9032002E0002000E0012003B0AC
:1011A40030BD00BF00380240000047424419000827
:1011B4000070004010B50446C31E042B0FD80A4A21
:1011C400D36823F4E0631B041B0C240204F4E064DE
:1011D400234343F0BF6343F40033D36010BD922133
:1011E400024800F0F5F8EAE700ED00E08419000891
:1011F40070B505460C4616460F2A25D80F2C28D85C
:101204001B4BDB68C3F30223C3F10701042928BF86
:1012140004211A1D062A21D9033B4FF0FF3202FA9A
:1012240001F124EA01049C4002FA03F326EA0306CE
:101234003443002D14DB2401E4B205F1604505F5C7
:10124400614585F8004370BDAA210A4800F0C0F842
:10125400D4E7AB21074800F0BBF8D1E70023DCE773
:1012640005F00F052401E4B2034B5C55EBE700BF26
:1012740000ED00E08419000814ED00E00138B0F13D
:10128400807F0BD24FF0E0235861054AF02182F8A9
:1012940023100020986107221A61704701207047CB
:1012A40000ED00E010B504460E4B18784FF47A7345
:1012B400B3FBF0F30C4A1068B0FBF3F0FFF7DEFF6A
:1012C40068B90F2C01D901200AE0002221464FF011
:1012D400FF30FFF78DFF054B1C60002000E001206C
:1012E40010BD00BF00000020080000200400002002
:1012F40008B50B4B1A6842F400721A601A6842F47B
:1013040080621A601A6842F480721A600320FFF740
:1013140051FF0F20FFF7C6FF00F02AF8002008BD98
:10132400003C0240034A1168034B1B780B441360D2
:10133400704700BF2800002000000020014B1868FF
:10134400704700BF2800002038B50446FFF7F6FFB9
:101354000546B4F1FF3F02D0044B1B781C44FFF751
:10136400EDFF401BA042FAD338BD00BF00000020AF
:1013740082B0002100910B4B5A6C42F480425A64B3
:101384005A6C02F480420092009A01911A6C42F065
:1013940080521A641B6C03F080530193019B02B0CA
:1013A400704700BF00380240034AD2F8883043F443
:1013B4007003C2F88830704700ED00E008B5FFF70D
:1013C40097FF08BD08B5FFF7BFFF08BD72B6FEE77B
:1013D4007047402825D012D8102824D8022824D3B6
:1013E40002380E2809D8DFE800F022081608080899
:1013F40018080808080808081A0000207047B0F503
:10140400807F16D0B0F5007F01D1F020704780288E
:1014140011D1D020704790207047A0207047B02091
:101424007047C0207047002070470020704780201C
:101434007047E02070470020704702380E2809D812
:10144400DFE800F013080A0808080D08080808086F
:1014540008081000002070474FF4A05070474FF464
:10146400C05070474FF4E05070474FF480507047BD
:10147400002875D030B595B0054600240194404B42
:101484001A6C42F080521A641B6C03F0805301936F
:10149400019B4FF44040FFF71BFE3422214607A86E
:1014A40000F0DEF90294039404940594069407234F
:1014B40002930F2302932B78012B27D0022B31D0D8
:1014C40013B16FF004001FE00223079301230A9372
:1014D40010230B9307A8FFF7BFF9002843D1039407
:1014E400288CFFF776FF049095F82200FFF7A5FFFC
:1014F400059095F82300FFF7A0FF0690696A02A8FB
:10150400FFF70CF8002837D115B030BD012307933D
:101514004FF48033089307A8FFF79EF930BB0123EB
:101524000393DDE72B7993B1012307934FF48033C1
:10153400089302230D932B7983B14FF480030E9308
:1015440007A8FFF789F9A0B902230393C8E7022388
:10155400079301230A9310230B93EAE70023EEE792
:101564004FF0FF3070476FF00100CDE76FF00200DD
:10157400CAE76FF00300C7E76FF00500C4E700BFD8
:101584000038024000B58BB028220021684600F0E4
:1015940067F90123ADF820308DF822308DF823301F
:1015A4006846FFF765FF10B90BB05DF804FBFFF761
:1015B4000DFFF9E7012800D0704708B54FF6FF7317
:1015C400994200D008BD05220021024800F0A2F88B
:1015D400F8E700BF2C00002000B583B0FFF7EEFE53
:1015E400FFF7D0FF00220092022301210A4800F0F5
:1015F40095F8094C0121204600F0D0F84FF47A7098
:10160400FFF7E0FE0021204600F0C8F84FF47A709E
:10161400FFF7D8FEEDE700BF2C00002008B54FF619
:10162400FF710120FFF7C6FF08BD000088B007283E
:1016340011D8DFE800F004121F2C39465360002350
:101644000093334B1A6B42F001021A631B6B03F0D5
:1016540001030093009B08B07047002301932C4BB7
:101664001A6B42F002021A631B6B03F0020301932C
:10167400019BF0E700230293254B1A6B42F004020E
:101684001A631B6B03F004030293029BE3E700233A
:1016940003931F4B1A6B42F008021A631B6B03F08F
:1016A40008030393039BD6E700230493184B1A6B98
:1016B40042F010021A631B6B03F010030493049BA3
:1016C400C9E700230593124B1A6B42F020021A63F8
:1016D4001B6B03F020030593059BBCE700230693D3
:1016E4000B4B1A6B42F040021A631B6B03F040036E
:1016F4000693069BAFE700230793054B1A6B42F052
:1017040080021A631B6B03F080030793079BA2E715
:10171400003802400170427070470000F0B587B095
:1017240004460078072802D9002007B0F0BD0D4612
:1017340017461E46FFF77AFF00210191029103919B
:10174400049105916278012393400193022D17D0EF
:10175400032D18D0012D10D0012F17D0022F18D02F
:1017640004969DF830300593227801A90A4B53F86A
:101774002200FFF723FB0120D7E701230293EBE7C5
:1017840002230293E8E703230293E5E7012303938B
:10179400E6E702230393E3E7D419000808B50346F8
:1017A4000078074A52F820005A78012393409BB2EC
:1017B40021B101221946FFF76FFC08BD0022F9E7A9
:1017C400D4190008DFF834D00D480E490E4A00231E
:1017D40002E0D458C4500433C4188C42F9D30B4AE1
:1017E4000B4C002301E013600432A242FBD3FFF749
:1017F400DBFD00F011F8FFF7EFFE70470000022058
:10180400000000200C000020081A00080C00002032
:1018140030000020FEE7000070B50D4D0D4C641B38
:10182400A4100026A64209D10B4D0C4C00F020F860
:10183400641BA4100026A64205D170BD55F8043BD4
:1018440098470136EEE755F8043B98470136F2E72E
:10185400FC190008FC190008FC190008041A000807
:1018640002440346934200D1704703F8011BF9E791
:10187400F8B500BFF8BC08BC9E467047F8B500BF79
:08188400F8BC08BC9E46704749
:10188C0056656E646F725F48414C2F53542F5354FE
:10189C004D3332463478785F48414C5F44726976F8
:1018AC0065722F5372632F73746D3332663478788C
:1018BC005F68616C5F7263632E63000056656E64D3
:1018CC006F725F48414C2F53542F53544D33324653
:1018DC003478785F48414C5F4472697665722F5357
:1018EC0072632F73746D3332663478785F68616C11
:1018FC005F7263635F65782E6300000056656E64EB
:10190C006F725F48414C2F53542F53544D33324612
:10191C003478785F48414C5F4472697665722F5316
:10192C0072632F73746D3332663478785F68616CD0
:10193C005F6770696F2E630056656E646F725F48E7
:10194C00414C2F53542F53544D3332463478785FD7
:10195C0048414C5F4472697665722F5372632F73E2
:10196C00746D3332663478785F68616C5F7077724F
:10197C005F65782E6300000056656E646F725F4879
:10198C00414C2F53542F53544D3332463478785F97
:10199C0048414C5F4472697665722F5372632F73A2
:1019AC00746D3332663478785F68616C5F636F7224
:1019BC007465782E63000000000000000000000039
:1019CC00010203040607080900000240000402405B
:1019DC0000080240000C02400010024000140240BB
:0819EC0000180240001C02403B
:0819F40040E8FF7F0100000044
:0819FC00E901000821160008B2
:041A0400C501000810
:0C1A080001000000100000000024F400A9
:04000005080017C90F
:00000001FF
